:100000000C943B060C9482060C9482060C94820697
:100010000C9482060C9482060C9482060C94820640
:100020000C9482060C9482060C9474310C94483221
:100030000C94EA220C9482060C9482060C9482069C
:100040000C9482060C9482060C9482060C94820610
:100050000C9482060C9441230C9482060C94820624
:100060000C9482060C9482060C9482060C948206F0
:100070000C9482060C9482060C9482060C948206E0
:100080000C9482060C9482060C9482060C948206D0
:100090000C9482060C9482060C9482060C948206C0
:1000A0000C9482060C9482060C94820600002400B4
:1000B000250026002A00000021002200230029003C
:1000C00000001E001F0020002B00F4000158270034
:1000D000370028000000010001000100005C000062
:1000E00001000100010057000000010001000100B3
:1000F0005600DF5C0100010001002E00444542551E
:10010000473A2064697361626C65642E0A00444555
:100110004255473A20656E61626C65642E0A0000A4
:10012000000000000000002A2B2800000000000052
:100130000000000000000000000029000000002C6A
:100140001E3420212224342627252E362D37382709
:100150001E1F202122232425263333362E37381F15
:100160000405060708090A0B0C0D0E0F10111213D7
:100170001415161718191A1B1C1D2F3130232D3575
:100180000405060708090A0B0C0D0E0F10111213B7
:100190001415161718191A1B1C1D2F3130354C0059
:1001A000000000000000000000000000000000004F
:1001B0000000007E0F00D4FFFFFFC7000000780A98
:1001C0000025303862003A200025303258000A728B
:1001D0002F632030313233343536370A000A002598
:1001E00030325820006B6579626F6172645F7265AE
:1001F000706F72743A20000A0025303258006B6527
:1002000079626F6172645F7365745F6C65643A20D4
:1002100000290A002575002F002575005D2800259E
:10022000640020002564002000256400200025646F
:10023000007C0025303258006D6F7573656B6579F1
:10024000205B62746E7C782079207620685D28724D
:1002500065702F61636C293A205B006D6B5F776876
:1002600065656C5F74696D655F746F5F6D61782043
:100270003D2025640A006D6B5F776865656C5F6D76
:1002800061785F7370656564203D2025640A006DA8
:100290006B5F74696D655F746F5F6D6178203D2081
:1002A00025640A006D6B5F6D61785F7370656564CE
:1002B000203D2025640A006D6B5F696E746572765F
:1002C000616C203D2025640A006D6B5F64656C6184
:1002D00079203D2025640A006D6B5F776865656C49
:1002E0005F74696D655F746F5F6D6178203D202577
:1002F000640A006D6B5F776865656C5F6D61785F40
:100300007370656564203D2025640A006D6B5F7421
:10031000696D655F746F5F6D6178203D2025640AAB
:10032000006D6B5F6D61785F7370656564203D2063
:1003300025640A006D6B5F696E74657276616C206E
:100340003D2025640A006D6B5F64656C6179203D1A
:100350002025640A000A00257500363A2077686572
:10036000656C5F74696D655F746F5F6D61783A206D
:10037000000A00257500353A20776865656C5F6D69
:1003800061785F73706565643A20000A0025750026
:10039000343A2074696D655F746F5F6D61783A20DF
:1003A000000A00257500333A206D61785F7370652F
:1003B00065643A20000A00257500323A20696E749F
:1003C000657276616C286D73293A20000A002575E4
:1003D00000313A2064656C6179282A31306D7329C7
:1003E0003A20000A092D2056616C756573202D0A8C
:1003F000004D3E004D25643E20003F007365742093
:1004000064656661756C740A00433E200077686518
:1004100072652064656C74613A20637572736F72E3
:100420003D25642C20776865656C3D25640A53651D
:100430006520687474703A2F2F656E2E77696B692A
:1004400070656469612E6F72672F77696B692F4DD4
:100450006F7573655F6B6579730A000A092D204D0E
:100460006F7573656B6579202D0A4553432F713A7B
:1004700009717569740A313A0964656C6179282AD1
:1004800031306D73290A323A09696E74657276618A
:100490006C286D73290A333A096D61785F73706552
:1004A00065640A343A0974696D655F746F5F6D61E4
:1004B000780A353A09776865656C5F6D61785F73B6
:1004C000706565640A363A09776865656C5F7469BA
:1004D0006D655F746F5F6D61780A0A703A097072BA
:1004E000696E742076616C7565730A643A09736588
:1004F000742064656661756C74730A75703A092BB3
:10050000310A646F776E3A092D310A706775703A57
:10051000092B31300A7067646F776E3A092D3130DC
:100520000A0A7370656564203D2064656C746120FF
:100530002A206D61785F7370656564202A202872B7
:100540006570656174202F2074696D655F746F5FDD
:100550006D6178290A003F004D3E2000433E200097
:100560004C25640A0074696D65725F72656164335D
:100570003228293A202530346C580A006B6579629C
:100580006F6172645F69646C653A2025580A006B7C
:100590006579626F6172645F70726F746F636F6CA4
:1005A0003A2025580A00686F73745F6B6579626F33
:1005B0006172645F6C65647328293A2025580A00CB
:1005C0000A092D20537461747573202D0A00474366
:1005D000433A20382E342E30204156522D4C494279
:1005E000433A20322E302E30204156525F41524342
:1005F000483A20617672350A004F5054494F4E53A5
:100600003A204C554641204D4F5553454B455920B6
:1006100045585452414B455920434F4E534F4C453A
:1006200020434F4D4D414E4420343039360A00426C
:1006300055494C443A2022302E31312E32302D642F
:100640006972747922202832333A35343A313620AF
:100650004665622032342032303231290A00564950
:10066000443A2030784445414628696D6368697092
:10067000776F6F6429205049443A203078303931FF
:10068000332864756D6270616429205645523A20A2
:100690003078303030310A000A092D2056657273E7
:1006A000696F6E202D0A000A092D20436F6E736F4B
:1006B0006C65202D0A4553432F713A097175697491
:1006C0000A6D3A096D6F7573656B65790A000A09E1
:1006D0002D204D61676963202D0A443A0944656203
:1006E0007567204D65737361676520546F67676C2C
:1006F000650A583A094D61747269782044656275DB
:1007000067204D6F646520546F67676C65202D20EE
:1007100053686F77206B65797072657373657320AA
:10072000696E206D617472697820677269640A4B22
:100730003A094B6579626F6172642044656275673E
:1007400020546F67676C65202D2053686F77206B8E
:1007500065797072657373207265706F72740A4D7B
:100760003A094465627567204D6F75736520546F53
:1007700067676C650A563A0956657273696F6E0A47
:10078000533A095374617475730A433A09416374A7
:10079000697661746520436F6E736F6C65204D6F71
:1007A00064650A46312D4631303A095377697463DE
:1007B0006820746F204C6179657220302D392028B3
:1007C000463130203D204C30290A302D393A09532A
:1007D000776974636820746F204C6179657220308A
:1007E0002D390A47524156453A095377697463686F
:1007F00020746F204C6179657220302028616C7400
:1008000065726E617465290A423A094A756D7020F5
:10081000746F20426F6F746C6F616465720A455328
:10082000433A094A756D7020746F20426F6F746C83
:100830006F616465722028616C7465726E617465A5
:10084000290A453A095072696E7420454550524F45
:100850004D2053657474696E67730A425350414367
:10086000453A09436C65617220454550524F4D0A27
:10087000000A002575002E6E6B726F3A20000A0088
:100880002575002E737761705F6261636B736C61B5
:1008900073685F6261636B73706163653A20000A1D
:1008A000002575002E737761705F67726176655FF2
:1008B0006573633A20000A002575002E6E6F5F672E
:1008C00075693A20000A002575002E737761705F04
:1008D00072616C745F726775693A20000A00257551
:1008E000002E737761705F6C616C745F6C67756903
:1008F0003A20000A002575002E737761705F7263DD
:10090000746C5F726775693A20000A002575002EC5
:10091000737761705F6C63746C5F6C6775693A20A4
:10092000000A002575002E636170736C6F636B5F46
:10093000746F5F636F6E74726F6C3A20000A0025EB
:1009400075002E737761705F636F6E74726F6C5F8A
:10095000636170736C6F636B3A20000A002530325C
:1009600058006B65796D61705F636F6E6669672EA5
:100970007261773A20000A002575002E6D6F75733D
:10098000653A20000A002575002E6B6579626F615B
:1009900072643A20000A002575002E6D6174726938
:1009A000783A20000A002575002E656E61626C653C
:1009B0003A20000A00253032580064656275675F8E
:1009C000636F6E6669672E7261773A20000A0025B0
:1009D000750064656661756C745F6C617965723A07
:1009E00020003F000A6D6F7573653A206F66660AD6
:1009F000000A6D6F7573653A206F6E0A000A6B65A9
:100A000079626F6172643A206F66660A000A6B65EC
:100A100079626F6172643A206F6E0A000A6D6174C8
:100A20007269783A206F66660A000A6D61747269AD
:100A3000783A206F6E0A000A64656275673A206F23
:100A400066660A000A64656275673A206F6E0A007E
:100A50000A0A4A756D70696E6720746F20626F6F45
:100A6000746C6F616465722E2E2E2000433E200050
:100A7000436C656172696E6720454550524F4D0A5F
:100A8000006565636F6E6669673A0A005B735D00B7
:100A90004B6579626F6172642073746172742E0A9F
:100AA000005B575D005B535D005B525D005B445D26
:100AB000005B435D001003640075006D0062007010
:100AC00000610064000000160369006D00630068A7
:100AD000006900700077006F006F00640000000480
:100AE00003090409027B00040100A0FA09040000C4
:100AF0000103010100092111010001224000070545
:100B0000810308000A090401000203000000092112
:100B100011010001222200070582032000010705C0
:100B20000303200001090402000103000000092161
:100B3000110100012281000705840320000A090435
:100B4000030002030000000921110100012222001C
:100B50000705850320000107050503200001120198
:100B6000100100000008AFDE1309010001020001BE
:100B70000631FF0974A1010975150026FF009520B3
:100B8000750881020976150026FF009520750891E9
:100B900002C00660FF0961A1010962150026FF007D
:100BA0009520750881020963150026FF00952075C0
:100BB000089102C005010902A10185020901A100F5
:100BC0000509190129051500250195057501810201
:100BD0009501750381010501093009311581257FD2
:100BE00095027508810609381581257F95017508DC
:100BF0008106050C0A38021581257F95017508814B
:100C000006C0C005010980A101850319012AB700AA
:100C1000150126B700950175108100C0050C09016A
:100C2000A101850419012AA002150126A00295013F
:100C300075108100C005010906A101050719E02909
:100C4000E715002501950875018102950175088158
:100C5000010507190029FF150026FF0095067508F4
:100C60008100050819012905950575019102950175
:100C700075039101C00011241FBECFEFDAE0DEBF83
:100C8000CDBF04B603FE27C08091830290918402F9
:100C9000A0918502B09186028730904BA740B04B5F
:100CA000D1F4109283021092840210928502109265
:100CB000860214BE84B7877F84BF0FB6F894A895C8
:100CC00080916000886180936000109260000FBE88
:100CD000E0E0F8E3099511E0A0E0B1E0E6EBF9E629
:100CE00002C005900D92A23BB107D9F722E0A2EB1A
:100CF000B1E001C01D92A338B207E1F70E942E2E89
:100D00000C949E340C940000FF93EF93E091B20199
:100D1000F091B301309709F00995EF91FF91089593
:100D2000FC018591803011F0EFDFFBCF0895FF27A4
:100D3000E0E230E247FF0CC0419597FF09C0EDE2C9
:100D40006095709580959095611D711D811D911D17
:100D500027FF02C0219530E350E2AA27660F771FD4
:100D6000881F991FAA1FA41710F0A41B63955A95FA
:100D7000A9F7AA3008F0A95FA05DAF93F3956115BC
:100D800071058105910541F7ED3211F4EF93F3956B
:100D9000F21718F43F93F395FBCF8F91B5DFFA95D7
:100DA000E1F70895E991F9918591803021F085323C
:100DB00019F0AADFF9CF089520E0E8945591553253
:100DC000C1F3503311F4689455915A3348F4505399
:100DD00090F3220F022E220F220F200D250FF4CFA9
:100DE0000EF4219589919991533619F3533729F1CE
:100DF000533559F1BC0188279927E8945C3621F4D2
:100E00008991999168945591543639F446EF7EF062
:100E100077FF0DC08FEF9FEF0AC055374AE039F0DA
:100E2000583540E121F0523642E009F00895FF9331
:100E3000EF937DDFEF91FF91B7CFFF93EF93FC012D
:100E400081918030B9F360DFFBCFFF93EF9368DFD0
:100E5000F1CFDF93CF93CDB7DEB72596A3DFCF9148
:100E6000DF910895239A219A269A0C94D4162B98F0
:100E700029982E980895CF92DF92EF92FF926B01FE
:100E80007C010E942D2180FF0FC02B9A81FF0EC094
:100E9000299A82FF0DC02E9AC701B601FF90EF90EC
:100EA000DF90CF900C94C91E2B98F0CF2998F1CFEA
:100EB0002E98F2CF82E090E02B9A29982E982FEF6F
:100EC00031EE44E0215030404040E1F700C00000E6
:100ED0002B98299A2E982FEF31EE44E02150304084
:100EE0004040E1F700C000002B9829982E9A2FEF80
:100EF00031EE44E0215030404040E1F700C00000B6
:100F00002B9A29982E982FEF31EE44E02150304053
:100F10004040E1F700C000002B98299A2E982FEF4F
:100F200031EE44E0215030404040E1F700C0000085
:100F30002B9829982E9A2FEF31EE44E02150304023
:100F40004040E1F700C000002B9829982E982FEF21
:100F500031EE44E0215030404040E1F700C0000055
:100F6000019711F40C94BE0781E090E0A5CF0C949A
:100F7000BF070C94BB0781E0089508950895089574
:100F80000895CF93C62F811118C0609135027091DA
:100F9000360280913702909138020E942D218111F2
:100FA00007C089EAC11101C08AEACF910C94671881
:100FB0008DEBC111FACF8EEBF8CFCF91089581E080
:100FC000089508950C94E1071F93CF93DF9300D009
:100FD00000D00F92CDB7DEB749835A836B8330912F
:100FE000ED0189819A8131111DC06623B9F0222358
:100FF000A9F00E94E41F182F682F89819A810E940E
:101000008D1F69817A81812F0F900F900F900F9023
:101010000F90DF91CF911F910C9436100E94BB1F4F
:10102000182FEFCF0E94E41F69817A81EDCFFC0178
:10103000262F408151816281738184810C94E40761
:10104000CF93DF93EC0160E00E941708BE01DF91AF
:10105000CF910C94E207FF920F931F93CF93DF93EE
:10106000E82FF0E0E15EFE4FF490C82FC695C695DC
:10107000C695D0E0FE01E155FE4F0491877010E067
:10108000082E02C0159507950A94E2F70170112702
:10109000C156DE4FFE01C491D0E002C0D595C79580
:1010A0008A95E2F7C170DD270115110519F081EE6F
:1010B0000E94E517209719F086EE0E94E5178F2D04
:1010C0000E946718CD2B19F086EE0E943818012B6C
:1010D00041F081EEDF91CF911F910F91FF900C9421
:1010E0003818DF91CF911F910F91FF900895EF92E3
:1010F000FF920F931F93CF93DF93EC01162F0AE01B
:101100008881882309F454C0813009F04EC0898158
:10111000813099F47E0122E0E20EF11C8A810E9466
:101120006718E7012196812F815050F3EFE9FFE026
:101130003197F1F700C00000F7CF823041F47E0113
:1011400082E0E80EF11C8A810E94E517EACF833025
:1011500041F47E01E2E0EE0EF11C8A810E94381813
:10116000E0CF843011F02196DDCF2A81229690E0E5
:1011700080E0AE014F5F5F4F2053330B2A303105C3
:1011800048F0019778F2EFE9FFE03197F1F700C0FE
:101190000000F7CF089FB001099F700D1124C9010D
:1011A000860F971F2981EA01E4CF0E942B08BACF4E
:1011B000DF91CF911F910F91FF90EF90089560E024
:1011C0000C9477088F929F92AF92BF92CF92DF924A
:1011D000EF92FF920F931F936B017C0181E090E0EF
:1011E000A0E0B0E04C015D0104C0880C991CAA1C71
:1011F000BB1C4A95D2F7B501A4014C015D0104C0A6
:10120000880C991CAA1CBB1C2A95D2F7482959297D
:101210006A297B2904C0880F991FAA1FBB1F0A9542
:10122000D2F78A019B010C211D212E213F21041799
:1012300015072607370789F48C299D29AE29BF2970
:10124000BC01CD011F910F91FF90EF90DF90CF90E7
:10125000BF90AF909F908F90089580959095A095A6
:10126000B0958C219D21AE21BF21EACF0F93382F5D
:10127000262F60913502709136028091370290914D
:101280003802042F432F0E94E2080F910C94CB1ECA
:101290000E9478230E949821811102C00E943C2262
:1012A0000C945A070C94B7070E94F61A0E9437074D
:1012B0002FEF84E39CE0215080409040E1F700C094
:1012C00000000C9465230F931F93CF93DF9300D0FE
:1012D000CDB7DEB78C0161E00E9417089A8389833D
:1012E000B801CE0101960E942B13811108C080E045
:1012F0000F900F90DF91CF911F910F910895B8013A
:1013000089819A810E946F0E882389F3B8018981AF
:101310009A810E94B907882351F3B80189819A8183
:101320000E948C11882319F3B80189819A810E9447
:10133000DE118823E1F2B80189819A810E940113AC
:101340008823A9F2F8018281882329F189819A8171
:101350008130FCE59F0751F0803E2CE59207C1F0FB
:1013600081159C45C1F40E945409C1CF90914A0255
:10137000892F8E7F90FF816080934A0280FF05C095
:101380008EE091E00E949006B2CF8CEF90E0FACF11
:101390000E943C22ACCFC8010E94DF07A9CF0C9469
:1013A000C00781E008950C94D109CF93C82F0E9403
:1013B000CF098C2FCF910C94D30990E080E0089551
:1013C0000895FC01EE0FFF1FE154FE4F85919491AB
:1013D0000895CF93DF930E9436100E94FE0AEC011D
:1013E000811520E5920708F042C0811530E493078B
:1013F00008F0BDC0883E910528F5803E910508F0B3
:101400009DC0883A910588F4853A910508F08FC00F
:101410008130910509F492C0009709F48FC00497B8
:1014200008F08CC0D0E0C0E089C08F3B910508F483
:1014300089C0805C9109C03CD105A0F30E94E109FC
:10144000EC017CC08115904250F4C11581E0D807B1
:1014500008F074C0C03FD10528F3D0656FC0C11536
:1014600090E3D90708F079C0CE019F70E7CF8115CE
:1014700025E5920758F5811534E5930708F0A6C0D5
:10148000811542E5940750F4C11581E5D80708F4A9
:1014900071C0DC2FCC27C16FD06A50C0982F9695B1
:1014A00096959E0123703327C115D34508F07FC060
:1014B000C1E0D0E002C0CC0FDD1F2A95E2F720E2A8
:1014C000929FC0011124C82BD92B6FC0C11589E58B
:1014D000D807A8F4C11598E5D90708F07CC0C11554
:1014E00026E5D20708F09ECF8C2F0E94950BC82FBF
:1014F000D0E0DC2FCC27CC27DF71D0621FC0C11514
:101500003AE5D30708F46CC0CE019056811590429D
:1015100008F088CF8D2F8F710E94950B90E0982F47
:10152000882788279F719C012C2BE901E6CFC55A9B
:10153000D0E0CD5BDE4FC881D0E0D064CE01DF913A
:10154000CF910895C85AD0E0CC0FDD1FCB5EDE4F9F
:101550000990D881C02DD464F1CFCE019927D3FF53
:1015600003C0EC01D86CEACFEC01D06CE7CFDF70A0
:10157000D06AE4CFCE01E4E096958795EA95E1F74D
:1015800083702C2F26952695237090E2299F900139
:101590001124382B8C2F8370C1E0D0E002C0CC0F17
:1015A000DD1F8A95E2F7C22BD32BDC68C7CFC1E0E1
:1015B000D0E002C0CC0FDD1F2A95E2F730E2939F06
:1015C000C0011124C82BD92BDA68B8CFD82FCC276B
:1015D000C46FD06AB3CFDC2FCC27C06FD06AAECF38
:1015E0008C2F8F700E94950B34E0D695C7953A9555
:1015F000E1F7CF709C2FEC01D069A0CF8238910524
:10160000B1F1B0F48133910509F475C048F4893221
:10161000910509F469C08A32910509F473C00895EF
:101620008533910509F459C08933910501F1089575
:10163000833E9105A9F138F4803E9105F9F0823E90
:10164000910549F10895863E9105A9F1873E9105DE
:10165000C9F1843E910519F52091750221FF1FC043
:101660008091740284FD14C087EE90E0089520916B
:1016700074022370A1F080EE90E00895209174022E
:1016800020FD47C03091750230FF09C024FF44C0DF
:1016900090E080E004C02091740222FDF7CF08950D
:1016A0002091740222FD3BC03091750230FDE3CFE2
:1016B00024FFF5CFEDCF2091740223FFF0CF24FD5E
:1016C000E7CFD2CF2091740223FD2CC03091750258
:1016D00031FFEECF84EE90E008952091740225FF53
:1016E000DECF89E290E008952091740225FFD7CFE4
:1016F00085E390E008952091740226FFD0CF8AE21E
:1017000090E008952091740226FFC9CF81E390E014
:10171000089589E390E0089583EE90E0089582EEC5
:1017200090E0089586EE90E008959091740292FF03
:1017300006C0282F28712830F9F4877F846093FF32
:1017400006C0282F28712831F1F4877E846120910A
:10175000750220FF06C0382F38713830D9F4877FE2
:10176000816021FF06C0282F28712831D1F4877E9F
:10177000816194FD877E0895282F24712430F9F625
:101780008B7F8860DCCF282F2471243101F78B7E7A
:101790008861DDCF382F3171313019F78E7F886045
:1017A000E0CF282F2171213121F78E7E8861E1CF92
:1017B000E82FF0E0E459FD4F80810895CF92DF9249
:1017C000EF92FF920F931F93CF93DF938EEC91E0F4
:1017D0000E9490068CE6E82E82E0F82ED0E0C0E071
:1017E00099ECC92E91E0D92E01EC11E0DF93CF9353
:1017F000DF92CF920E94290786EC91E00E9490062A
:10180000F70181917F010E947A211F928F931F938C
:101810000F930E9429078FEB91E00E94900621967A
:101820008DB79EB708960FB6F8949EBF0FBE8DBFBA
:10183000C430D105D9F6DF91CF911F910F91FF9060
:10184000EF90DF90CF90089580EA8A95F1F70895A0
:10185000F894E82FE295EF70F0E031A1282F2F7077
:1018600081E090E001C0880F2A95EAF7982F9095C3
:10187000932391A392A1892B82A37894089584EF56
:101880000E94280C85EF0E94280C86EF0E94280CED
:1018900087EF0E94280C86E60E94280C87E90E94A8
:1018A000280C86EC0E94280C84E30E94280C85E317
:1018B0000E94280CA8E6B2E01C92ECE6F2E010824E
:1018C00011961C921197118212961C9212971282F5
:1018D00013961C92138284E00E94E50C0C94480934
:1018E000CF92DF92EF92FF920F931F93CF93DF93EC
:1018F000CBE4D1E008E612E0D12CEE24E394F12C05
:101900008991F894E82FE295EF70F0E021A18F70B3
:10191000A70102C0440F551F8A95E2F7CA01922F12
:10192000982B91A392A18095892382A378940E94F9
:10193000240CE6E4F1E030E020E0C12C4191A42F3A
:10194000A295AF70B0E090968C9190E04F7002C07D
:10195000959587954A95E2F780FD33C08E2D022E2E
:1019600001C0880F0A94EAF7C82A2F5F3F4F25303D
:10197000310521F7FE01319780810E94280CF80182
:101980008081C81601F1C08281E0D82A0F5F1F4F05
:10199000F1E0CF34DF0709F0B3CF2D2D44E06CE642
:1019A00072E088E692E00E94E60C0E9452098D2DBA
:1019B000DF91CF911F910F91FF90EF90DF90CF902B
:1019C000089580E0D1CF80E0E0CF0895FF920F939B
:1019D0001F93CF93DF93F82E092F162FD72FC42FE5
:1019E000222349F081E08093B6010E941A2390934C
:1019F000B5018093B4018091B6018823A1F0809154
:101A0000B4019091B5010E943223069760F0EF2D4A
:101A1000F02FA12FBD2FCE0FDF2FD11DEC17FD070B
:101A200041F41092B601DF91CF911F910F91FF9079
:101A3000089581918D93F2CF0C94C107AF92BF921C
:101A4000CF92DF92EF92FF920F931F93CF93DF938A
:101A5000A1E6B1E02FE531E08BEBA82E81E0B82EB6
:101A600063E671E041E050E00D91802F82958F7028
:101A700090E0FC01C1A10F707A01002E01C0EE0CB4
:101A80000A94EAF7FE2DF095CF23FC01C1A3C2A171
:101A9000CE29C2A3E90119919E01E12FE295EF70D1
:101AA000F0E0F1A01F706A01012E01C0CC0C0A9475
:101AB000EAF7EC2CE094EF20E1A2F2A0FC28F2A2DD
:101AC000EC0188A190E002C0959587950A95E2F710
:101AD0008170E0A1F0E002C0F595E7951A95E2F774
:101AE00090E0E0FD92E0892BF50181935F016A1798
:101AF0007B0709F0B9CFDF91CF911F910F91FF9034
:101B0000EF90DF90CF90BF90AF9008957F928F922B
:101B10009F92AF92BF92CF92DF92EF92FF920F937C
:101B20001F93CF93DF930BEB11E081E6C82E81E08A
:101B3000D82E9FE5E92E91E0F92E29EB822E21E0A7
:101B4000922EC7EBD1E0712C34E0A32EB12CD8013A
:101B5000EC91EE0FEE0FED938D01D6012D916D01FD
:101B6000A22FA295AF70B0E090968C9190E02F706C
:101B700002C0959587952A95E2F781709927D7013C
:101B80004D917D01A42FA295AF70B0E090962C915D
:101B900030E04F7002C0359527954A95E2F7A901CC
:101BA0004170552720FF02C042E050E0842BE82B13
:101BB000D8011197EC93EF70F0E0E15BFE4F80816C
:101BC000F4019081890F808384303CF088818F5F9D
:101BD000888360E0872D0E941C0DD4018C918D3F7D
:101BE0003CF488818150888361E0872D0E941C0D20
:101BF000F4018081082E000C990BB5010E94053478
:101C0000D4018D934D012196B1E07B120EC0DF917E
:101C1000CF911F910F91FF90EF90DF90CF90BF90E9
:101C2000AF909F908F907F900895772473948FCF7B
:101C300082E290E00E945C34813289F483E290E099
:101C40000E945C34823059F484E290E00E945C345B
:101C500091E0843209F090E0892F8170089580E04E
:101C6000FCCFCF93C82F6FEF811161E282E290E049
:101C70000E946A346FEFC11162E083E290E00E943B
:101C80006A346FEFC11164E284E290E0CF910C946A
:101C90006A3480E00E94310E0C949221089585E20E
:101CA00090E00E945C34682F70E090E080E008953E
:101CB00085E290E00C946A340E944E0E0E94180E49
:101CC00081110CC060E070E0CB010E94580E0E94B0
:101CD000B00F0E949A1081E00C94310E0895CF93BA
:101CE000FB01C281CC2309F19C0122513F452031E7
:101CF000310520F582510E94AA10C0E08C2FCF91AF
:101D0000089581E00E94F11E43E062E081E00E94BC
:101D10003609F3CF81E00E94121F43E062E081E0C8
:101D20000E943609EBCF82E0F6CF8031FFE59F07B6
:101D300089F381319F45B9F3C1E0E0CF8031EFE510
:101D40009E07F9F281319F45C9F682E0DBCF2FEF84
:101D5000FC0120830895EF92FF920F931F93CF937E
:101D6000DF93EC01062FE881E150E33108F05EC01B
:101D7000F0E0E056FB4C0C941934198289E08A8318
:101D8000602FCE01DF91CF911F910F91FF90EF90C7
:101D90000C94CA2C8981823069F0833071F08130D3
:101DA000D9F40E9426230E941F346A837B838C838C
:101DB0009D83E6CF0E944F0EF6CF7E0122E0E20E19
:101DC000F11C10E0812F0E94D80BF70181937F0155
:101DD0001F5F1430B9F7D4CF602FCE010E94A70E39
:101DE000CFCF89818230C1F76A817B818C819D81CF
:101DF0000E941F340E94580EC3CF4B816A81898193
:101E00000E94820F9827892798279D838C83B8CFBB
:101E10002C813D813227232732274B816A8189819A
:101E20000E949B0FADCF0E94B00FAACF8FEF888387
:101E3000A7CF0E9443108983A3CF0E944510982703
:101E4000892798279A8389839BCF6B8170E089814A
:101E50009A81AE014C5F5F4F9827892798270E948F
:101E600048108ECF6B8170E089819A81AE014C5F02
:101E70005F4F9827892798270E946F1081CF0E9473
:101E80009A107ECF0E94700FD6CF6B8170E089814F
:101E90009A81AE014C5F5F4F9827892798270E944F
:101EA000E80F6ECF6B8170E089819A81AE014C5F43
:101EB0005F4F9827892798270E940D1061CF0E94B5
:101EC000490E5ECF0E94CA2CFFEF21EE84E0F15054
:101ED00020408040E1F700C000000E94652350CF01
:101EE00084E0089550E0440F551F9AE0699F400D2B
:101EF000511D112498E2899F400D511D1124CA01E2
:101F0000869608950F931F93CF93DF930E94720FCD
:101F10008C010E945C34C82FD0E0DC2FCC27C80194
:101F200001960E945C349E01282BC901DF91CF915C
:101F30001F910F9108950F931F93CF93DF93122F4B
:101F4000032F0E94720FEC01602F0E946A34612FF0
:101F5000CE010196DF91CF911F910F910C946A34BD
:101F6000AF92BF92CF92DF92EF92FF921F93CF93E7
:101F7000DF938CEAC82E80E0D82ED0E07601C0E056
:101F800014C0F50125913491412F6C2F8D2F0E94A3
:101F90009B0F82E0A80EB11C1F5F153091F78AE0FD
:101FA000E80EF11CCF5FC43019F0570110E0E9CF03
:101FB000DF5F88E2C80ED11CD43001F7DF91CF91EA
:101FC0001F91FF90EF90DF90CF90BF90AF9008955A
:101FD000EF92FF920F931F93CF93DF93EC018A014F
:101FE0007C01E60EF71ECE018696CE15DF0539F48C
:101FF000DF91CF911F910F91FF90EF900895C03A1C
:10200000D10540F40E945C34F80180830F5F1F4FBC
:102010002196E9CFF8011082F9CFCF92DF92EF92AB
:10202000FF920F931F93CF93DF937C016A018C0182
:10203000060F171FEC01CE018696C017D10749F491
:10204000DF91CF911F910F91FF90EF90DF90CF9094
:102050000895C03AD10540F4FE01EE19FF09EC0DD8
:10206000FD1D60810E946A342196E5CF462F8430A1
:1020700038F4743028F4653018F4672F0C94820F0C
:1020800090E080E0089580E108958AE393E0089568
:10209000EF92FF920F931F93CF93DF93EC018A018E
:1020A0007C01E60EF71ECE018A539F4FCE15DF0549
:1020B00039F4DF91CF911F910F91FF90EF90089528
:1020C000CA3323E0D20740F40E945C34F8018083D5
:1020D0000F5F1F4F2196E7CFF8011082F9CFCF9203
:1020E000DF92EF92FF920F931F93CF93DF937C01C8
:1020F0006A018C01060F171FEC01CE018A539F4F16
:10210000C017D10749F4DF91CF911F910F91FF9034
:10211000EF90DF90CF900895CA3323E0D20740F4C8
:10212000FE01EE19FF09EC0DFD1D60810E946A346D
:102130002196E3CFCF93DF93C6ECD0E060E0CE01F1
:102140000E946A342196C11584E0D807B9F7DF915F
:10215000CF910895DF92EF92FF920F931F93CF9349
:10216000DF9300D000D0CDB7DEB7F82E8FE08F150B
:1021700040F08FEF93E00E945C3406EC10E088237F
:10218000C1F00F900F900F900F90DF91CF911F91A2
:102190000F91FF90EF90DF900895011584E01807EC
:1021A00081F3C8010E945C34811101C0FA940F5F71
:1021B0001F4FF110F2CF19821A821B821C82DD247C
:1021C000D39478018FEFE81AF80AC8010E945C34B2
:1021D00089831A828823A9F29FEF980F933078F4AD
:1021E0008A83D9820E5F1F4FC7010E945C348B83A4
:1021F000882339F2CE0101960E94DF08E2CF8701E1
:10220000F9CFAF92BF92CF92DF92EF92FF920F93EE
:102210001F93CF93DF937C015B01C42FD22FFC016E
:1022200082818823F9F04093BF010E941A23909382
:10223000BE018093BD0180E28C0F883008F061C040
:10224000C77081E001C0880FCA95EAF7DF91CF918E
:102250001F910F91FF90EF90DF90CF90BF90AF90C4
:102260000C947A181091BF01141340C08091BD01E5
:102270009091BE010E9432236C01B701C5010E94FA
:102280006C1DC816D90690F5C0E2CD0F1D17B9F028
:1022900080E2810F883040F4177081E001C0880F20
:1022A0001A95EAF70E948118C83048F481E09D2F02
:1022B000977001C0880F9A95EAF70E947A18802FCC
:1022C0000E946718C830E8F4D77081E001C0880F19
:1022D000DA95EAF7DF91CF911F910F91FF90EF9080
:1022E000DF90CF90BF90AF900C94811880E28C0F5C
:1022F000883038F4C77081E001C0880FCA95EAF7CA
:10230000E9CFDF91CF911F910F91FF90EF90DF9078
:10231000CF90BF90AF9008950F939C01CB01253FC4
:102320004CE5340759F1A8F4293DFCE53F0701F1DC
:102330002A3D4CE53407D1F1283D3C4591F406E2B5
:1023400021EE41EE68ED7CE50E94011180E00F91E5
:102350000895273FFCE53F07E9F0B0F0283F3C45F2
:10236000F9F0FC018281882339F11092BF01EFCF8F
:1023700007E225EE45EE69ED7CE5E6CF06E221EECB
:1023800040EE65EF7CE5E0CF07E225EE44EE66EF38
:102390007CE5DACF06E221EE42EE67EF7CE5D4CFB2
:1023A00007E225EE46EE68EF7CE5CECF08E221E0BD
:1023B00045EE6AED7CE5C8CF81E0C9CFCF93DF93CE
:1023C000EC01FB018281882309F419C1C230FCE5CC
:1023D000DF07C0F1C6319CE5D90730F09E012C5FC4
:1023E0003C452930310570F50E94AB219093750270
:1023F00080937402C031ECE5DE0709F4CFC008F029
:102400005BC0C8308CE5D80709F4B6C088F5C43085
:10241000ECE5DE0709F4A8C0C0F4C2308CE5D807AB
:1024200009F49CC0809174028260C330DC4509F4D9
:1024300098C080917402909175020E94B9210E9407
:10244000F61A80E0DF91CF91089580917402806147
:10245000C630ECE5DE0709F484C080917402886020
:10246000C730DC4508F47DC080917402806279C079
:10247000CC308CE5D80709F489C070F480917402DF
:102480008C60CA30ECE5DE0709F46BC008F478C054
:10249000809174028E7F65C0CE308CE5D80709F438
:1024A00079C0809174028B7FCF30DC4508F459C02D
:1024B000809174028F7E55C0CD3FECE5DE0709F4B4
:1024C00057C030F5C3318CE5D80709F46FC078F4F4
:1024D000C131ECE5DE0709F465C0C231DC4509F025
:1024E000A8CF0E94F61A809174028F773AC0C53146
:1024F0008CE5D80709F462C008F476C080917502B3
:102500008160CC3FDC4509F094CF8093750291CF78
:10251000C130FDE5DF0709F44DC088F480917502F4
:102520008D7FCF3F9CE5D90781F3809175028E7F27
:10253000C115DD4550F3809175028360E6CFC3304D
:10254000FDE5DF0709F459C008F444C080E0C43059
:10255000DD4509F06ECF0E943E226BCF8091740260
:1025600081608093740265CF809174028460F9CF9A
:10257000809175028260C9CF809174028064F1CF2E
:102580000E94F61A809174028068EBCF80917402E9
:102590008D7FE7CF80917402877FE3CF80917402B3
:1025A0008F7DDFCF809174028F7BDBCF80917402AF
:1025B000837FD7CF809175028C7FA7CF80917402E3
:1025C00082FB992790F921E0922790FB82F990FBFA
:1025D00083F9C7CF80917502982F909591708E7F67
:1025E000892B90FB81F991CF0E94F61A9091740289
:1025F000892F97FB87F98058B4CF81E0ACCF81E079
:1026000021CFCF93DF93EB0186319C4511F50E94DA
:1026100079209A81992399F08A7A91E009F490E0DF
:102620009093C001811109C089E20E9454200E9448
:10263000C52080E0DF91CF91089585E3F6CF8091AA
:10264000C001811104C089E20E945B20F0CF85E3C4
:10265000FBCF81E0EFCF4F925F926F927F928F928C
:102660009F92AF92BF92CF92DF92EF92FF920F9321
:102670001F93CF93DF93EC01E881F981CF01815063
:1026800095458F3F910510F485E5F827DB011296FB
:102690004C90442009F466C2EF3FF10509F100F1C6
:1026A000EF3DFC4521F01092C101A42D07C080919F
:1026B000C10191E089278093C101A0E08A2FDF91B9
:1026C000CF911F910F91FF90EF90DF90CF90BF902F
:1026D000AF909F908F907F906F905F904F900895F4
:1026E000A091C101AA2309F4E9C01092C101E03C04
:1026F000F105F0F5E038F10508F0AAC0E034F10585
:1027000008F070C021E030E040E050E060E070E0B0
:1027100080E090E00E2F0E942634B091C2012B2B56
:10272000B091C3013B2BB091C4014B2BB091C501BB
:102730005B2BB091C6016B2BB091C7017B2BB09185
:10274000C8018B2BB091C9019B2B2093C201309300
:10275000C3014093C4015093C5016093C6017093B7
:10276000C7018093C8019093C901F983E883A6CF7C
:10277000EF3FF10509F030F621E030E040E050E0B5
:1027800060E070E080E090E08F01005C11090E9441
:102790002634B091DA012B2BB091DB013B2BB091A9
:1027A000DC014B2BB091DD015B2BB091DE016B2B7B
:1027B000B091DF017B2BB091E0018B2BB091E10157
:1027C0009B2B2093DA013093DB014093DC01509383
:1027D000DD016093DE017093DF018093E00190934F
:1027E000E101C3CF21E030E040E050E060E070E084
:1027F00080E090E08F01005411090E942634B091CE
:10280000CA012B2BB091CB013B2BB091CC014B2BB0
:10281000B091CD015B2BB091CE016B2BB091CF016C
:102820007B2BB091D0018B2BB091D1019B2B2093AE
:10283000CA013093CB014093CC015093CD016093FA
:10284000CE017093CF018093D0019093D1018DCFB1
:1028500021E030E040E050E060E070E080E090E0B7
:102860008F01005811090E942634B091D2012B2B00
:10287000B091D3013B2BB091D4014B2BB091D5013A
:102880005B2BB091D6016B2BB091D7017B2BB09114
:10289000D8018B2BB091D9019B2B2093D20130937F
:1028A000D3014093D4015093D5016093D601709326
:1028B000D7018093D8019093D90157CFE034F10527
:1028C00008F067C07090C2018090C3019090C4016D
:1028D000D091C501C091C601B091C7015090C80107
:1028E0006090C90121E030E040E050E060E070E03D
:1028F00080E090E00E2F0E94263459016A017B018E
:102900008C0127213B2D382149215D2D5D236C232E
:102910007F2D7B238521912F96210E943F3409F042
:10292000C4CEE03CF10508F08EC0E038F10508F0B7
:10293000EBC0E034F10508F0B9C021E030E040E040
:1029400050E060E070E080E090E00E2F0E942634BE
:10295000209530954095509560957095809590950F
:102960002721382149215D236C237B238521962152
:102970002093C2013093C3014093C4015093C50119
:102980006093C6017093C7018093C8019093C901F9
:1029900095CEE038F105E0F47090CA018090CB014B
:1029A0009090CC01D091CD01C091CE01B091CF01DA
:1029B0005090D0016090D10121E030E040E050E043
:1029C00060E070E080E090E08F010054110993CF47
:1029D000E03CF105E0F47090D2018090D30190903A
:1029E000D401D091D501C091D601B091D7015090BA
:1029F000D8016090D90121E030E040E050E060E093
:102A000070E080E090E08F010058110974CF709061
:102A1000DA018090DB019090DC01D091DD01C09162
:102A2000DE01B091DF015090E0016090E10121E012
:102A300030E040E050E060E070E080E090E08F0146
:102A4000005C110958CFEF3FF10511F008F075CF88
:102A50008F01005C110921E030E040E050E060E0CF
:102A600070E080E090E00E942634209530954095FB
:102A70005095609570958095909527213821492132
:102A80005D236C237B23852196212093DA013093EB
:102A9000DB014093DC015093DD016093DE01709314
:102AA000DF018093E0019093E10108CE8F01005493
:102AB000110921E030E040E050E060E070E080E0AB
:102AC00090E00E9426342095309540955095609571
:102AD0007095809590952721382149215D236C239D
:102AE0007B23852196212093CA013093CB0140930B
:102AF000CC015093CD016093CE017093CF018093B0
:102B0000D0019093D101DACD8F010058110921E055
:102B100030E040E050E060E070E080E090E00E9453
:102B20002634209530954095509560957095809508
:102B300090952721382149215D236C237B23852112
:102B400096212093D2013093D3014093D401509326
:102B5000D5016093D6017093D7018093D8019093EB
:102B6000D901ACCDA1E0EF3FF10509F098F5E034D3
:102B7000F10590F58090C2019090C301D091C401FD
:102B8000C091C501B091C601A091C7016090C80174
:102B90007090C90121E030E040E050E060E070E07A
:102BA00080E090E00E2F0E94263459016A017B01DB
:102BB0008C0128213B2D39214D235D2D5C236B2376
:102BC0007F2D7A23A1E08621912F97210E943F3407
:102BD00009F4A0E0A17072CDE038F105E0F4809036
:102BE000CA019090CB01D091CC01C091CD01B091A0
:102BF000CE01A091CF016090D0017090D1018F01E2
:102C00000054110921E030E040E050E060E070E065
:102C100080E090E0C8CFE03CF105A0F48090D201C4
:102C20009090D301D091D401C091D501B091D6013B
:102C3000A091D7016090D8017090D9018F01005800
:102C40001109E0CF8090DA019090DB01D091DC0196
:102C5000C091DD01B091DE01A091DF016090E00143
:102C60007090E1018F01005C1109CCCF9093E701D6
:102C70008093E6010895E091E601F091E701309735
:102C800021F00190F081E02D099480E00895EF9209
:102C9000FF920F931F93CF93DF938C01E091E60196
:102CA000F091E7013097C1F10280F381E02D0995A1
:102CB00080914A0282FF30C080FF04C085EE91E01F
:102CC0000E949006D0E0C0E08FEDE82E81E0F82E63
:102CD00080914A0280FF0EC0F801EC0FFD1F808139
:102CE0001F928F93FF92EF920E9429070F900F90EF
:102CF0000F900F902196C830D10551F780914A026C
:102D000080FF0AC08DED91E0DF91CF911F910F916F
:102D1000FF90EF900C949006DF91CF911F910F914F
:102D2000FF90EF900895E091E601F091E701309770
:102D300039F022E0DC012C930480F581E02D099428
:102D400008952091E4013091E5012817390771F0C9
:102D50009093E5018093E401E091E601F091E701B1
:102D6000309721F00680F781E02D09940895209195
:102D7000E2013091E3012817390771F09093E301E4
:102D80008093E201E091E601F091E701309721F0B4
:102D90000084F185E02D0994089585B7806885BF8A
:102DA00085B7806885BF0895089508950C94BD0780
:102DB0000E94CD160E94D5160C94320781E008952A
:102DC0000C94DE16089508950E9411230E943F0C72
:102DD0000E945C0E0E948C230E941E0D0C94D6163D
:102DE000CF93C82F80914A0282FF1EC080FF1CC073
:102DF0008EEF91E00E94900680914A0280FF14C0FD
:102E00001F92CF9389EF91E09F938F930E942907A0
:102E100080914A020F900F900F900F9080FF04C096
:102E200087EF91E00E9490068C2FCF910C94D509EA
:102E3000BF92CF92DF92EF92FF920F931F93CF93A7
:102E4000DF93CDB7DEB72A970FB6F894DEBF0FBE7B
:102E5000CDBF0E94E2160E94E3160E94700C0E94F1
:102E6000E016882309F461C089EEC82E81E0D82ECF
:102E700010E000E0B02E802F0E94D80BE82EF60163
:102E8000F1906F01F81609F44AC080914A0281FD61
:102E90000E94DE0B9F2D9E2580E0FF24F394292FB6
:102EA0002F21C1F18E83BF82EF2081E009F480E001
:102EB00088870E941A238160782F9A8789874E819C
:102EC0005F8168858A850E94B617F801E751FE4F39
:102ED0008081F826F0820E94860D0E94B9250E940A
:102EE0003B169091E801891789F10E943B16809367
:102EF000E8012A960FB6F894DEBF0FBECDBFDF9172
:102F0000CF911F910F91FF90EF90DF90CF90BF90E6
:102F10000C94F0168F5FFF0C853009F0C0CF0F5F67
:102F20001F4F0430110509F0A5CF8FEF89838A83E5
:102F30001B820E941A238160782F9D838C83498194
:102F40005A816B818D810E94B617C5CF2A960FB624
:102F5000F894DEBF0FBECDBFDF91CF911F910F91CF
:102F6000FF90EF90DF90CF90BF900895CF93DF93C5
:102F7000CDB7DEB72B970FB6F894DEBF0FBECDBF2F
:102F80004F83588769877A878B871E821D8285E0E9
:102F9000FE013796DE01119601900D928A95E1F7B8
:102FA00049815A816B817C818D819E812B960FB6E0
:102FB000F894DEBF0FBECDBFDF91CF910C946F1D93
:102FC000FC01808191810C942620CF93C82F882307
:102FD00009F44CC08CEF8C0F813AC8F48C2F0E94FE
:102FE0009A2A811143C06C2F8091000190910101B8
:102FF0000E945522882329F08C2F0E945B200E947A
:10300000C5208C2F0E945420CF910C94C52080E2C3
:103010008C0F883048F4C77081E001C0880FCA95D2
:10302000EAF70E947C20F0CFEBE5EC0FE33040F4B0
:10303000F0E0EF56FE4F808190E0CF910C94A11606
:10304000E8E5EC0FE73150F4F0E0EE0FFF1FED592B
:10305000FE4F80819181CF910C94B716C03F30F024
:103060008C2F0E943124CF910C941C25CF91089570
:10307000882361F19CEF980F913A20F40E945B2025
:103080000C94C52090E2980F983050F4877091E02E
:1030900001C0990F8A95EAF7892F0E948220F0CF0C
:1030A0009BE5980F933020F490E080E00C94A116FB
:1030B00098E5980F973120F490E080E00C94B716D3
:1030C000803F20F00E9499240C941C250895CF93F2
:1030D000C82F0E94E517C93349F42FEF87EE93E01C
:1030E000215080409040E1F700C000008C2FCF912C
:1030F0000C943818882321F00E947C200C94C52061
:103100000895882321F00E9482200C94C520089500
:10311000BF92CF92DF92EF92FF920F931F93CF93C4
:10312000DF936C01D62FC72FFC01058102950F702C
:10313000128111110E9499200E947220E82E88238A
:1031400091F01123D1F08C2F807F803421F080E228
:103150008D0F883090F082E00E9410210E94722032
:1031600091E0E82EE926BC2EB2949FE0B922EB2D27
:10317000F0E0ED54FB4C0C941934E12CF4CF0C2FFF
:103180000F70C07F11F00295007F1123A9F000237A
:1031900059F080E28D0F883010F0D11109C0802FD6
:1031A0000E947C200E94C5208D2F0E94E51714C02C
:1031B000802F0E948C20F6CF8D2F0E94381800237C
:1031C00059F080E28D0F883010F0D1112CC0802F83
:1031D0000E9482200E94C5202B2D2850330B2430C2
:1031E000310520F40E943B160E94D509EE2009F417
:1031F0009EC10E946E2080FD9AC1F60112820E943B
:1032000068200E94F11EC6010E94B81A0E94682020
:10321000DF91CF911F910F91FF90EF90DF90CF90B2
:10322000BF900C94121F802F0E949220D3CFFC2FAE
:10323000FF70FF2EC07FC03219F0F29480EFF822A9
:10324000DD2369F0D13049F1112391F1002351F1CF
:10325000F601858180FFA8CF8F70858323C011235D
:1032600081F0011106C00E94AC208F290E947A18BB
:10327000B3CF0130C1F70E94AC208F290E94B22049
:10328000ABCF011106C00E94BB208F2D0E94811878
:10329000A3CF013009F4A0CFF6CF112329F00330DA
:1032A00008F09ACF8F2DE2CF023008F095CFEDCF06
:1032B000002359F3D93349F4FFEF27EE33E0F150FF
:1032C00020403040E1F700C000008D2F0E943818E8
:1032D00083CF8C2F86958695837069F0813009F0B5
:1032E0007BCF8D2F9C2F9370111102C090E080E056
:1032F0000E94B71671CF8D2F9C2F9370111102C0B1
:1033000090E080E00E94A11667CF8D2F112329F055
:103310000E9431240E941C255FCF0E949924FACF7D
:103320008C2F837009F041C0111156CF4D2F42955B
:1033300046954770440F440F0D2F0F7010E030E09A
:1033400020E0042E04C0000F111F221F331F0A9417
:10335000D2F760E070E0CB01D4FF0FC06FE070E007
:1033600080E090E004C0660F771F881F991F4A9580
:10337000D2F76095709580959095C695C695C37067
:10338000602B712B822B932BC23049F058F4C13043
:1033900019F00E94A51E20CF0E94931E1DCF0E94EF
:1033A000B71E1ACF0E94911E17CF8695112311F0D8
:1033B0008C2F8170882309F40FCF4D2F42954695AD
:1033C0004770440F440F0D2F0F7010E030E020E0E5
:1033D000042E04C0000F111F221F331F0A94D2F7BE
:1033E00060E070E0CB01D4FF0FC06FE070E080E0E0
:1033F00090E004C0660F771F881F991F4A95D2F787
:103400006095709580959095C695C695C370602B14
:10341000712B822B932BC23049F058F4C13019F034
:103420000E94681FD9CE0E94561FD6CE0E947A1FD6
:10343000D3CE0E94CB1ED0CECF70112329F08C2F7B
:103440000E94F11E8D2F12CF8D2F0E9481188C2F7C
:103450000E94121FC1CED23F89F160F4D03FC9F063
:10346000D13F29F1112309F442C001119DCE8C2FC7
:103470008F7121C0D33F39F1D43FA1F7112369F1F6
:10348000CF718C2F0E94F11E63E08C2F0E94FB20D5
:10349000A3CE112341F0023008F09ECE8C2F8F7105
:1034A0000E94351F99CE033008F096CEF7CF8C2FAF
:1034B0008F71112369F20E94F11E8ECE8C2F8F71B5
:1034C0001123C9F3C5CF112329F08C2F8F710E94CE
:1034D000DC1E82CE0E94D71E7FCE81E00E9410218A
:1034E000023008F479CE82E00E94102175CE0023CC
:1034F00059F0D93309F0E9CE8FEF97EEE3E0815030
:103500009040E040E1F7DFCE8C2F8F71A1CF4C2FA0
:103510004F706D2FC6010E94DD090E94091E5CCE0E
:103520004C2F4F706D2FC6010E94E00955CEDF91E0
:10353000CF911F910F91FF90EF90DF90CF90BF90B0
:1035400008950F931F93CF93DF93EC0168817981E6
:103550008A810E9430208C010E948C1F0E94901E44
:10356000B801CE01DF91CF911F910F910C94881873
:10357000CF93DF93EC018B819C81892B29F088818B
:10358000998189238F3F59F4DF91CF910895CE011E
:103590000E94A11ACE01DF91CF910C942008CE0198
:1035A0000E9463098111F3CF0E947220882361F386
:1035B0008A81882349F382E0DF91CF910C94102116
:1035C0000E9499200E94A9200E94C5200E94C52621
:1035D0000E941C2590E080E00E94A11690E080E00F
:1035E0000C94B7160E9462200C94E01A0E94892065
:1035F0000C94F21AE92FE295EF70E250EE3070F47D
:10360000F0E0ED53FB4C0C941934803F19F020F49A
:10361000883E20F481E00895843FE1F380E008953E
:10362000883EC0F3813FD1F7F5CF93FB882780F91F
:1036300008950E9426200C94FA1ACF93DF9300D0AD
:1036400000D00F92CDB7DEB70F900F900F900F9074
:103650000F90DF91CF910895CF93DF9300D000D0EA
:1036600000D0CDB7DEB726960FB6F894DEBF0FBEFA
:10367000CDBFDF91CF9108951F93CF93DF93C0917A
:10368000EE0116E08091EF018C1304C0DF91CF9121
:103690001F910895D0E01C9FF0011D9FF00D112493
:1036A000E051FE4F40815181628173818481958117
:1036B0000E942C1B2196C770E5CF409120025091AB
:1036C0002102609122027091230280912402909144
:1036D00025020C942C1B1F93CF93DF93809125021E
:1036E000807FA9F480912202882389F08091EE01E5
:1036F000C091EF016091200270912102A0912302FC
:10370000B0912402D62FD72316E0C81304C0DF914E
:10371000CF911F91089590E0109711F0DF3F19F4B9
:1037200001968770F2CF189F9001199F300D1124D8
:10373000F901E051FE4F41814713F2CF408146131A
:10374000EFCF42814111ECCF438154814A1B5B0B87
:10375000483C510528F7809125028F708061809345
:103760002502F901EB50FE4F80818F7080618083CC
:1037700080E292E00E94B81ADF91CF911F910C94E1
:103780003C1BAF92BF92CF92DF92EF92FF920F93CA
:103790001F93CF93DF93CDB7DEB761970FB6F89441
:1037A000DEBF0FBECDBF8C0185E0F801DE011D96A6
:1037B00001900D928A95E1F7F80140815181E280F4
:1037C00080E2C82E82E0D82E6091230270912402FC
:1037D0006115710509F461C19091200220912102C7
:1037E000892F82238F3F09F458C1A380B480F090C1
:1037F0002202F501E61BF70BFF2009F4FCC08091C3
:103800002502382F307FE83CF10508F0B2C03111B5
:1038100079C0FE2C251323C0941321C0E1101FC0D2
:103820008F708061809325020E945D1BC6010E94FB
:10383000B81A80912502F80185838F2D61960FB605
:10384000F894DEBF0FBECDBFDF91CF911F910F91D6
:10385000FF90EF90DF90CF90BF90AF900895AB288E
:1038600029F0842F85238F3F09F033C180E0F82FA2
:10387000F170DF2E80FF3CC08091EE012091EF01BE
:1038800036E0821315C04D875E878D859E850E9428
:103890002620292F22952F702230F0F0243018F5A1
:1038A0009F70F1F0F8019581907FD1F4D12C1EC06A
:1038B00090E0389FF001399FF00D1124E051FE4F48
:1038C0006181651306C06081641303C062816E115B
:1038D0000FC001968770D5CF9F7011F0882331F308
:1038E000805E883018F3C8010E94B81AFD2CA5CF5D
:1038F000EE2009F4A2CF80912502816080932502F9
:10390000F12C9BCF251306C0941304C0F801EE20C0
:1039100009F48DC04D875E878D859E850E94191B99
:10392000882319F1EE2009F180912502803270F090
:10393000209120023091210238872F831986BB867F
:10394000AA868C87CE0107960E94B81A86E0F801F5
:10395000A0E2B2E001900D928A95E1F70E946B1B04
:103960000E945D1BFF24F39468CFC8010E94B81A1F
:10397000F9CF311113C07A2DB98AA88A6E2D8989A1
:103980000E941D1B80E292E00E94B81A86E0F601B8
:1039900011928A95E9F70E945D1BB2CF25130FC0E3
:1039A00094130DC0E1100BC0F8018583C8010E947B
:1039B000B81A86E0F60111928A95E9F73ECF4D8755
:1039C0005E878D859E850E94191B882371F2EE20EB
:1039D00061F280912502803208F4B8CF2091200254
:1039E000309121023A8329831B82BD82AC828E836F
:1039F000CE010196A9CFE83CF10508F041C0FE2CAC
:103A0000EE2009F4B2CF25132AC0941328C0809168
:103A1000250280FD1BC0982F907FC1F0F80185839F
:103A2000903F31F0982F907F905F8F70892B858326
:103A3000C8010E94B81A86E0F801A0E2B2E0019045
:103A40000D928A95E1F70E945D1BF7CE86E0F801A2
:103A5000A0E2B2E001900D928A95E1F7EECE4D879B
:103A60005E878D859E850E94191B81116FCF809185
:103A70002502816080932502C8010E94B81ADDCE1C
:103A80007A2DB98AA88A6E2D89890E941D1B86E02D
:103A9000F60111928A95E9F7D6CFEE2009F465CFA9
:103AA0004D875E878D859E850E94191BF82E882381
:103AB00009F45BCF86E0F801A0E2B2E001900D923C
:103AC0008A95E1F780E292E00E94E0170E946B1B6A
:103AD000BACF81E08E25CBCE88EC90E008951F937D
:103AE000CF93DF93CDB7DEB72C970FB6F894DEBF38
:103AF0000FBECDBF4F83588769877A878B879C8796
:103B0000CE0107960E94C11B882369F08A859B8598
:103B1000892B39F04F815885842F85238F3F09F0F9
:103B200071C016E05FC086E0FE013796DE01119697
:103B300001900D928A95E1F78A859B85892B89F3FF
:103B40008F81988589238F3F61F32091EF0130E0C9
:103B5000C9010196877099274091EE01481719060F
:103B600071F40E94F61A1092EF011092EE0186E0B5
:103B7000E0E2F2E0DF011D928A95E9F7D2CF96E00C
:103B8000929FD001939FB00D1124A051BE4FFE0112
:103B9000319601900D929A95E1F78093EF010E9482
:103BA0003C1BBFCF819FC001112480519E4F0E94BA
:103BB000C11B8823E9F0E091EE011E9FF001112462
:103BC000E051FE4F408151816281738184819581F2
:103BD0000E942C1B8091EE0190E00196877099273E
:103BE0008093EE018091EE019091EF018913DACF7D
:103BF0002C960FB6F894DEBF0FBECDBFDF91CF91EC
:103C00001F91089569857A858B859C850E942C1B60
:103C100088CFEF92FF920F931F93CF93DF938C0186
:103C2000892B81F0F12CEE24E394E8012196F80130
:103C30008491843770F4843008F05FC08130B1F033
:103C40008230A1F1DF91CF911F910F91FF90EF9002
:103C50000895853709F44CC008F43DC09CE7980FDF
:103C6000903780F78F770E94381849C00E5F1F4F3A
:103C7000FE01849190E2980F983060F48770FE2DD9
:103C800001C0FF0F8A95EAF78F2F0E949C200E94A7
:103C9000C52002C00E94E5178F2D815030F2EFE958
:103CA000FFE03197F1F700C00000F7CF0E5F1F4F24
:103CB000FE01849190E2980F983050F48770FE2DA9
:103CC00001C0FF0F8A95EAF78F2F0E94A220DFCF55
:103CD0000E943818E1CF0E5F1F4FFE01C491C15002
:103CE000D8F28FE99FE00197F1F700C00000F7CF0D
:103CF0000E5F1F4FFE01F490CFCF0E94E5178E019B
:103D0000CBCF08950C94811E0E94821E60933902CD
:103D100070933A0280933B0290933C020C94E01A19
:103D200008950C94841E0F931F93009139021091F3
:103D30003A0220913B0230913C02602B712B822B86
:103D4000932B1F910F910C94841E0F931F9300913E
:103D5000390210913A0220913B0230913C026023DB
:103D60007123822393231F910F910C94841E0F9330
:103D70001F930091390210913A0220913B02309139
:103D80003C0260277127822793271F910F910C9483
:103D9000841E0C94811E0E943B0760933502709331
:103DA000360280933702909338020C94E01A60E058
:103DB00070E0CB010C94CB1E0F931F9341E050E0B9
:103DC00060E070E08A019B0104C0000F111F221FF8
:103DD000331F8A95D2F7C901B8011F910F910C9436
:103DE000CB1E0F931F9341E050E060E070E004C0F1
:103DF000440F551F661F771F8A95D2F780913502B1
:103E000090913602A0913702B09138028A019B014D
:103E1000082B192B2A2B3B2BC901B8011F910F919D
:103E20000C94CB1E0F931F9341E050E060E070E0D4
:103E300004C0440F551F661F771F8A95D2F7CB0128
:103E4000BA0160957095809590950091350210911A
:103E50003602209137023091380260237123822389
:103E600093231F910F910C94CB1E0F931F9341E04E
:103E700050E060E070E004C0440F551F661F771FDC
:103E80008A95D2F78091350290913602A09137023F
:103E9000B09138028A019B01082719272A273B275E
:103EA000C901B8011F910F910C94CB1E0F931F9362
:103EB000009135021091360220913702309138027C
:103EC000602B712B822B932B1F910F910C94CB1E87
:103ED0000F931F9300913502109136022091370203
:103EE0003091380260237123822393231F910F9115
:103EF0000C94CB1E0F931F93009135021091360244
:103F0000209137023091380260277127822793274A
:103F10001F910F910C94CB1E0895E92FEE0FEE0F19
:103F20009E0F890F982F977041E001C0440F9A951A
:103F3000EAF786958695869595E0899FF00111248C
:103F4000EA5DFD4F30E020E070E05191DF01119714
:103F5000CB01022E02C0969587950A94E2F78170F4
:103F600081958527842385278C932F5F3F4F2530AC
:103F7000310559F70895E92FEE0FEE0F9E0F890FC7
:103F8000982F977086958695869525E0829FF001FB
:103F90001124EA5DFD4F50E040E080E0219130E0E7
:103FA000092E02C0369527950A94E2F7217033272F
:103FB000042E01C0220F0A94EAF7822B4F5F5F4F55
:103FC0004530510559F70895BF92CF92DF92EF9295
:103FD000FF920F931F93CF93DF938C01C090350214
:103FE000D0903602E0903702F0903802809139028A
:103FF00090913A02A0913B02B0913C02C82AD92A82
:10400000EA2AFB2ACFE1D0E0BC2ED701C6010C2E54
:1040100004C0B695A795979587950A94D2F780FD29
:104020000EC0219788F7B12C8B2DDF91CF911F9176
:104030000F91FF90EF90DF90CF90BF900895B8015F
:104040008C2F0E94E909019761F3EECFCF93DF93A4
:10405000EC010E94E41FBE01DF91CF910C94E909AD
:104060001F93CF93DF93EB019091ED01992331F0F2
:10407000CB01DF91CF911F910C942620882379F0FA
:10408000CB010E94E41F182F682FCE010E948D1FC4
:10409000BE01812FDF91CF911F910C94E909CB01D3
:1040A0000E94BB1F182FF4CF682F809100019091C0
:1040B00001010C948B22682F8091000190910101E5
:1040C0000C948D2280910001909101010C948F221B
:1040D00080913D02859585958595089580913D0255
:1040E0008770089590913D02977081E009F480E017
:1040F000089580914902089590914902892B8093F7
:10410000490208958095909149029823909349021D
:10411000089510924902089590914802892B809346
:104120004802089580959091480298239093480200
:10413000089510924802089590914702892B809328
:1041400047020895809590914702982390934702E3
:10415000089510924702089580913E0208950895AF
:104160000C94AF2090913E02981721F080933E026C
:104170000C94B020089580913E02882329F010927B
:104180003E0280E00C94B0200895E0910001F0918F
:104190000101809149028083E0910001F0910101C9
:1041A000808190914802892B8083E0910001F091F9
:1041B0000101808190914702892B808390913E027A
:1041C000992381F0E0910001F09101018081892B18
:1041D000808380910001909101010E94432281110E
:1041E0000E94BB2080910001909101010C94471620
:1041F00008950C94F82098E0899F90011124622B77
:1042000060933D020E94F11E80913D028595859547
:1042100085950C94F92010923D0280E00C94F920D1
:1042200090913D028095892380933D02282F27702D
:1042300071F4282F082E000C330B9217130639F057
:104240008595859585950E94121F0C940B210895E4
:104250009093B3018093B2010895CF92DF92EF92D1
:10426000FF926C01EE24FF2420E0C114D104E1048C
:10427000F10419F0C701B60120E1C72ED82EE92EAE
:10428000FF24C114D104E104F10419F0285FC7012F
:10429000B6016B017C0154E0F694E794D794C7947F
:1042A0005A95D1F7C114D104E104F10419F02C5F3F
:1042B000C701B6016B017C0142E0F694E794D79404
:1042C000C7944A95D1F7C114D104E104F10419F05F
:1042D0002E5FC701B6019695879577956795672BF1
:1042E000682B692B09F02F5F822FFF90EF90DF90F2
:1042F000CF900895829590E09C01220F331F220FEA
:10430000331F2C7C95958795959587958373282BDE
:1043100030E0C901880F991F8A7A35952795257550
:10432000822B08956FEF7FEF90E080E00C9488344B
:1043300090E080E00E94643421E08C3E9E4F09F0C2
:1043400020E0822F089582E090E00C945C3483E0BA
:1043500090E00C945C34CF9384E090E00E945C3455
:10436000C82F81E290E00E945C34982F8C2FCF916F
:104370000895CF93C92F682F84E090E00E946A349B
:104380006C2F81E290E0CF910C946A34AB01BC01B8
:104390008FE090E00C947C34AB01BC0183E190E0B1
:1043A0000C947C3460E070E0CB010C94CC2160E094
:1043B00070E0CB010E94C6210C94D2216CEE7EEFFE
:1043C00090E080E00E94883460E082E090E00E940B
:1043D0006A3460E083E090E00E946A34109239020F
:1043E00010923A0210923B0210923C0260E084E08C
:1043F00090E00E946A3460E081E290E00E946A34BA
:1044000060E085E090E00E946A3460E086E090E041
:104410000E946A346FEF87E090E00E946A3440E0C7
:1044200050E0BA0188E090E00E947C3460E08DE0CA
:1044300090E00E946A3440E050E0BA0188E190E0E8
:104440000E947C3460E087E190E00E946A3440E0A2
:1044500050E0BA018CE190E00E947C3460E080E2A0
:1044600090E00E946A3440E050E0BA0188E190E0B8
:104470000E947C340C94D7210C94DE21682F8EE0AE
:1044800090E00C946A349C012E5F3F4FAC01485F72
:104490005F4F80E02417350709F40895F9019191E1
:1044A0009F019923B9F38F5FF5CF662349F0FC0193
:1044B000329608962191261729F0E817F907D1F7C7
:1044C00080E0089581E008959C01FC0132969FEF01
:1044D00080E04191461751F09F3F19F4411101C00E
:1044E000982F8F5F8630A9F79F3F09F40895290F11
:1044F000311D97FD3A95F90162830895FC013296CA
:1045000008962191261303C0DF0111971C92E8172A
:10451000F907B9F708950C9464220C947E22029650
:1045200026E0FC0111922A95E9F70895089508956F
:104530000C9497220E94982280917A02843049F14B
:1045400010924B0288E190E020E40FB6F894A89511
:10455000809360000FBE2093600080E00E94D50928
:104560000E94982283B7817F846083BF83B7816074
:1045700083BF7894889583B78E7F83BF0FB6F894F6
:10458000A89580916000886180936000109260001F
:104590000FBE08950895CF930E9496220E94700C3A
:1045A0000E94CA22C0E08C2F0E94D80B811105C046
:1045B000CF5FC430C1F7CF91089581E0FCCF08955B
:1045C0000C94DF220E94F61A0E943B160E94D50925
:1045D0000C94E0221F921FB61F9211248F939F9379
:1045E000AF93BF9380914B02811113C080917002F1
:1045F00090917102A0917202B09173024196A11D37
:10460000B11D8093700290937102A0937202B093D7
:104610007302BF91AF919F918F911F901FBE1F900A
:10462000189582E084BD93E095BD9AEF97BD809385
:104630006E0008952FB7F8948091700290917102E6
:10464000A0917202B09173022FBF08952FB7F89412
:104650006091700270917102809172029091730268
:104660002FBF08959C014FB7F894809170029091EC
:104670007102A0917202B09173024FBF821B930B23
:10468000089578941F921FB61F9211248F939F93C1
:10469000AF93BF938091700290917102A0917202CA
:1046A000B09173020196A11DB11D80937002909389
:1046B0007102A0937202B0937302BF91AF919F9168
:1046C0008F911F901FBE1F90189587E797E79093D3
:1046D00001088093000888E19AE00FB6F894A89545
:1046E000809360000FBE90936000FFCF0C94490E42
:1046F0000E94700C8FE39CE90197F1F700C0000065
:104700000E94700C83E00E94D80B80FF04C00E94BE
:1047100076230C94652308950E949821811102C08C
:104720000E943C220E94A32180934A020E94AB2156
:1047300090937502809374020E94A721682F70E005
:1047400090E080E00E94911E6091350270913602E7
:1047500080913702909138020C943B07809152026D
:1047600080FF12C06091070185E0689FB0011124AD
:10477000759567957595679560387105A8F561150C
:104780007105A1F1862F089581FF09C0609107018D
:1047900085E0689FB001112475956795EDCF609114
:1047A000070182FD0AC0809151028823D1F09091C7
:1047B000060160910701891728F085E0689FB00124
:1047C0001124DACF869FB001112485E0869F9001E5
:1047D000879F300D1124692F70E0C9010E940534B4
:1047E000CBCF65E070E0CECF8FE7089581E00895EC
:1047F0008091520280FF0CC06091030170E07595BA
:104800006795759567956115710549F1862F08952E
:1048100081FF06C06091030170E075956795F3CF45
:104820006091030182FD0BC0909150029923A1F089
:104830006091020180910301961738F0682F70E0B3
:104840006038710500F38FE70895899FC001112436
:1048500070E00E940534F4CF61E070E0D7CF81E0D2
:104860000895803F31F40E94AE23819580935602D3
:104870000895813F19F40E94AE23F8CF823F31F4AE
:104880000E94AE238195809355020895833F19F4C9
:104890000E94AE23F8CF893F29F40E94F823809329
:1048A000570208958A3F21F40E94F8238195F7CF9B
:1048B0008B3F31F40E94F82381958093580208952C
:1048C0008C3F19F40E94F823F8CF843F31F4809193
:1048D00054028160809354020895853F21F48091B1
:1048E00054028260F7CF863F21F4809154028460A5
:1048F000F1CF873F21F4809154028860EBCF883F4D
:1049000021F4809154028061E5CF8D3F31F4809194
:10491000520281608093520208958E3F21F480916B
:1049200052028260F7CF8F3FB9F7809152028460C4
:10493000F1CF90915502803F59F48091560287FF44
:104940000DC01092560291110BC01092510208C076
:10495000813F81F48091560218169CF3992381F0CF
:104960008091570290915802892B09F064C01092EF
:1049700050020895823F49F497FFF0CF10925502FC
:10498000809156028111ECCFE0CF833F19F41916C4
:10499000ACF3E4CF20915702893F29F41216F4F6C4
:1049A00010925702DBCF8A3F19F427FFD7CFF8CFF9
:1049B000209158028B3F29F427FFD0CF1092580244
:1049C000CDCF8C3F19F41216CCF3C8CF843F31F40D
:1049D000809154028E7F80935402C0CF853F21F492
:1049E000809154028D7FF7CF863F21F4809154024D
:1049F0008B7FF1CF873F21F480915402877FEBCFEB
:104A0000883F21F4809154028F7EE5CF8D3F31F4B1
:104A1000809152028E7F80935202A0CF8E3F21F46C
:104A2000809152028D7FF7CF8F3F09F097CF809111
:104A300052028B7FF0CF089580914A0283FF7EC09F
:104A400088E392E00E949006809154021F928F9317
:104A500083E392E09F938F930E94290781E392E082
:104A60000E94900680915502282F082E000C330BCF
:104A70003F938F938EE292E09F938F930E9429073A
:104A80008CE292E00E94900680915602282F082E18
:104A9000000C330B3F938F9389E292E09F938F93A7
:104AA0000E94290787E292E00E94900680915702B7
:104AB000282F082E000C330B3F938F9384E292E053
:104AC0009F938F930E94290782E292E00E949006B2
:104AD00080915802282F082E000C330B3F938F93A0
:104AE0008FE192E09F938F930E9429078CE192E0DF
:104AF0000E949006809151021F928F9389E192E06B
:104B00009F938F930E94290787E192E00E9490066D
:104B1000809152021F928F9384E192E09F938F9332
:104B20000E94290781E192E00E9490068DB79EB70E
:104B30004C960FB6F8949EBF0FBE8DBF0E941A23ED
:104B40009C019091550280915602982B21F0309350
:104B50004F0220934E029091570280915802982B59
:104B600021F030934D0220934C0283E592E00C94A7
:104B70009316EF92FF920F931F93CF93DF9300D082
:104B800000D000D0CDB7DEB786E0E3E5F2E0DE018D
:104B9000119601900D928A95E1F7E0905502F09000
:104BA000560200915702109158021092550210922D
:104BB000560210925702109258028E2D8F2991F0B2
:104BC00080914E0290914F020E943223AC0190914D
:104BD0005102992309F43FC08091080184171506FA
:104BE00008F447C0802F812B91F080914C02909166
:104BF0004D020E943223AC0190915002992309F496
:104C000077C0809104018417150608F47FC0809155
:104C1000550290915602892B90915702892B9091C1
:104C20005802892B11F00E941C2586E0FE01319666
:104C3000A3E5B2E001900D928A95E1F726960FB6B2
:104C4000F894DEBF0FBECDBFDF91CF911F910F91C2
:104C5000FF90EF900895209109018AE0289F90012C
:104C600011242417350708F0BDCF9F5F90935102A0
:104C700002C09F3FD1F7EE2059F00E94AE239FEF74
:104C80001E140CF491E0899F802D1124809355020D
:104C9000FF2059F00E94AE239FEF1F140CF491E007
:104CA000899F802D11248093560230915502332321
:104CB00009F498CF20915602222309F493CF45EBB3
:104CC0003403C0011124992359F09093550245EB08
:104CD000240390011124332339F03093560282CFFC
:104CE00081E080935502F3CF81E0809356027ACF22
:104CF000209105018AE0289F90011124241735078F
:104D000008F085CF9F5F9093500202C09F3FD1F77C
:104D1000002359F00E94F8239FEF10160CF491E045
:104D2000899F802D112480935702112359F00E94EE
:104D3000F8239FEF11160CF491E0899F802D112428
:104D40008093580230915702332309F460CF2091A9
:104D50005802222309F45BCF45EB3403C001112430
:104D6000992359F09093570245EB240390011124A5
:104D7000332339F0309358024ACF81E080935702B1
:104D8000F3CF81E08093580242CF86E0E3E5F2E082
:104D9000DF011D928A95E9F710925102109250029C
:104DA0001092520208958BE594E00E9490061F92A3
:104DB00081E08F931F9285E08F938DE094E09F9325
:104DC0008F930E9429070F900F900F900F900F90D4
:104DD0000F900895833009F445C028F4813061F0C4
:104DE000823049F10895853009F46AC008F451C051
:104DF000863009F47CC0089580910901482F460F40
:104E00005527551F4F3F510594F4680F60930901D2
:104E1000809109011F928F9386E493E09F938F9373
:104E20000E9429070F900F900F900F9008958FEF19
:104E300080930901EDCF80910801482F460F552737
:104E4000551F4F3F510554F4680F6093080180913E
:104E500008011F928F9384E393E0E0CF8FEF80935C
:104E60000801F5CF80910701482F460F5527551FA0
:104E70004F3F510554F4680F60930701809107017B
:104E80001F928F9381E293E0C9CF8FEF8093070148
:104E9000F5CF80910601482F460F5527551F4F3FEC
:104EA000510554F4680F60930601809106011F922A
:104EB0008F938CE093E0B2CF8FEF80930601F5CF14
:104EC00080910301482F460F5527551F4F3F51052D
:104ED00054F4680F60930301809103011F928F9334
:104EE00083EF92E09BCF8FEF80930301F5CF80910A
:104EF0000201482F460F5527551F4F3F510554F4C7
:104F0000680F60930201809102011F928F9388EDD8
:104F100092E084CF8FEF80930201F5CF8330C9F107
:104F200028F4813061F0823019F10895853009F458
:104F300052C008F43FC0863009F45EC008958091E5
:104F40000901681790F4861B80930901809109017B
:104F50001F928F9389EC92E09F938F930E94290771
:104F60000F900F900F900F90089510920901EECFBF
:104F700080910801681750F4861B80930801809186
:104F800008011F928F9387EB92E0E6CF1092080101
:104F9000F6CF80910701681750F4861B80930701B4
:104FA000809107011F928F9384EA92E0D5CF1092EF
:104FB0000701F6CF80910601681750F4861B809395
:104FC0000601809106011F928F938FE892E0C4CF73
:104FD00010920601F6CF80910301681750F4861BEA
:104FE00080930301809103011F928F9386E792E0E3
:104FF000B3CF10920301F6CF80910201681750F4ED
:10500000861B80930201809102011F928F938BE592
:1050100092E0A2CF10920201F6CFCF93C82F1F9239
:105020008F9380E695E09F938F930E94290761E01C
:1050300070E080E090E004C0660F771F881F991F22
:10504000CA95D2F70E94911E0F900F900F900F906B
:10505000CF910C94F61ACF93DF938B3109F4FAC1F8
:1050600008F09CC18B3009F4B8C108F06AC18630E1
:1050700009F4C6C148F4853009F49EC182EE99E076
:105080000E94900680E0CCC1873009F4CCC1883002
:10509000A9F781E89AE00E94900682ED99E00E94CB
:1050A00090060E94A7211F928F938FEC99E09F9307
:1050B0008F930E9429078DEC99E00E9490060E9430
:1050C000A321C82F8AEB99E00E9490061F92CF93EC
:1050D00085EB99E09F938F930E94290783EB99E0DA
:1050E0000E94900689EA99E00E9490068C2F8170B8
:1050F0001F928F9386EA99E09F938F930E942907CE
:1051000084EA99E00E9490068AE999E00E9490065C
:10511000C1FB882780F91F928F9387E999E09F93BD
:105120008F930E94290785E999E00E94900689E8FB
:1051300099E00E949006C2FB882780F91F928F9306
:1051400086E899E09F938F930E94290784E899E06D
:105150000E9490068BE799E00E949006C3FBCC2743
:10516000C0F91F92CF9388E799E09F938F930E9495
:10517000290786E799E00E9490060E94AB21EC0186
:1051800082E699E00E949006DF93CF938DE599E047
:105190009F938F930E9429078BE599E00E949006C8
:1051A00082E499E00E9490068C2F81701F928F9369
:1051B0008FE399E09F938F930E9429078DB79EB745
:1051C00080960FB6F8949EBF0FBE8DBF8DE399E019
:1051D0000E94900686E299E00E949006C1FB882713
:1051E00080F91F928F9383E299E09F938F930E949F
:1051F000290781E299E00E9490068FE099E00E94E1
:1052000090068D2F81701F928F938CE099E09F9371
:105210008F930E9429078AE099E00E94900688EF08
:1052200098E00E949006D695D1701F92DF9385EF8B
:1052300098E09F938F930E94290783EF98E00E9444
:10524000900681EE98E00E949006C2FB882780F9C4
:105250001F928F938EED98E09F938F930E94290762
:105260008CED98E00E9490068AEC98E00E949006EF
:10527000C3FB882780F91F928F9387EC98E09F9358
:105280008F930E94290785EC98E00E9490068BEB93
:1052900098E00E949006C4FB882780F91F928F93A4
:1052A00088EB98E09F938F930E94290786EB98E004
:1052B0000E94900684EA98E00E949006C5FB882729
:1052C00080F91F928F9381EA98E09F938F930E94B9
:1052D00029078FE998E00E94900683E898E00E94F1
:1052E0009006C6FB882780F91F928F9380E898E08C
:1052F0009F938F930E9429078DB79EB780960FB614
:10530000F8949EBF0FBE8DBF8EE798E00E94900676
:1053100086E798E00E949006C7FBCC27C0F91F9251
:10532000CF9383E798E09F938F930E94290781E7AB
:1053300098E00E9490060F900F900F900F9081E0E0
:105340006FC0803109F49EC080F48E3009F096CE93
:1053500090914A02892F8B7F92FF846080934A024A
:1053600082FF8DC08DE09AE081C0863109F49AC039
:10537000893109F083CE88E996E00E9490068EE597
:1053800096E00E9490068FE296E00E94900689EFD8
:1053900095E00E9490068EEC95E021C08A3249F19A
:1053A00090F4873211F128F48E3108F467CE8D51D4
:1053B0001DC0893209F062CE80E59AE00E94900615
:1053C0000E945409BCCF833468F48A3308F0A1C02A
:1053D000853359F0883309F051CE8EEC96E00E9467
:1053E0009006ADCF833409F049CE80E00E940D28AD
:1053F000A6CF80E79AE00E9490060E943C229FCFB1
:1054000080914A02807F80934A0287EA96E00E9458
:1054100090068CE69AE00E94900681E080935A0202
:10542000DF91CF91089590914A02892F8E7F90FF4E
:10543000816080934A0280FF03C084E49AE0CFCF6A
:1054400087E39AE00E94900680914A02817F8093D0
:105450004A0275CF90914A02892F8D7F91FF826019
:1054600080934A0281FF08C08AE29AE00E94900677
:1054700080914A028160EBCF8CE19AE0B0CF8DEF52
:1054800099E0ADCF90914A02892F877F93FF886082
:1054900080934A0283FF03C081EF99E0E7CF84EE57
:1054A00099E09DCF80EC95E00E9490060E943B160B
:1054B0001F928F9386EA95E09F938F930E9429070E
:1054C000809114011F928F938FE895E09F938F93A3
:1054D0000E942907809167021F928F938CE795E0C5
:1054E0009F938F930E9429070E9426239F938F9357
:1054F0007F936F9385E695E09F938F930E94290792
:105500008DB79EB742960FB6F8949EBF0FBE8DBF63
:1055100016CF89536BCF80E008950C948B2A8E515F
:105520008A3030F4E82FF0E0EC56FE4F8081089589
:1055300080E00895CF93C82F80915A028130C1F046
:10554000882339F0823009F447C010925A0280E073
:105550000DC00E9479208232D1F78C2F0E948B2AB5
:1055600081111BC08C2F0E942B288170CF91089530
:105570000E947920823289F38C2F0E948D2A81111A
:105580001BC0C431D9F060F4CB3071F0C031D1F020
:1055900086E595E00E94900613C081E090E0E5CF9B
:1055A000C93261F0C833A1F787EA96E00E949006FD
:1055B0008CE595E00E94900681E0D7CF10925A02C8
:1055C00080E0D3CF0E94D32688E595E00E94900624
:1055D00082E080935A02F0CFC432C8F4CE3108F092
:1055E000BEC0CB30E1F040F4C73009F4CCC08AEF44
:1055F00093E00E94900626C0C331C1F1C431B9F7CF
:1056000080915902882351F1109259020AC0CB347B
:1056100009F4B7C0C8F4C93299F3C83341F70E94FE
:10562000D32680915902882309F4C4C01F928F9316
:1056300084EF93E09F938F930E9429070F900F9020
:105640000F900F9081E092CFC13509F494C0C2351C
:1056500009F48BC0CE3459F66AE08EC089E094E03C
:105660000E94900681E080935A0280CF83EE93E0FF
:105670000E94900681ED93E00E94900680910901BE
:105680001F928F938EEC93E09F938F930E94290734
:105690008CEC93E00E9490068AEB93E00E949006C7
:1056A000809108011F928F9387EB93E09F938F93D4
:1056B0000E94290785EB93E00E94900686EA93E01A
:1056C0000E949006809107011F928F9383EA93E0D6
:1056D0009F938F930E94290781EA93E00E9490068E
:1056E00080E993E00E949006809106011F928F93BB
:1056F0008DE893E09F938F930E9429078BE893E0B6
:105700000E94900686E793E00E9490068091030134
:105710001F928F9383E793E09F938F930E942907B3
:1057200081E793E00E9490068AE593E00E9490064C
:10573000809102011F928F9387E593E09F938F934F
:105740000E94290785E593E00E9490068DB79EB7D9
:1057500048960FB6F8949EBF0FBE8DBF62CF8C2FB8
:105760000E948F2A809359025CCF61E08091590298
:105770000E94EA2656CF61E0809159020E948E274E
:1057800050CF6AE0F3CF8EE18093090182E38093EA
:1057900008018AE08093070184E18093060188E094
:1057A0008093030188E2809302018CEF93E00E94D2
:1057B000900637CF81EF93E01CCF80916602089569
:1057C0009FB7F89410925D029FBF90917A02943037
:1057D00009F048C02091E9002F703091EC00932F20
:1057E000917030FD90E8922B25E02093E900209104
:1057F000EB0020FF34C02091EE0027FF30C0209145
:105800005B02222321F02091E80025FF28C010929E
:105810005B0226E03091E80035FF14C08093F10070
:105820008091E80085FD27C08091E80080FFFCCFD3
:105830008091E8008E778093E8009F709093E90054
:1058400080E0089530917A02343049F43091EB00D1
:1058500035FD05C0215041F481E080935B029F70CB
:105860009093E9008FEF0895EFE9FFE03197F1F7AA
:1058700000C00000CFCF8FB7F89421E020935D02E5
:105880008FBFDBCFCF93DF9300D00F92CDB7DEB7C2
:1058900090917A02943011F589837B836A83909387
:1058A000E9008FEF9091E800815095FD06C095EDDD
:1058B0009A95F1F700008111F5CF8091E80085FFFE
:1058C0000DC050E040E063E070E0CE0101960E9420
:1058D0001A2F8091E8008E778093E8000F900F9048
:1058E0000F90DF91CF910895BC0184E00C94422C7D
:1058F000BC0183E00C94422C9C0184E08093E9007D
:105900009FEF8091E800915085FD06C085ED8A9556
:10591000F1F700009111F5CF8091E80085FF0CC0F0
:1059200050E040E066E070E0C9010E941A2F8091CB
:10593000E8008E778093E8000895CF93DF93EC0121
:1059400081E08093E9008FEF9091E800815095FD10
:1059500006C095ED9A95F1F700008111F5CF809181
:10596000E80085FF14C050E040E068E070E0CE0140
:105970000E941A2F8091E8008E778093E80088E0DB
:10598000FE01AEE5B2E001900D928A95E1F7DF915C
:10599000CF910895CF93FC01603221F580917A0276
:1059A000843001F5C091E900CF702091EC00922F76
:1059B000917020FD90E8C92B82E08093E9008091EE
:1059C000E80080FF0CC050E040E060E270E0CF01F2
:1059D0000E941A2F8091E8008E778093E800CF70A4
:1059E000C093E900CF91089581EB9AE00E94900660
:1059F00080917902811109C00E94F9300E945631CC
:105A00008091E20084608093E20008958DEA9AE03C
:105A10000E94900610927902089589EA9AE00C9407
:105A2000900685EA9AE00C94900681EA9AE00E943A
:105A300090060C94E22220915C022F5F822F62E399
:105A40000E94F933992319F020935C020895109273
:105A50005C0280915D028823F1F080917A028430AB
:105A6000C1F49091E9009F702091EC00822F817029
:105A700020FD80E8892B95E09093E9009091EB0060
:105A800090FF04C09091EE0097FD08C08F70809346
:105A9000E90010925D0208951092F1009091E800E3
:105AA00095FDFACF9091E80090FFF0CF9091E8003B
:105AB0009E779093E800EACF42E061EC81E00E949B
:105AC000753042E261EC84E00E94753042E261ECA4
:105AD00082E00E94753042E260EC83E00E94753003
