:100000000C94A4070C94CF070C94CF070C94CF0743
:100010000C94CF070C94CF070C94CF070C94CF0708
:100020000C94CB3D0C94CF070C94CF070C94CF07C6
:100030000C94CF070C94432E0C94CF070C94CF074D
:100040000C94CF070C94CF070C94CF070C94CF07D8
:100050000C94A23D0C94783D0C94CF070C94CF07E0
:100060000C94CF070C94CF070C94CF070C94CF07B8
:100070000C94CF070C94CF070C94CF070C94CF07A8
:100080000C94CF070C94CF070C94CF07040000000A
:100090000004040000000004000000000000000450
:1000A000000000000004000200000400040000043E
:1000B000070404000004040400000202000000021F
:1000C00004070004070704000404000004000202FF
:1000D00004040404040000040004040404040404EC
:1000E00000040002030400040400040004000004EF
:1000F0000004000000000000000001020102F00006
:100100009E2D0200010000001F2A030001000000D4
:100110002B2A0400010000002E2A05000100000027
:10012000732A06010001BF03161207000100000038
:100130008C1208010001EF0070120900010000009C
:100140003F2D0A020101BA035D2D0B030103EC00F0
:10015000402D0C020102EA00722D0D020002F00097
:1001600016320E020002A6031B320F030003EC003E
:100170008E3210020002EA00051811050005E500A4
:10018000BB1712020002A6030D2913010001EF00A4
:10019000EF2714020002EA00E01015020002A60395
:1001A0006D1016040004E100081117050005DC00BD
:1001B0008A1018010001EF00BB2719080008D400BD
:1001C00047281A030003D1002D281B020002A603B2
:1001D0001C1F1C020002EA00FA1D1D040004940307
:1001E0007E1F1E010001EF00271E1F080008C90026
:1001F000AA1D20020002EA00391E21040003A80300
:10020000C31222030002AB03B81423030002AB03A2
:10021000C81424040004A203201325010001EF00E8
:10022000BB1226030003C600ED1227050003C3001E
:10023000A12A28040003C000792B29030002AB0384
:10024000862A2A040004A203D62B2B010001EF000A
:10025000712B2C030003BD0064212D030003AD03AB
:10026000FA1C2E060006B700741D2F020002A6031A
:10027000892530050005B200DC2031040004B403F8
:10028000382132020002A603192133040003AF0013
:10029000212534050005AA00C22535010001EF0023
:1002A0006E30360400039803193137050005A500A8
:1002B0005A2438040004A2031E3039030003C60088
:1002C00050303A030002AB0366313B030002AB033C
:1002D000F7313C0600069F0085313D030002AB0369
:1002E000F6383E030002AB0312393F0800089700BE
:1002F0002E39400600069F009C39410500059200FA
:10030000AF3842010001EF00881543030003EC0001
:10031000D71A44020002A6033619450600068C00CF
:100320001D1546030003D1005F1547010001EF00D2
:10033000DF3548030003EC003D3749020002A60305
:10034000C0354A030002AB0337224B040004940378
:1003500028204C030003D100D11F4D010001EF0004
:1003600097214E030003EC0024234F020002A60352
:1003700078215000010000006C3D51000500000094
:100380000001020304050607040000020400020441
:100390000204000704000004040207040000020431
:1003A000040204000000040404040704070400021B
:1003B000040404000404000404010704000402000F
:1003C000000000000000060002026D400398036C6C
:1003D0001F0788036B400398036A0B028F03694071
:1003E0000391036840039803671C079B036614048A
:1003F00094036540039803641C079B03631704A2DE
:1004000003620A02A603614002AB03604003A80333
:100410005F4002AB035E4002AB035D1003AD035CC3
:100420001104B0035B1104B4035A0D02B803590B55
:1004300001BF03584001BA03571204BB03560B0116
:10044000BF03551002C003541503C203004002C588
:1004500003530E02C703520901C9035106000000ED
:1004600020002300260029000B470044004500809F
:10047000010C48004400450020011D8800800081D7
:100480000080001C8A008000810020001FB300B0A3
:1004900000B10080031EB400B000B10020030E982C
:1004A000009000910080000F9A00900091002000C1
:1004B00078DAB5597B6FE33612FF2AAC81C55D0B44
:1004C00027B0654BB673E81F89931E166D76D3CDA2
:1004D000E6F680432128126D13D1ABA294C715F91B
:1004E000EE37C3E14BB2B25DDCE11658582487E425
:1004F000701EBF79E48FC97D27F22C7EE48D1455E0
:10050000292767937D9A9EB1BFFE7DBBFD9E85A77F
:10051000CBD319BB1765D78A5CE2EC873B76A18702
:10052000DFB3E034884E83D93C9ACD8370329DA4EA
:10053000555124650687FC3149F2BC4A9396C7950C
:10054000C8244BABAE6C7F7C974ECED653B8B16D02
:10055000E1AA38491F18ACC2B4B7BE5C7904596629
:1005600008EA4AAA1F51FEF8AE637597E77157D3A0
:10057000868DDBF07BC79B177B2630F080D40D97F0
:100580006DDC8AF441D2A86D925216A28DCDAD4C8D
:1005900094F07E7D3F3098E63C696279E8DAAC7A87
:1005A0002A2767013EADDC893D70F49C2F96A1B9E6
:1005B00042D622A6CFC9D96AE1A8CA24AFF6B1288B
:1005C0002DF78AEDC9D9C29DA4593614348C9D1CCF
:1005D000C299255593BCE91FD69341B8B2C499D8A6
:1005E0008B36C9E3AA6B071B1E93BCE338CEF82EEB
:1005F000E9F236B61345F21C675D93B460018ACF09
:10060000B93B8F833EDBAAEE9D95F62E0F224B7CE5
:10061000C896CBD57A66881B19EBBBB9F9C896F694
:100620002BB45F91FD5AD92F9E272F566993B3C8DB
:100630004957042933425FBAE95CC8207B1AD34C7E
:10064000B4B64445DD6D82D032084739FD6D2C5576
:10065000C9AB5A3CF37C20C02C6993588A7F83CC69
:100660000E1D78451BA3E03CC3921CA644E9B11DB6
:1006700086F6D0FAA918514AFA02C6E6CED02A392F
:10068000744325C1CC9196964EF0F0DCE1C1E85F51
:10069000AD78E4F141EC0FEA858BB54F0F56BACF38
:1006A000F9B1BC985D8BDB979A936C7A3759CF1868
:1006B000DBAC97E242EE7F7CF70340C162D1DBFB0B
:1006C00024DA0388214EA555E2C2599B6C579BC082
:1006D000AA27B5F623D3FCC17E8BCC7EBE9469DC01
:1006E00037159616597C643D33EF065ED7CE997068
:1006F000186BA3CE44633E091014B1A3EA72C9BDBE
:100700004303F7B0F6C09BA2023FAD4725EA2F7B1B
:1007100042754CB545DA258DB58DE6393E7272D6F7
:10072000DA49B4BC56149C2CCC414ADBA03C9C5802
:10073000E1FC8CDF7760CF553D39DB98119CB257D7
:10074000B64CFA995BB2862780B74DC61BBC0FC06A
:10075000B72130080CC153235A7E4481464B84F3A1
:10076000E98417BCD9F3327D8911358009982204B8
:10077000890F55C18FB0592645ED3B801E5B64EE55
:100780006337B0EE508B9E6B65DC88FD9E37F808B2
:1007900089FE81C014BACB5564009E92965B010518
:1007A000CBE9642700ABC1A56392214B9B942C66D7
:1007B0003AD983372B3E41C87AA468407334EC6A37
:1007C000D402F8E174A2812F96705F0C1668711D37
:1007D000BF49CE51302043151832A78E088488B007
:1007E000545499D8BDC4A06B7B56C3954B311D9E04
:1007F00080035CD55EB6A16DA4C33E3DCEC539D79E
:10080000A0312342B5BD933E12C250E118C8087F03
:1008100051BD5C92AD2F03B74B56BBF62969B8BFEB
:100820001DFCD3FA649698CFB193A2904ED2B63401
:100830007CFE129F9FF1B285C7B36AB7830B9553B5
:10084000DBB808EB069E9518AD36C385B7D2D599AF
:10085000D334250F87CEBB26049D91490C22FA780C
:10086000D2002A0F061B942D750EC456734B308C84
:10087000FEFFA5B117CED835FABB1164307BD8780E
:10088000E0E98397332C2C0F8394C1725057802753
:10089000C3FBBD70159903FAD1F42DA944AB3EFDFD
:1008A0005028913D6F1078DF14F37AB0E148CCF610
:1008B000C6A310F646BE873E0A114BEC4846ABD0A5
:1008C0001C3006DA6F9CE1A9A2A7091A40B0000CFF
:1008D000C93C45441B7549C7C7D2317B47E5670A08
:1008E000F3D06C19240A96DC6A1FBCC4126364B28C
:1008F0003E8C2A2730360E7350CE07BF02E00E4CD6
:1009000058E5289084CFF4A7DA4F2837BC0F36007B
:1009100015D2F86F18E492C0F7E28848BD4025363A
:10092000F6CC5E96039B22DA54F267CD02C45E0BCE
:1009300006A221789E139191C79F644C2015706A7E
:100940002F79C12C7FE77CC039FF4AD379F0E1AD24
:100950002EEC6A0F20714A03244033F7E00DB644B1
:100960006ECB183A16425606138B4A8AB1ACE6E8AB
:10097000D048F3F1F63B16600594307D2DEE849B54
:100980003ED578D809D748A552A318631B40A6C006
:1009900044D33ADE7CE308544445EBA598CB6C087D
:1009A000F60232EC80237562D313B5427E1B9808A1
:1009B000BB41D57A37CA105D76C403C024D68EAE4B
:1009C000F513265E578D8ED6E4BD6A6C8D843FD7B5
:1009D0000254E2E7061B7BD2E0153E11800D4592E2
:1009E000313FF67C60F96A92302C7DCF2FB7F1F55C
:1009F000F93F31B5C21CF1E2EE36BE79FFE11611C6
:100A00000BCAEB9B8B687A7311C2FFD5C45B6C9FDA
:100A1000D4E27636BDD9CE6161FBCBC7EDCFF14FC5
:100A20009FAE7E457799A97FD3C9F5F60EA892B6F9
:100A3000E0FB641EAC973550DE7CB9A6EB02AC3609
:100A40003E5D6DAFDEFFE32AFEF2FEC3E5C72FA8D1
:100A5000B700276FAF3EC124B1C11B91E478D925FF
:100A60005C768997C1EAFBF35FE28BF3BB4B3C8674
:100A7000EEBAFD7CFEF936BEBDBBBEFD15566EAFAF
:100A800070257AC594AA83244F9521AAD2D7A903A9
:100A90007EAA47CC80068C1AC737E7B3C9D9BF6690
:100AA000D3F56FC0E6057EAFE97B8BDF80026A700D
:100AB000890348C6D6BFBDF61C181265D549982FC4
:100AC000160B38763A4964385BAE329504B4390F68
:100AD00067F3E01EB8D2BB340F4ACAC803460E8182
:100AE00086D240C21B8B4CAB862915EE288452F56A
:100AF0007A9EA325BE30930C66046BDBA46465D597
:100B0000323049866ECD0089087E98B22CF674107A
:100B1000F04D1622590D360E37116E9ABD9DE42AFE
:100B2000023573B6AB1A06BAFA9B190B89AB999AC0
:100B30005753921C01B6FEA545D8864A670F0C4153
:100B4000F990B4489D6836A9AEA3FC56134B2445D2
:100B5000C3A42C9C6615C2ABA381535E3253FAD852
:100B6000FD60195B6AD9B03A69C02E186F9AAA5114
:100B700009AE596838041AD9AAC6CD4F09BC3763E3
:100B80006DC5943F6321AEDC90BA36EF290C32D3A9
:100B9000D9708D168A46949F182ADD2B52B9B59BC1
:100BA00003326425293884322AB1CC62513D72C3A4
:100BB0000DC32A1CFDCE2DDB9ADD56E984CB47EB15
:100BC0003A35B4F72F3C0640808CCC0E8B1E338B0D
:100BD000C5B5F1EE60D59BD719487A10B5DEB89C43
:100BE000F70940055DEDDE24A96C3714BD1CC43B3C
:100BF00005D3F9EBE419ED746D044AA5F43524D25C
:100C0000C99E33A8B120621885C191D742A2354947
:100C1000480AB32EC71A0F366380651ABB94E1F3F6
:100C2000478E9AC0D8FAF68643D264CAD83535566C
:100C300092D7287E957330F86A7679F54449CB07C8
:100C4000B0F284D173D0BD94EB2F070B60F7B48062
:100C5000E5AABF20CA9A423BF572D452899CBAE9F0
:100C6000A582386BFD7553ED419805B09EE0DB76AB
:100C7000101B814B103647C7C5BED927AE1F85C68E
:100C80008A9E05D7A0A8410D68C958CCDC5A82239A
:100C9000E9B02791E710325238AFD774A120E87637
:100CA0005A097D6507C6995BF042D2A162002944CA
:100CB000D11566CE380772651A2BAAC483C394DF98
:100CC0002A0CF29B91B7DA91DBAA62BB44BD8E5E1F
:100CD0008615ED67DFA4506440A85A49D400FAACE9
:100CE000E4813B215A4AAE2AF4BB527635464C4E3B
:100CF0004EAD9014FBAA5F92363D64D59EA4F81DBC
:100D00001559AAB30BB547573EC0C18808D430F473
:100D1000E6A55B00CB241F01C8908074E8C1108B4E
:100D2000A18A955ABFAE0D428055953960DC231CCF
:100D300090DCE706BAECF3A9CE653A45A07EEDA0BB
:100D40005E3E631F013C214ADD6354DF61BF447E88
:100D500047C9836A465B1CD52DEA8C9A2012ABCE1C
:100D60001210824C2685655CC2340CC05FB51D3FF5
:100D70009C6F7FA67E95E9D8A86C0AA599270D8659
:100D800013CC1E4752065421193CF6BF3402933B44
:100D900061A204D1EAA84784E10AC2FA62BE0E4306
:100DA00015FDF42052E18F0651A8EC010651B482E2
:100DB000EFC5EBAB4AEC6B800B4E6D785DADFA592D
:100DC0009F44102D533EA8894FD07A46AB5B578382
:100DD000E8CAC9E45594BFFBC7DD77CA1FD5AE9DED
:100DE000D855F89B0BAFD98E89FA09462E5B26F7AA
:100DF000BA3274E458CDB359B83E7F6F47E2D5C0DC
:100E00004CADE8F7A86EBB2A6D5C06B9B69D4C8860
:100E1000A8BAA1A35EA8FA3E38674C4D25EE00752E
:100E20003EE36BD5A954A5F5D7B8D63BF447EC6E95
:100E30003F0936AED926C1276DEF6CBD71BDAADE64
:100E4000C9870A8ACFFDF11D7E2B0C843377ED9F75
:100E5000D81880CB68694C62D984AEC3E291DA5667
:100E60000B19C4299262ABC809840D132A2D139063
:100E7000B2AEFEBFC9C85696FCFF6C63E0EEA68911
:100E8000F02D8C21B68F361DFE27CEBA31CE665E90
:100E9000A74ADB8161AE4B53D5294BD17E810EB47D
:100EA000E3376BD758A6B92061FA4AE38A59F8D9D3
:100EB000F437E966EEEFF04A367F03D2056385F634
:100EC00091DDF9CD14CF004F8245BFB2FD33835D74
:100ED000AA5CBE695572BD9E53662F9D97C9AED060
:100EE0003FF27772A6A5AB5507852CF502A142D833
:100EF000CC0698DB57C4280C751448493B583898E1
:100F0000F2F6F80158D81208CDFD92D5F9759AD8A5
:100F1000FA79B47DED61165670D46B66F4B79CCE49
:100F200007B410205FFFF5166ABAC7D9E93C389DAF
:100F30009D44E1C97E1325F79B59B499BCFE07B1C6
:100F4000390ED4930A00000011241FBECFEFD0E465
:100F5000DEBFCDBF14BE0FB6F894A8958091600097
:100F6000886180936000109260000FBE11E0A0E0E5
:100F7000B1E0E8E4FDE700E00BBF02C007900D928E
:100F8000AA32B107D9F722E0AAE2B1E001C01D926E
:100F9000A739B207E1F70E94742F0C94A23E0C947B
:100FA0000000CF93DF93CDB7DEB769970FB6F89403
:100FB000DEBF0FBECDBF0E94612F6B017C019E0181
:100FC0002F5F3F4F1901AE01475F5F4F5E874D872F
:100FD00080912601882309F4D4C50E94612FC61A86
:100FE000D70AE80AF90AF89480912601882351F07B
:100FF0008FEF8093260178940000F8948091260169
:101000008111F9CF78940E94612FA7019601260FD4
:10101000371F481F591F2B8B3C8B4D8B5E8B81E0FC
:101020008093260180914901882309F43EC01092E3
:1010300049018FEF898367E27EE1C1010E943C296B
:101040008C01892B91F1D80156968C9182FFF3CFB8
:101050000E94612FF894F80137892689422F4B7F2F
:10106000468B78949F938F937F936F931F923F93B8
:1010700021701F922F9389811F928F932FE134E06B
:101080003F932F930E94DB336DB77EB7645F7F4F32
:101090000FB6F8947EBF0FBE6DBF67E27EE1C1015F
:1010A0000E943C298C01892B71F680914A0188238A
:1010B000F9F010924A018FEF898369E37EE1C10163
:1010C0000E943C29FC01892B99F0958D868D9813FF
:1010D000F4CFF894858D968D891709F43BC67894E2
:1010E00069E37EE1C1010E943C29FC01892B69F77B
:1010F00080914C018823F9F010924C018FEF898385
:101100000BE014E069E171E2C1010E943C29009703
:1011100091F0DC0158962C912F3FA1F7F894FC0137
:1011200026852111E7C4789469E171E2C1010E942A
:101130003C29009771F780914E018823D9F11092D4
:101140004E018FEF898306E014E062EC75E2C10185
:101150000E943C29009771F1DC011E962C911E978C
:1011600023FFF3CFF894FC012685277F2687789408
:101170009C01265E3F4F3F932F9350968C9186950E
:10118000869586951F928F9389811F928F931F93C7
:101190000F930E94DB33EDB7FEB738960FB6F89485
:1011A000FEBF0FBEEDBF62EC75E2C1010E943C299B
:1011B000009791F680915901882309F446C0109256
:1011C00059018FEF89830CEF13E060E570E3C101F3
:1011D0000E943C29FC01892BC1F1848D80FFF5CF51
:1011E000F89494812581368147815489658976896F
:1011F000A789B08DF18CE28CD38C848D8E7F848F07
:101200007894DF92EF92FF92BF93AF937F936F93A7
:101210005F934F933F932F939F9389811F928F9357
:101220001F930F930E94DB332DB73EB7205F3F4FD4
:101230000FB6F8943EBF0FBE2DBF60E570E3C1014D
:101240000E943C29FC01892B41F6809146018823AC
:10125000B9F1109246018FEF8B87AE01455F5F4F6A
:101260002A0132E0D32E4EE2E42E50ECF52E66E356
:1012700079E1C2010E943C298C01892B09F1D80136
:1012800052968C9182FFF3CF80FF89C1C8010E94E2
:10129000AE3AF801D28A148AE982FA82910142E0D8
:1012A00060E0848595850E94BE13C8010E94271ABC
:1012B00066E379E1C2010E943C298C01892BF9F691
:1012C00080914501882309F450C0109245018FEFA9
:1012D0008B879E01255F3F4F29016FE575E1C201B4
:1012E0000E943C295C01892B09F43FC0D501599625
:1012F0008C91599780FFF1CFF894F5016480758047
:1013000086809780818D8E7F818F789458968C917E
:10131000813009F48FC308F46FC3823009F42FC3FE
:101320008330D9F6CB8419821A82910142E061E0C0
:10133000F501848995890E94BE1309811A811027BD
:1013400001271027F02FF670EF2E20E030E0B401D7
:10135000A301C5010E94EA156FE575E1C2010E9473
:101360003C295C01892B09F0C1CF80915B01882366
:10137000B1F110925B018FEF8B879E01255F3F4F8C
:101380002901B2E0DB2E1DE2E12E08E0F02E60EC38
:1013900075E3C2010E943C298C01892B01F1D8011F
:1013A00052968C9182FFF3CF80FFF4C0C8010E9457
:1013B000AE3AF801D28AE982FA82910142E060E015
:1013C000848595850E94BE13C8010E94663660EC34
:1013D00075E3C2010E943C298C01892B01F78091A1
:1013E0004B01882309F45EC010924B018FEF8B876D
:1013F0009E01255F3F4F290177247A9461ED7FE1BB
:10140000C2010E943C298C01892B09F44BC0D801F0
:1014100050968C9182FFF2CFF894F80184809580E9
:10142000A680B780F488108A148A78948085918584
:10143000A285B385881A990AAA0ABB0AD801FF2097
:1014400091F052968C91F801E80FF11D758A168A79
:10145000178A8D5FF801828B8E3208F095C0FA945E
:10146000D801F110EECF51968C91882309F428C24F
:10147000813009F40BC3823009F418C4D8015296A4
:101480008C9190E08E970CF4B9CF6B85C8010E94C7
:10149000022061ED7FE1C2010E943C298C01892B71
:1014A00009F0B5CF80914D01882309F4B9C010929D
:1014B0004D018FEF8C8714E7612E02E0702E83E2DE
:1014C000C82E9AE6D92E24E0822E30E4932E4AE3E9
:1014D000A42E58E0B52E68E771E2CE010C960E946A
:1014E0003C297C01892B09F49BC0F701868982FF86
:1014F000F2CF80FF59C0C7010E94AE3AD70156967D
:101500007C925697C9821A821C96ED91FC911D9788
:10151000A10162E080810E94FC16D9828A82D701F3
:101520001C96ED91FC911D97A10162E080810E94C3
:10153000FC16D9829A82D7011C96ED91FC911D97D9
:10154000A10162E080810E94FC16AB86D7011C9647
:10155000ED91FC911D97810121E0AE01455F5F4F48
:1015600061E080810E947216C982BA82D7011C96FE
:10157000ED91FC911D97A10162E080810E94FC1613
:10158000C7010E94DF22A7CF6B85C8010E940220FD
:10159000FA9466CF6B85C8010E948536F8CE6B85BC
:1015A000C8010E94461A63CE5C84F701848995893C
:1015B000C09708F4BEC26982D7011C96ED91FC91D8
:1015C0001D978701085E1F4F20E3A10161E0808124
:1015D0000E94721680E3F701878B84899589C097F2
:1015E000958B848B652DC7010E94FE22D7015496EE
:1015F0008D919C915597C09708F0EAC2F7018689B2
:1016000081FF69CFC7010E94AE3AD70156968C91EF
:1016100056978B7F56968C93C7010E94DF225BCF33
:10162000A89580917301882329F080E4809360005D
:101630001092730110913402112309F46DC00091CE
:101640002A0100FD12C0153008F466C0B090740184
:10165000CB2C8BEF8B0D8C3308F4C0C2EEE7CE168B
:1016600009F42DC4016000932A01412F50E06EE778
:1016700070E084E791E00E94733E009739F00E7F9E
:1016800000932A018457914011E0180F01FD0CC00E
:10169000902F926090932A018BE793E09F938F9312
:1016A0000E94DB330F900F90B12EDD24DA9480E09E
:1016B000EB2CF12C18C090E0402F50E0481B590B48
:1016C000B701680F791F6C587E4F8C589E4F0E944F
:1016D000893E10922601802F9FB7F8942091340202
:1016E000121761F09FBF10913402012F0B1919F7E7
:1016F0009FB7F894209134021213F4CF0093340270
:101700009FBFF1E0DF1208C08BE793E09F938F93B8
:101710000E94DB330F900F900E94612F6B017C01C0
:101720002B893C894D895E89621B730B840B950B59
:101730008090330190903401A0903501B090360133
:101740003FEF831A930AA30AB30A8092330190925F
:101750003401A0923501B092360140902F01509093
:1017600030016090310170903201460E571E681EA4
:10177000791E40922F015092300160923101709297
:1017800032016115710541E08407910508F0FEC141
:101790009B01AC010E94D63DDC01CB0181509F4FE3
:1017A000AF4FBF4F892F9A2FAB2FBB2740912B01F3
:1017B00050912C0160912D0170912E01840F951F85
:1017C000A61FB71F84179507A607B70718F48FEF52
:1017D0009FEFDC0180932B0190932C01A0932D01AE
:1017E000B0932E01409153015091540160915501E5
:1017F000709156015C546B437B4F2F2DC416D50658
:10180000E606270B27FDE4CBBF93AF939F938F93FF
:101810007F926F925F924F92BF92AF929F928F9200
:1018200087E494E09F938F930E94DB336DB77EB77C
:10183000625F7F4F0FB6F8947EBF0FBE6DBF809181
:10184000530190915401A0915501B0915601C816D1
:10185000D906EA06FB0698F480914F019091500159
:10186000A0915101B09152010196A11DB11D80932B
:101870004F0190935001A0935101B0935201C09237
:101880005301D0925401E0925501F092560110920A
:101890002B0110922C0110922D0110922E0110920A
:1018A0002F011092300110923101109232011092EA
:1018B000330110923401109235011092360188CB19
:1018C00082E389831A820E94612F6B017C0191015E
:1018D00042E061E0F801848595850E94BE130E9474
:1018E000612FDC01CB018C199D09AE09BF09813242
:1018F0009340A105B10508F0EFC0998197FD38C16B
:10190000C818D908EA08FB08D80153968C91882397
:10191000C1F02FEF280F41E050E002C0440F551FE7
:101920002A95E2F7052E000C660B770BC40ED51E28
:10193000E61EF71E04C0F694E794D794C7948A95E0
:10194000D2F7BFEFCB16D104E104F10408F074C163
:101950002A8130E0220F331F892F90E0982F8827AB
:10196000990F822B932BF8012289E20FF11DC58A72
:10197000868B978B2D5FD80152962C937FCDCB848D
:1019800081E089831A821B821C82910143E061E01D
:10199000848995890E94BE1369817A818B819C819B
:1019A0000E94083EBB27A92F982F872F9C01AD01CD
:1019B000442755272F87388B498B5A8B37E039833B
:1019C0001A82910142E061E0D50154968D919C917B
:1019D00055970E94BE138A81982F9C7F8F858170B6
:1019E000E92EE82A0F85188929893A89B401A301CB
:1019F000C5010E94EA1571CCCB8419821A821B8220
:101A00001C82910144E061E0F501848995890E947E
:101A1000BE1369817A818B819C810E94083EF62FDA
:101A2000F770EF2E8B019C01B401A301C5010E9448
:101A3000EA1553CC2B852F873CE039831A821B8211
:101A40001C82910144E061E0848995890E94BE1363
:101A500069817A818B819C810E94083E6B017C01A7
:101A6000BFE0B9831A82910142E061E0F501848907
:101A700095890E94BE13970186013327CF84EA809F
:101A8000B401A301C5010E94EA1527CC8FE7898321
:101A90008EEF8A830E94612F6F87788B898B9A8B58
:101AA000910142E060E0F801848595850E94BE13B3
:101AB0000E94612F6B017C01DC01CB012F853889ED
:101AC00049895A89821B930BA40BB50B8132934031
:101AD000A105B10508F4BDC0D80152968C91F8015A
:101AE000E80FF11D758A92E0968B178A8D5FF801D9
:101AF000828BC4CC318D308F7894AC01415F5F4FC5
:101B00005F934F931F922F93FC0187891F928F93AE
:101B100089811F928F931F930F930E94DB332DB700
:101B20003EB7265F3F4F0FB6F8943EBF0FBE2DBFA6
:101B3000E9CAB7016E5E7F4FF701848595850E94E3
:101B4000962FD70155969C938E935497C09708F47F
:101B500055CD31CD2D853E85E217F30709F0EAC05A
:101B6000809590E02A8530E08217930709F413C12D
:101B7000D80152968C91F801E80FF11D758A93E017
:101B8000B3CFCB8ADC8AED8AFE8A49CA611571051A
:101B900050E18507910508F01ACE8B019C01015098
:101BA0001F4F2F4F3F4F5527432F322F212F0E947A
:101BB000D63DDC01CB0140912B0150912C0160916D
:101BC0002D0170912E01840F951FA61FB71FFACD0E
:101BD0001092260181E080934D017DCCD09075015B
:101BE0008D2D807F803109F039CD1B1508F494CDFF
:101BF0008B2D90E0FC01ED58FE4F20812E3709F02F
:101C00002DCDFC01EF58FE4F4F01FC01EE58FE4F69
:101C10009081D4018C91292F30E07901F82A6DEF61
:101C20006B0D84E791E00E94772FE816F90609F41E
:101C300048C1C090740112CDF8018289E80FF11DEE
:101C4000758A91E0968B178A8D5FD80152968C9396
:101C500015CC80EC89831A82910142E061E0D801C1
:101C60001C968D919C911D970E94BE1349812A81DB
:101C7000942F9227892F82958F709827892F869588
:101C800086958927982F9695892780FD98C046FFCD
:101C9000A6C0F8018289E80FF11D758A25E0268B20
:101CA000178A8D5FD80152968C93E8CBD8011C9689
:101CB000ED91FC911D976480B281BF8723812F8BAA
:101CC00040E06B2F722F862D0E9496170E94612F85
:101CD0006B017C0130E1C30ED11CE11CF11C0E94A0
:101CE000612F2F2DC616D706E806290B27FFF7CF41
:101CF000F89441E06F857F89862D0E9496170E9497
:101D0000612F6B017C017894D101EAE01D92EA9584
:101D1000E9F7F4E8F98323E22A8391014AE061E0DC
:101D2000D8011C968D919C911D970E94BE13FE01B7
:101D3000339685E09191892728E030E005C0880F2F
:101D40002150310909F406CF87FFF9CF880FBDE193
:101D50008B27F6CF548965899089218932894389F7
:101D60008F5F858F78946F935F934F933F932F93FB
:101D70009F9389811F928F938AE194E09F938F9321
:101D80000E94DB33EDB7FEB73A960FB6F894FEBF6C
:101D90000FBEEDBF92C9898584FF18C08B8187FD76
:101DA00060C0D80152968C91F801E80FF11D758A38
:101DB000B4E0B68B178A8D5FF801828B5FCBF80198
:101DC0008289E80FF11D758A93E03CCFD8015296C5
:101DD0008C91F801E80FF11D758AB5E0EACFC818BB
:101DE000D908EA08FB08F80133893323C9F08FEFDB
:101DF000830F61E070E002C0660F771F8A95E2F7FB
:101E0000CB01092E000CAA0BBB0BC80ED91EEA1E73
:101E1000FB1E04C0F694E794D794C7943A95D2F782
:101E20007FEFC716D104E104F10408F03FC0842F0E
:101E300090E0AC01542F4427550F550FF4E02F9F2D
:101E4000C0011124842B952BD80152962C91F801B6
:101E5000E20FF11DC58A868B978B2D5FF801228BCF
:101E60000DCBC818D908EA08FB08F1E5CF16F5E54F
:101E7000DF06E104F104D0F42C8130E0220F331F9F
:101E800090E0982F8827990F822B932BD801529698
:101E90003C91F801E30FF11D2F8126952F73258BBF
:101EA000868B978B3D5FF801328BE8CAD80152963A
:101EB0008C91F801E80FF11D758A91E015CE11E0C3
:101EC000F3CB802F8D7F80932A0180910901D81256
:101ED000FFC081E08D0D8F70806180930901B6E7AE
:101EE0008B16B1E09B0609F008F4BEC0E6E7F1E00E
:101EF000B98ECDB6DEB68F010F5F1F4F2081222332
:101F000009F4E8C0EAE7F3E08491281708F0E2C09A
:101F100030E0220F331F220F331F220F331FF9012E
:101F2000ED50FF4FE4914DB75EB764E0E69F401976
:101F3000510911240FB6F8945EBF0FBE4DBF8DB787
:101F40009EB70196F901EB50FF4F4491F901EA5019
:101F5000FF4F65917491FB01640F711DAC01D88A2C
:101F6000CF86988F8F8BE617F70709F482C080160B
:101F7000910608F46EC0A491A53028F1A73009F0AD
:101F800068C02801BFEF4B1A5B0AD801AC908201F0
:101F90000A0D111D8016910608F45BC0B12CC12CEE
:101FA000D12CDA01AD92BD92CD92DC921397612CC7
:101FB000712C14964D925D926D927C921797485FAA
:101FC0005F4F3196D0CF7A0184E0E80EF11C6801B2
:101FD0009FEFC91AD90AD8011C91912F9F77492EDA
:101FE000512C612C712C012F00760036A9F117FFBE
:101FF0003EC086010F5F1F4FD80111978C91440C92
:10200000551C661C771C440C551C661C771C440C24
:10201000551C661C771C440C551C661C771C440C14
:10202000551C661C771C440C551C661C771C440C04
:10203000551C661C771C982F9F77492A87FDDACF9D
:10204000DA014D925D926D927C921397A7013196C1
:102050008ACF87E00E94653DB0EE4B2A55245A9402
:10206000652C762CC4CFB98CDD24D39420CB86018B
:10207000E7CFCF84D8888F89988D4091270144235A
:1020800031F0F901EC50FF4FE491E0FF11C028500E
:102090003F4FF90125913491F90109950FB6F89454
:1020A000DEBE0FBECDBE08151905E8F6F80121CF3A
:1020B000809128011F928F93E6E5F4E0FF93EF9360
:1020C0000E94DB330FB6F894DEBE0FBECDBEEBCF61
:1020D0001B2DE2CA85E00E94653DCF93DF93EC01A2
:1020E0006AE870E188810E948F29FC018C819D81C2
:1020F000AE81BF81892B8A2B8B2B51F420E0F89481
:1021000094A59D7F922B94A77894DF91CF91089509
:1021100022E0F5CF0F931F93CF93DF938C014DE215
:1021200050E06AE870E1FC0180810E946029EC01C6
:10213000F801848518160CF041C064E06CA7F80122
:1021400084810E940F2E6A8F7B8F8C8F60E0F80154
:1021500080850E940F2E6D8F7E8F8F8F80E090E0A4
:10216000A0E0B0EC88A399A3AAA3BBA3F80180893F
:102170009189A289B3898E8B9F8BA88FB98F6BE0D1
:1021800070E0CE0184960E94F1298E899F89A88DE6
:10219000B98D8997A105B10548F084E991E19B8348
:1021A0008A83DF91CF911F910F9108958CA5806153
:1021B0008CA7DF91CF911F910F91089560E0BECF62
:1021C000CF93DF93EC016AE870E188810E948F2948
:1021D000FC018C819D81AE81BF81F8944685578535
:1021E00060897189452B462B472B79F4848395832D
:1021F000A683B783828B938BA48BB58B84A5877FB3
:1022000084A77894DF91CF91089586E10E94653D7F
:102210000F931F93CF93DF938C016AE870E1DC0189
:102220008C910E948F29EC010E940B2AFC01D8019D
:1022300014964D915D916D917C91179742835383D4
:102240006483758318968D919C91199791878087E7
:10225000892B09F466C0D8011C968D919C911D971D
:10226000978386831286F8948CA5282F217081FB92
:10227000992790F9291729F091E089279285916093
:1022800092874E855F8568897989452B462B472B38
:1022900059F583FD19C08CA7118210828CA19DA1D4
:1022A000892BA9F1AEA1BFA1ED93FC93FFA3EEA3EF
:1022B000CE010E940733CE010E94003B7894DF914B
:1022C000CF911F910F9108958091470190914801FE
:1022D00091838083F0934801E09347017894DF91E4
:1022E000CF911F910F9108958CA7118210828CA11C
:1022F0009DA1892B89F0AEA1BFA1ED93FC93FFA313
:10230000EEA37894DF91CF911F910F910895FFA3D1
:10231000EEA3FDA3ECA3CCCFFFA3EEA3FDA3ECA300
:10232000CDCF87E10E94653DCF92DF92EF92FF9281
:102330000F931F93CF93DF93EC01EA8DFB8D8C8D70
:1023400080830E94612F0E891F89288D398D6B0132
:102350007C01C00ED11EE21EF31E8E859F85A889CA
:10236000B9890197A109B1098E879F87A88BB98B7D
:1023700080FF0EC0CC82DD82EE82FF8281E0DF91A1
:10238000CF911F910F91FF90EF90DF90CF90089524
:10239000892B8A2B8B2B59F1488559856A857B853A
:1023A0008A899B89AC89BD89840F951FA61FB71F99
:1023B0008A8B9B8BAC8BBD8B0C851D85012E000CF5
:1023C000220B330B400F511F621F731F4887598721
:1023D0006A877B872B2F8C159D05AE052F0927FD5E
:1023E000C9CF8C839D83AE83BF8381E0C8CFCE01EC
:1023F0000E940733811102C080E0C1CF4C815D8112
:102400006E817F81972F4C155D056E059F0997FFA3
:10241000B6CF4C195D096E097F094038514C6F4F9A
:102420007F4F0CF0A7CF88E10E94653D0F931F936B
:10243000CF93DF938C0180913F0190914001892BD4
:1024400009F04BC060913E0170E0623071052CF4E0
:1024500082E080933E0162E070E0E0913A01F09109
:102460003B014DB75EB741505F4F44275A959F01DE
:10247000C0E0D0E0C901860F971F4817590730F117
:1024800021969C01C115A4E0DA07A1F78E1B9F0BD2
:102490000E94B833D0934001C0933F0190933D0117
:1024A00080933C010E94A729F80180819181A2813B
:1024B000B3818093410190934201A0934301B09373
:1024C0004401DF91CF911F910F910895209711F052
:1024D000C901DCCF80E10E94653D8DE00E94653D31
:1024E000CF932091380130913901232B91F4FC01D5
:1024F000C0818C2F90E0880F991F880F991F0E9430
:10250000B8339093390180933801C0933701CF914C
:1025100008958AE00E94653D80913F0190914001BD
:102520009F938F9321E030912701311101C020E06A
:102530001F922F93209144012F93209143012F93B9
:10254000209142012F93209141012F9321E0892B6B
:1025500009F420E01F922F9388E394E09F938F93D8
:102560000E94DB338DB79EB70C960FB6F8949EBFD2
:102570000FBE8DBF089546E050E06DEE72E1FC01A4
:1025800080810C946029CF92DF92FF920F931F936A
:10259000CF93DF93EC016DEE72E18C810E948F2965
:1025A0006C01F8840F2D10E0A8014D5F5F4F63ECC4
:1025B00072E188810E946029FC01D182C082F2828E
:1025C0006C857D85A8010396DF91CF911F910F91B6
:1025D000FF90DF90CF900C94803EFF920F931F935B
:1025E000CF93DF938C0146E050E06DEE72E1FC0189
:1025F00080810E946029EC01F801F08461E0F11013
:1026000060E0F80184810E940F2E6A837B838C83B3
:102610008D81F11009C091E0892B8D83DF91CF91DD
:102620001F910F91FF90089599E0892B8D83DF9181
:10263000CF911F910F91FF9008958BE10E94653D0E
:102640008F929F92AF92BF92FF920F931F93CF935F
:10265000DF93EC016DEE72E188810E948F298C017D
:10266000F88483E08F1508F484C0F80185818670B2
:1026700009F07FC08C849D84AE84BF848C819D8151
:10268000AE81BF81892B8A2B8B2B09F074C0E2E6C7
:10269000F4E0A591B49111968C9184FD04C060E0A2
:1026A0008CE00E940F2E60E08FE00E940F2E60E011
:1026B0008DE00E940F2E60E08EE00E945D1780E5A5
:1026C0008CBD1DBC8114F2E19F06FAE7AF06B10490
:1026D00008F041C0811489E098068DE3A806B10492
:1026E00018F5E0E88E16E4E89E06EEE1AE06B104C9
:1026F000C0F5F0E48F16F2E49F06FFE0AF06B104E8
:1027000068F580E2881681EA980687E0A806B10499
:1027100058F590E0E0E98E16E0ED9E06E3E0AE06A7
:10272000B10428F583E002C090E080E0CF2DCC0F0B
:10273000CC0FC065C82BF801C0839183858184606C
:102740008583DF91CF911F910F91FF90BF90AF9044
:102750009F908F90089591E080E0E8CF90E081E035
:10276000E5CF91E081E0E2CF91E082E0DFCF82E04F
:10277000DDCF0E941D138EE20E94653D6F927F9215
:102780008F929F92AF92BF92CF92DF92EF92FF9281
:102790000F931F93CF93DF934C01E62E142F690103
:1027A000DC0115967C901597872D867009F451C031
:1027B00071FC39C0F401908181819CBD8DBDF72DE4
:1027C000F1706F2E70FCC8C0EE2009F49CC08FEF32
:1027D000810F112351F0F60190819EBD0DB407FECB
:1027E000FDCF9EB591938150B8F7662091F1072DEA
:1027F000069506950695402F40954170D401129696
:102800006D917D918C91DF91CF911F910F91FF90F0
:10281000EF90DF90CF90BF90AF909F908F907F9080
:102820006F900C949617ED91FC91418542706681F2
:10283000778180850E949617B72DB1706B2E70FC42
:1028400017C0D401CD91DC91AA24AA94A10E111134
:1028500026C0DF91CF911F910F91FF90EF90DF90F5
:10286000CF90BF90AF909F908F907F906F90089582
:10287000072D069506950695402F4170F40162815B
:10288000738184810E949617D401CD91DC91AA2492
:10289000AA94A10E112309F4AECF66246394B12C3F
:1028A0008FEFA81AB80AAC0CBD1CD601FC9008E04A
:1028B00010E0898580FF35C0EE81FF8188858083A7
:1028C0004F2D40786B817C818D810E949617FF0C83
:1028D000EE81FF8188858083110FE881F9819081E5
:1028E0008A81892391E009F490E0192B015009F7BE
:1028F000EE2011F0F6011083FFEFCF1ADF0AAC14BF
:10290000BD0499F672CFF6019601210F311D2E17E5
:102910003F0709F46ACF81918EBD0DB407FEFDCF4C
:10292000F6CF4F2D40786B817C818D810E94961768
:10293000FF0CEE81FF8188858083110FE881F9818A
:1029400090818A81892391E009F490E0192BEE812E
:10295000FF8188858083CACF73FA442740F9F40148
:102960006281738184810E949617662463942CCFC0
:10297000CF93DF93EC016DEE72E188810E948F2985
:10298000288539854C8160E0DF91CF910C94BE138E
:10299000FF920F931F93CF93DF93EC0118816DEE9D
:1029A00072E1812F0E948F290C81F884C9852F2D17
:1029B0003C2F402F61E00E94BE13CF93FF921F92E5
:1029C0000F931F921F9385E194E09F938F930E9432
:1029D000DB338DB79EB708960FB6F8949EBF0FBE37
:1029E0008DBFDF91CF911F910F91FF900895FC0152
:1029F00092899460928B1092260181E080935B0112
:102A000080E00895FC011092260181E08093450149
:102A1000818D8160818F4481558166817781808538
:102A20009185A285B385840F951FA61FB71F848348
:102A30009583A683B78381E008950F931F93CF9367
:102A4000DF938C016FE575E1FC0180810E948F2985
:102A5000EC010E94AE3AF80184819581A681B7818C
:102A60008C839D83AE83BF8380859185A285B3854A
:102A700088879987AA87BB87892B8A2B8B2B29F478
:102A8000DF91CF911F910F91089584859585A6853B
:102A9000B7858C879D87AE87BF8780899189A289FA
:102AA000B389888B998BAA8BBB8B84898E8B1F8A69
:102AB000CE01DF91CF911F910F910C94003BFF92BB
:102AC0000F931F93CF93DF93EC01F88483E08F156E
:102AD000E0F04AE150E06FE575E188810E946029ED
:102AE0008C0182E095E1F801938382836DEE72E1BF
:102AF0008C810E948F29F801958B848BF08EDF9159
:102B0000CF911F910F91FF90089587E20E94653D3C
:102B10008F929F92AF92BF92EF92FF920F931F936B
:102B2000CF93DF9300D0CDB7DEB77C0166E379E1C8
:102B3000FC0180810E948F298C018FEA89831A828F
:102B40000E94612F4B015C019E012F5F3F4F42E0CD
:102B500061E0F801848595850E94BE130E94612F73
:102B6000F80121892F9320892F932A812F711F9299
:102B70002F9323891F922F9327852F9326852F9399
:102B8000DC01CB0188199909AA09BB09BF93AF934E
:102B90009F938F93BF92AF929F928F92F701808104
:102BA0001F928F9387EF93E09F938F930E94DB3365
:102BB0000FB6F894DEBF0FBECDBF0F900F90DF9120
:102BC000CF911F910F91FF90EF90BF90AF909F908A
:102BD0008F9008958F929F92AF92BF92CF92EF9273
:102BE0000F931F93CF93DF93EC01480159011F927C
:102BF000EF92BF92AF929F920F937F936F935F93E9
:102C00004F931F92CF928DEE93E09F938F930E94EC
:102C1000DB338DB79EB70E960FB6F8949EBF0FBEEE
:102C20008DBFE11009C08C859D85AE85BF85881656
:102C30009906AA06BB0688F48F898F5F8F8B9E89C1
:102C40008917B0F4DF91CF911F910F91EF90CF9042
:102C5000BF90AF909F908F90089588899989AA8995
:102C6000BB8988159905AA05BB0530F31F8AEACFF1
:102C7000809127018111FACF86E20E94653DCF92B3
:102C8000DF92EF92FF926B017C0109C00E94612FDD
:102C9000292F6C157D058E052F0927FF09C080910E
:102CA000BC0087FFF3CFFF90EF90DF90CF900895A7
:102CB00080E30E94653D24EA2093BC000E943F16F9
:102CC0008091B90090E0A0E0B0E080319105A105CD
:102CD000B10521F00897A105B10509F408958FE227
:102CE0000E94653D7F928F929F92AF92BF92CF924A
:102CF000DF92EF92FF920F931F93CF93DF93782E83
:102D0000C62F942EB52E822E0E94612F6B017C015E
:102D100020E8C20E28E3D21E21E0E21EF11CC7010A
:102D2000B6010E945B167092BB0084E88093BC00E1
:102D3000C701B6010E943F16AA24AA94AC0ECC2368
:102D4000B1F0C92DDB2DB12C8FEFA81AB80AAC0E4B
:102D5000BD1E94E8992E89918093BB009092BC008F
:102D6000C701B6010E943F16AC16BD06A1F7C70108
:102D7000B6010E945B16872D81608093BB0084E8BA
:102D80008093BC00C701B6010E943F16DFEFD80D4B
:102D9000882009F15801CD2F84EC982ECC2369F0BE
:102DA0009092BC00C701B6010E943F168091BB0003
:102DB000F50181935F01C15099F7F801ED0FF11D05
:102DC000EF0184E88093BC00C701B6010E943F1662
:102DD0008091BB00888384E98093BC00DF91CF9110
:102DE0001F910F91FF90EF90DF90CF90BF90AF9029
:102DF0009F908F907F900895BF92CF92DF92EF9235
:102E0000FF920F931F93CF93DF93D82FC62FB42E2B
:102E1000152F0E94612F6B017C0120E8C20E28E370
:102E2000D21E21E0E21EF11CC701B6010E945B1612
:102E3000D093BB0084E88093BC00C701B6010E9418
:102E40003F160FEF0C0FCC23A9F0CB2DD12F10E0A4
:102E50000F5F1F4F0C0F1D1F84E8B82E89918093C0
:102E6000BB00B092BC00C701B6010E943F16C0175C
:102E7000D107A1F784E98093BC00DF91CF911F9126
:102E80000F91FF90EF90DF90CF90BF900895FB01DE
:102E90002FB7F8949281141644F4982B809592835E
:102EA0009181892381832FBF0895809598239283F0
:102EB0009181892381832FBF08958032A0F567FD1A
:102EC00032C0E82FE695E695E695F0E0EE0FFF1F9D
:102ED000E05AFB4FA591B491109729F1877021E03A
:102EE00030E0A90102C0440F551F8A95E2F7CA01DC
:102EF0004FB7F89412963C911297662381F0382BC5
:102F0000282F209512963C93129711963C91119779
:102F1000232311962C9311974FBFBD010895282F9D
:102F200020953223EFCF8BE20E94653DFB012FB746
:102F3000F8949281411105C08095892382832FBF27
:102F40000895892B82832FBF0895FB012FB7F89432
:102F50009281411109C0382F30959323928391813A
:102F6000892B81832FBF0895982B92839181892B80
:102F700081832FBF0895CF92DF92EF92CF93DF939B
:102F8000EC0161E088859985AA85BB85892B8A2B10
:102F90008B2B09F460E08C810E940F2E6B01E82ED0
:102FA00044E250E06BEB77E188810E946029FC01EC
:102FB000C48AD58AE68A21E0488559856A857B8559
:102FC000452B462B472B09F420E04C855D856E850B
:102FD0007F85452B462B472BB1F430E0232BFC019A
:102FE00023A3488959896A897B89478B508F618FD0
:102FF000728F6AE070E04F96DF91CF91EF90DF9093
:10300000CF900C94F12930E1E9CFCF93DF93EC011D
:103010006BEB77E188810E948F29F894FC01278D62
:1030200030A1232B69F44C815D816E817F81FC018D
:10303000438F548F658F768F7894DF91CF91089569
:1030400084E10E94653D8F929F92AF92BF92CF9292
:10305000DF92EF92FF921F93CF93DF93EC01EF8CFF
:10306000F8A0E114F10409F4F0C0F7018081918126
:1030700098A38F8F86809780A084B18411E08114FB
:103080009104A104B10409F4A1C06C897D898E89E1
:10309000412F0E9496178091470190914801F701B6
:1030A00091838083F0924801E0924701811491045A
:1030B000A104B104E9F08B8D9C8DAD8DBE8D881679
:1030C0009906AA06BB06A0F44F89588D698D7A8DA2
:1030D000411551056105710509F45BC08C819D8125
:1030E000AE81BF81480F591F6A1F7B1F166022C027
:1030F0008BA131E081149104A104B10409F068C0EE
:1031000084FB992790F921E09227391709F443C0ED
:103110004F89588D698D7A8D41155105610571056D
:10312000D1F18C819D81AE81BF81480F591F6A1FEB
:103130007B1F1460EF8DF8A1309709F077C02BA1A9
:10314000488B598B6A8B7B8B2071212B2BA311FF12
:103150005FC0880D991DAA1DBB1D12FD52C029EF2D
:103160003CE23B832A838C839D83AE83BF83888626
:103170009986AA86BB868B8D9C8DAD8DBE8D881958
:103180009909AA09BB098C879D87AE87BF8781E013
:1031900011C012608BA1EF8DF8A13097D9F4188A75
:1031A000198A1A8A1B8A8071812B8BA3812F8270C6
:1031B00011FD34C0DF91CF911F91FF90EF90DF9010
:1031C000CF90BF90AF909F908F90089510E05DCF0B
:1031D00030E096CF4281538164817581488B598B51
:1031E0006A8B7B8B8071912F9460892B8BA311FF4D
:1031F0000FC08C819D81AE81BF81880D991DAA1D54
:10320000BB1D2B2F84179507A607270B27FDA7CFDC
:103210004C835D836E837F8381E0CCCF40E050E0C0
:10322000BA018C819D81AE81BF8193CFC280D38052
:10323000E480F580872F4C155D056E058F0987FDAD
:1032400007C08BA1B701A601C9CF85E10E94653DEA
:1032500083E10E94653DFC0192899460928B1092FB
:10326000260181E08093460180E008950F931F932B
:10327000CF93DF938C0145E450E066E379E1FC01F4
:1032800080810E946029EC018BE299E19B838A8313
:103290006DEE72E1F80184810E948F299D878C87F1
:1032A000DF91CF911F910F910895CF93DF93EC01A0
:1032B00045969F938F938B891F928F938F858F93C2
:1032C0008E858F931F926F9382EF93E09F938F93DE
:1032D0000E94DB331B8A8E859F8501969F878E8790
:1032E0008DB79EB70A960FB6F8949EBF0FBE8DBFDE
:1032F000DF91CF910895CF93DF93EC016B817C81B7
:103300008D8140E00E94A5178D859E850E94E3393E
:103310006E817F81888541E00E9447178D859E855B
:103320000E94E33969857A858B8541E0DF91CF91F1
:103330000C9447170F931F93CF93DF93EC01062F45
:1033400018E01DC06B817C818D8140E00E94A51733
:10335000000F8D859E850E94E3396E817F8188856F
:1033600041E00E9447178D859E850E94E339688160
:1033700079818A8140E00E94A517115049F007FF2A
:10338000E1CF69857A858B8541E00E944717E0CFC0
:1033900069857A858B8541E00E9447178D859E85DA
:1033A0000E94E3396E817F81888541E00E94471742
:1033B000E985FA8510818B8518238D859E850E946D
:1033C000E339688179818A8140E00E94A517698587
:1033D0007A858B8541E00E944717111105C0DF9166
:1033E000CF911F910F91089585E20E94653D1F9333
:1033F000CF93DF93EC01162F8D859E850E94E339D4
:1034000069857A858B8541E00E9447176E817F81AF
:10341000888541E00E9447178D859E850E94E3398B
:103420006B817C818D8140E00E94A5178D859E85F2
:103430000E94E339688179818A8140E00E94A51762
:10344000612FCE01DF91CF911F910C949A190F93A8
:103450001F93CF93DF93EC01F8940E94612F0885AE
:1034600019852A853B85DC01CB01800F911FA21FA6
:10347000B31F8C839D83AE83BF83CE010E94003B2C
:103480007894DF91CF911F910F9108959F92AF9201
:10349000BF92CF92DF92EF92FF920F931F93CF9341
:1034A000DF93CDB7DEB729970FB6F894DEBF0FBE16
:1034B000CDBF8C01962E9E012F5F3F4F87E0F90113
:1034C00011928A95E9F78FEA8887198688EA8983B5
:1034D000F801C388D12C7601F5E1EF0EF11CE00E66
:1034E000F11E47E061E0F801848595850E94BE13D6
:1034F0009E01285F3F4F42E061E0F8018485958599
:103500000E94BE138985F82FFF73AF2E8074B82EEA
:10351000F801EC0DFD1D8A81858B8B81F70181837C
:103520008C8182838D8183838E8184838F81858347
:10353000F80183898A5F838B8B3270F5BB2031F071
:10354000F801808991890196918B808BA11004C02C
:10355000F8018489882329F1F801828981FF0AC052
:10356000C8010E94AE3AF80182898B7F828BC80124
:103570000E94271A29960FB6F894DEBF0FBECDBF62
:10358000DF91CF911F910F91FF90EF90DF90CF903F
:10359000BF90AF909F900895692DC8010E94551962
:1035A000CDCF1092260181E080934601E3CF4F9268
:1035B0005F926F927F928F929F92AF92BF92DF92B3
:1035C000EF92FF920F931F93CF93DF9300D000D021
:1035D000CDB7DEB77C01FC01D08066E379E18D2DAB
:1035E0000E948F298C01F70180859185A285B38582
:1035F000892B8A2B8B2BB1F1C8010E94AE3AF701BF
:1036000084819581A681B781F80184839583A683FF
:10361000B783F70180859185A285B385F8018087FE
:103620009187A287B38781E0828B118A108A1786DF
:103630001686138A148AC8010E94003B0F900F90CF
:103640000F900F90DF91CF911F910F91FF90EF900E
:10365000DF90BF90AF909F908F907F906F905F9022
:103660004F900895C8010E94AE3AF801128A81E095
:10367000848B6D2DC8010E94461A8EE28B831C82BA
:103680000E94612F2B013C019E012D5F3F4F42E0C4
:1036900060E0F801848595850E94BE130E94612F29
:1036A0004B015C018FEA89831A829E012F5F3F4F95
:1036B00042E061E0F801848595850E94BE138A810D
:1036C0008F71F82EF8018389882331F06D2DC801A0
:1036D0000E945519F8018389F80191899F93908977
:1036E0009F931F92FF921F928F9387858F9386855A
:1036F0008F93D501C40184199509A609B709BF9311
:10370000AF939F938F937F926F925F924F921F928E
:10371000DF9287EF93E09F938F930E94DB330FB686
:10372000F894DEBF0FBECDBF89CF9F92AF92BF92FC
:10373000CF92DF92EF92FF920F931F93CF93DF937D
:10374000EC01C62E942ED52EB22E78016C85862FD4
:103750008160A82EC11085C06A2DCE010E94F71984
:103760008FEF8B0DBB2009F46EC06701C80ED11C12
:1037700069857A858B8541E00E94471708E010E053
:103780008D859E850E94E3396E817F81888541E029
:103790000E9447178D859E850E94E339110FE985A8
:1037A000FA8590818B85892391E009F490E0192BAB
:1037B000688179818A8140E00E94A517015001F754
:1037C00069857A858B8541E00E944717CE14DF0416
:1037D000F1F06B817C818D8140E00E94A5178D8581
:1037E0009E850E94E3396E817F81888541E00E9439
:1037F00047178D859E850E94E339688179818A818A
:1038000040E00E94A517F70111937F01B1CF6985B0
:103810007A858B8541E00E9447178D859E850E94A1
:10382000E3396E817F81888541E00E9447178D854D
:103830009E850E94E339688179818A8140E00E94F7
:10384000A517F6011083CE01DF91CF911F910F9143
:10385000FF90EF90DF90CF90BF90AF909F900C942F
:103860007B19CE010E94F719092D1D2DCA94D12C68
:10387000EFEFCE1ADE0AC00ED11EF80161918F0162
:10388000CE010E949A19C016D106B9F765CFDF9212
:10389000EF92FF920F931F93CF93DF937C01C62F7C
:1038A000D42E152FFC0164850E94F7190FEF0C0F21
:1038B000CC2371F0CD2DD12F10E00F5F1F4F0C0FD7
:1038C0001D1F6991C7010E949A19C017D107C9F736
:1038D000C701DF91CF911F910F91FF90EF90DF9083
:1038E0000C947B198EE10E94653D0F931F93CF933B
:1038F000DF93FC01A189B2898D919C911197928BE4
:10390000818B16968D919C911797C085D1852285C4
:1039100021113FC02FB7F894AC0155275983488334
:103920002FBF209147013091480111963C932E936F
:10393000B0934801A0934701A189B289109759F526
:10394000278530898217930741F083859485A58563
:10395000B6850097A105B10531F480E0DF91CF91E4
:103960001F910F9108954481558166817781840F5D
:10397000951FA61FB71F84839583A683B78382E70D
:103980009CE19383828381E0DF91CF911F910F911E
:1039900008958883C6CF12964D915D916D917C916B
:1039A0001597278530898217930741F08385948581
:1039B000A585B6850097A105B10551F444835583CB
:1039C0006683778381E0DF91CF911F910F910895F6
:1039D0000481158126813781800F911FA21FB31F9B
:1039E0002B2F84179507A607270B27FFE7CF8DE11D
:1039F0000E94653DEF92FF920F931F93CF93DF9349
:103A00007C0164E77DE1DC018C910E948F298C01AF
:103A10000E940B2AEC01F70184819581A681B78170
:103A20008A839B83AC83BD83808591859F838E83AE
:103A3000F89419821882D80151968D919C915297D1
:103A4000892BB9F15396ED91FC915497D183C083A2
:103A50005496DC93CE93539780E090E07894892B32
:103A600039F4DF91CF911F910F91FF90EF9008955E
:103A7000C8010E94AE3AD80112968D919C9113977D
:103A800082579C41F1F08A819B81AC81BD8125E701
:103A90003CE1F8013383228384839583A683B78333
:103AA000C801DF91CF911F910F91FF90EF900C947F
:103AB000003BF801D48BC38BD28BC18B81E090E0AB
:103AC000CDCF8A819B81AC81BD81F8014481558134
:103AD00066817781272F481759076A072B0B27FF25
:103AE000D6CF8DE10E94653DCF92DF92EF92CF93CA
:103AF000DF93EC01488559856A857B852C858C810F
:103B00000E942C2C6B01E82E45E150E064E77DE13A
:103B100088810E946029FC01C086D186E28688895E
:103B20009989908B87878C899D89AE89BF89838786
:103B30009487A587B68785E79CE19383828368E0B5
:103B400070E0CF014196DF91CF91EF90DF90CF9061
:103B50000C94F1290F931F93CF93DF938C0169E3AA
:103B60007EE1FC0180810E948F29EC010E94AE3A27
:103B7000909100018A8D981303C08FEF809300010C
:103B8000F80184819581A681B781888B998BAA8B56
:103B9000BB8B8C839D83AE83BF8380859185A285FB
:103BA000B3858C879D87AE87BF8784858E8F91E094
:103BB000980F9D8F408951896289738948875987F9
:103BC0006A877B87248935893F8B2E8B208D318DA9
:103BD000398F288F948D9C8F811105C0DF91CF91F3
:103BE0001F910F910895CE01DF91CF911F910F91F9
:103BF0000C94003BEF92FF920F931F93CF93DF93B0
:103C00008C0167E27EE1FC0180810E948F29EC013A
:103C1000F8948E8980FF13C07E01F8E0EF0EF11C4E
:103C2000C7010E94AE3AF80184819581A681B781CF
:103C30008C879D87AE87BF87C7010E94003B789421
:103C4000DF91CF911F910F91FF90EF90089549E17F
:103C500050E067E27EE1FC0180810E94602925E15D
:103C600037E2FC013383228320E337E23387228764
:103C70000895CF93DF93DC0114969C911497C0E0D4
:103C8000D0E0FE01E058FC4FE4919E1739F02196F8
:103C9000C830D105B1F78DE20E94653D87E9809378
:103CA0007A0030917E0081E090E00C2E01C0880FF8
:103CB0000A94EAF7832B80937E004FE150E069E39A
:103CC0007EE18C910E946029FC018FE69EE1938346
:103CD0008283C28F81E0858FDF91CF910895FC01AF
:103CE00080917A0086FF0EC084819581A681B7817C
:103CF0008853984FAF4FBF4F84839583A683B78374
:103D000081E00895828D90910001981761F09F3FA6
:103D100059F7809300018770806480937C0087ED61
:103D200080937A00E1CF8FEF80930001209178009B
:103D300030917900858D968D891780F54489558954
:103D4000240F351F8F5F358B248B858F891760F18A
:103D50008689978928173907C8F1808D918D821738
:103D60009307A0F1138E1092260181E080934A01FF
:103D7000408951896289738980859185A285B3853F
:103D8000840F951FA61FB71F808B918BA28BB38BBF
:103D900084839583A683B78381E0089581E0358B82
:103DA000248B858F8917A0F64481558166817781A0
:103DB00084859585A685B785840F951FA61FB71F97
:103DC00084839583A683B78381E00895838D8F5F75
:103DD000838F948D891738F2809127018111C2CF8A
:103DE0008AE10E94653D1F93CF93DF93EC01162F6C
:103DF000AC89BD891097B9F01296ED91FC9113979B
:103E00008D919C9111979D8B8C8B11961C921E927B
:103E100013961C921E921297612FCD010995AC89C1
:103E2000BD89109749F71092260181E080934901DE
:103E3000DF91CF911F910895EF92FF921F93CF933F
:103E4000DF937C01FC01108167E27EE1812F0E94FB
:103E50008F29EC01F8948E8980FF09C0F7016481F5
:103E60006F8B8A7F84608E8BCE010E94F31ECE0101
:103E70000E94AE3ACE0108960E94AE3A1E8A8F8901
:103E800078941F921F921F921F921F928F931F92DE
:103E90001F921F921F938FE194E09F938F930E9434
:103EA000DB338DB79EB70C960FB6F8949EBF0FBE4E
:103EB0008DBFDF91CF911F91FF90EF900895CF9329
:103EC000DF93EC010E94AE3ACE0108960E94AE3A12
:103ED000EC89FD89309751F09081818113821282A3
:103EE00011821082E92FF82F3097B1F71D8A1C8AB2
:103EF000188E1F8A1E8ADF91CF9108950F931F930A
:103F0000CF93DF938C0167E27EE1FC0180810E9408
:103F10008F29EC01F8940E945F1F81E08E8BF801DD
:103F200084819581A681B7818C839D83AE83BF8375
:103F300080859185A285B385888B998BAA8BBB8B55
:103F4000892B8A2B8B2B19F0CE010E94003BF801A4
:103F50008485888F7894DF91CF911F910F91089578
:103F6000FC01808982FD19C08460808B109226013B
:103F700081E080934B014481558166817781808502
:103F80009185A285B385840F951FA61FB71F8483D3
:103F90009583A683B78381E0089584898F5F848B9E
:103FA000E5CFFF920F931F93CF93DF93EC01F8843B
:103FB00083E08F1508F145E450E061ED7FE18881F1
:103FC0000E9460298C0180EB9FE1F801938382833A
:103FD0006DEE72E18C810E948F29F80195878487AC
:103FE000FC01858180FF0BC0F801F18ADF91CF9140
:103FF0001F910F91FF90089589E20E94653D88E22C
:104000000E94653DCF93DF93EC0145969F938F937C
:104010008A891F928F938F858F938E858F931F929E
:104020006F9384ED93E09F938F930E94DB331A8A02
:104030008E859F8501969F878E878DB79EB70A963E
:104040000FB6F8949EBF0FBE8DBFDF91CF9108953C
:10405000FF920F931F93CF93DF938C01FC01F080AD
:1040600061ED7FE18F2D0E948F29EC010E94AE3A15
:10407000188AF80180859185A285B385892B8A2BC2
:104080008B2B01F58A89811118C08F858F938E85BE
:104090008F931F92FF9289ED93E09F938F930E94DD
:1040A000DB330F900F900F900F900F900F90DF91D8
:1040B000CF911F910F91FF9008956F2DCE010E9417
:1040C0000220E3CFF80184819581A681B7818C839A
:1040D0009D83AE83BF8380859185A285B3858887C4
:1040E0009987AA87BB871F861E861A8A84858B8B31
:1040F000CE01DF91CF911F910F91FF900C94003B67
:10410000CF93DF93EC016A8D662309F453C0FC0161
:1041100050E031E020E0A38DB48D4C91958D942337
:1041200009F0532B2F5F330F33962613F4CF2C85D2
:10413000922F952729F08D85852780959823D9F48E
:10414000888D5D8787FD03C0815070F1888F4C8119
:104150005D816E817F8188859985AA85BB85840F65
:10416000951FA61FB71F8C839D83AE83BF8381E0FD
:10417000DF91CF910895982F909529238523822B45
:104180008C879E859830E0F621E0290F2E87FE016E
:10419000E90FF11D87871092260181E080934C0181
:1041A0008FEF888F5D87D3CF1092260191E0909397
:1041B0004C01CCCF50E0BBCF0F931F93CF93DF9335
:1041C0008C0169E171E2FC0180810E948F29EC0180
:1041D0000E94AE3AF80184819581A681B7818C83D3
:1041E0009D83AE83BF8340855185628573854887F3
:1041F00059876A877B8780898D878C871E861F8A6F
:104200008EEF888F8485898F87FD10C0452B462BC4
:10421000472B29F4DF91CF911F910F910895CE0183
:10422000DF91CF911F910F910C94003B8FE10E9481
:10423000653DCF93FC01C481C930B8F44C2F50E0E8
:104240009A01220F331F420F531F455E5F4F69E1F2
:1042500071E2FC0180810E946029FC01C28F20E88C
:1042600030E233832283CF91089581E20E94653D3D
:104270000F931F93CF93DF938C0169E171E2DC010F
:104280008C910E948F29FC01D80114969C91828DFB
:104290009817B8F4292F30E0E901CC0FDD1F2C0F5F
:1042A0003D1FEF01C20FD31FF801648580850E9476
:1042B0005D176B8F7C8F8D8FDF91CF911F910F9149
:1042C000089580E20E94653DFC014481558166812C
:1042D0007781208580810C942C2CFC019689946038
:1042E000968B1092260181E080934D0180E0089525
:1042F0000F931F93CF93DF938C0148E450E068E75E
:1043000071E2FC0180810E946029EC018DE691E25E
:104310009B838A8361E77BE2F80184810E948F2975
:104320009D878C87DF91CF911F910F9108954F92B8
:104330005F926F927F928F929F92AF92BF92CF9235
:10434000DF92EF92FF920F931F93CF93DF9300D0F2
:1043500000D01F92CDB7DEB76C0168E771E2DC01D7
:104360008C910E948F297C018AE38B83D7011C9654
:10437000ED91FC911D978E010C5F1F4F21E0AE0166
:104380004D5F5F4F61E080810E9472168C8184FFD7
:1043900006C0F701808991890196918B808B82E715
:1043A0008D830E94612F4B015C01D7011C96ED911A
:1043B000FC911D978E010F5F1F4F22E0AE014B5FF6
:1043C0005F4F61E080810E9472160E94612F2B0175
:1043D0003C01F70181898F9380898F9329812F7107
:1043E00030E0322F22278A81282BABEABAEA0E94DA
:1043F0000F3E96958795969587959F938F9387897E
:104400001F928F9387858F9386858F9348185908BD
:104410006A087B087F926F925F924F92BF92AF9231
:104420009F928F92D6018C911F928F938FEC93E085
:104430009F938F930E94DB330FB6F894DEBF0FBEBD
:10444000CDBF0F900F900F900F900F90DF91CF91F5
:104450001F910F91FF90EF90DF90CF90BF90AF90A2
:104460009F908F907F906F905F904F9008957F9274
:104470008F929F92AF92BF92CF92DF92EF92FF9274
:104480000F931F93CF93DF937C01DC01DC9161EDEF
:104490007FE18D2F0E948F298C01F701C481B084A8
:1044A000A184DC0151969C90B2E09B1609F44FC0A8
:1044B0000E94612F6B017C012B2D3A2D4C2F61E066
:1044C000D8011C968D919C911D970E94BE130E944D
:1044D000612F8B019C010C191D092E093F09013226
:1044E00013402105310558F54C2F50E0E1E09E16B0
:1044F00059F1AF92BF925F934F93FF92EF92DF9289
:10450000CF921F92DF938EED93E09F938F930E9443
:10451000DB338DB79EB70C960FB6F8949EBF0FBED7
:104520008DBFDF91CF911F910F91FF90EF90DF90A2
:10453000CF90BF90AF909F908F907F90089540E074
:1045400050E0E1E09E12D5CF6B017C01D2CFDC01BF
:104550001C96ED91FC911D9794808280738040E0C1
:10456000682D772D892D0E9496170E94612F6B016F
:104570007C01B0E1CB0ED11CE11CF11C0E94612F2B
:104580002F2DC616D706E806290B27FFF7CFF8947C
:1045900041E0682D772D892D0E9496170E94612F8A
:1045A0006B017C0178942B2D3A2D4C2F61E0F801A2
:1045B000848595850E94BE134C2F50E09ACF0F93AF
:1045C0001F93CF93DF93EC01F8940E94612F08852D
:1045D00019852A853B85DC01CB01800F911FA21F25
:1045E000B31F8C839D83AE83BF83CE010E94003BAB
:1045F0007894DF91CF911F910F910895CF93DF931E
:10460000EC0148969F938F938F891F928F938F858C
:104610008F938E858F931F926F938AEC93E09F9375
:104620008F930E94DB331F8A8E859F8501969F871B
:104630008E878DB79EB70A960FB6F8949EBF0FBEB1
:104640008DBFDF91CF9108954F925F926F927F92CD
:10465000BF92CF92DF92EF92FF920F931F93CF936F
:10466000DF9300D0CDB7DEB77C01DC01BC9068E7FA
:1046700071E28B2D0E948F298C01F7018085918535
:10468000A285B385892B8A2B8B2BA9F1C8010E94A7
:10469000AE3AF70184819581A681B781F8018483C0
:1046A0009583A683B783F70180859185A285B3851D
:1046B000F80180879187A287B38781E0868B178670
:1046C0001686118A108A178A138A128A158A148A02
:1046D000C8010E94003B0F900F90DF91CF911F9176
:1046E0000F91FF90EF90DF90CF90BF907F906F90F1
:1046F0005F904F900895C8010E94AE3AD801569637
:104700001C9283E289831A820E94612F2B013C0153
:10471000D8011C96ED91FC911D97AE014F5F5F4F44
:1047200062E080810E94FC160E94612F6B017C0177
:10473000F8018789882321F06B2DC8010E94FE2291
:10474000B8016E5E7F4FD8011C968D919C911D978C
:104750000E94962FF80121892F9320892F939C0185
:10476000ABEABAEA0E940F3E969587959695879593
:104770009F938F9387891F928F9387858F938685C9
:104780008F93D701C60184199509A609B709BF936C
:10479000AF939F938F937F926F925F924F921F92EE
:1047A000BF928FEC93E09F938F930E94DB330FB601
:1047B000F894DEBF0FBECDBF8ECFCF92DF92EF92C7
:1047C000FF92CF93DF93FC01A085B18582858C9306
:1047D000968581E089278687C82FC170C688D788CB
:1047E000E08CF18C97859F5FD1899D1708F05FC0A1
:1047F000892F869586958695DF01A80FB11D5A965B
:104800002C9130E0892F877002C0359527958A95C5
:10481000E2F72170B701A601C217A9F033C0892FB2
:10482000869586958695DF01A80FB11D5A962C9125
:1048300030E0892F877002C0359527958A95E2F779
:104840002170C2131FC04C0D5D1D6E1D7F1D9F5F2B
:104850009D1728F382ED96E293838283848195816C
:10486000A681B781480F591F6A1F7B1F4483558358
:104870006683778381E0DF91CF91FF90EF90DF90A7
:10488000CF900895978784819581A681B781480F3D
:10489000591F6A1F7B1F448355836683778381E09A
:1048A000DF91CF91FF90EF90DF90CF900895B70107
:1048B000A601D0CF6F927F928F92CF92DF92EF922C
:1048C000FF92CF93DF93EC0160E08C810E940F2E6A
:1048D0003B01882EC884D984EA84FB84D7FC24C099
:1048E000A601415F5F4F6AE574E288810E946029FA
:1048F000FC01608271828282D686C5868C859D8508
:104900009483838388899989AA89BB8981879287BF
:10491000A387B487DF91CF91FF90EF90DF90CF9086
:104920008F907F906F90089584E20E94653DCF92B2
:10493000DF92EF92FF920F931F93CF93DF93EC01DF
:10494000E885F9858A8580830E94612F3E8521E074
:1049500023272E872F852F5F2F87213009F45CC0F6
:104960002530E0F40C811D812E813F814A895B89CD
:104970006C897D89DB01CA01800F911FA21FB31FC3
:104980008C839D83AE83BF8381E0DF91CF911F91A4
:104990000F91FF90EF90DF90CF900895CC80DD8055
:1049A000EE80FF80AB01BC014C195D096E097F09E7
:1049B0008E899F89A88DB98D481B590B6A0B7B0B7B
:1049C000DB01CA010296A11DB11DB7FD34C0B5952A
:1049D000A79597958795B595A795979587950A89F2
:1049E0001B892C893D89800F911FA21FB31F8E8BBD
:1049F0009F8BA88FB98F2DED33E23B832A834C0D1B
:104A00005D1D6E1D7F1D840F951FA61FB71F8C8314
:104A10009D83AE83BF83B8CF0C811D812E813F81E2
:104A2000AB01BC01401B510B620B730B4E8B5F8BB8
:104A3000688F798F9BCFDB01CA010596A11DB11D3F
:104A4000C6CFEF92FF920F931F93CF93DF937C011A
:104A500062EC75E2FC0180810E948F29EC011E85C9
:104A600011FF07C0DF91CF911F910F91FF90EF9041
:104A70000895F701048160857185F4840B3008F096
:104A800045C0FAE0FF1508F441C0402F50E04A96B7
:104A90000E94803E1F86117312601E87802F880F30
:104AA000880F880F898BFF0CFF0CFF0CF88A0023FE
:104AB00049F08A8D8F738A3229F487E994E29B83C7
:104AC0008A830CC08A899B89AC89BD898E8B9F8B18
:104AD000A88FB98F8DED93E29B838A83F8940E940F
:104AE000612FDC01CB018058934FAF4FBF4F8C83B8
:104AF0009D83AE83BF83CE010E94003B7894DF91FB
:104B0000CF911F910F91FF90EF90089582E20E9444
:104B1000653D0F931F93CF93DF938C0169E171E2A1
:104B2000DC018C910E948F29EC01D8011496EC9144
:104B30008F898E0F8F8BF8948E85E817D0F48E1B9B
:104B4000F0E03F96EC0FFD1FDE011F962FEF280FC0
:104B500030E0205F3F4F2C0F3D1F91919D93A21796
:104B6000B307D9F78E877894DF91CF911F910F917A
:104B700008951E868EEF888F7894DF91CF911F91D4
:104B80000F9108957F928F929F92AF92BF92CF9292
:104B9000DF92EF92FF920F931F93CF93DF93EC017D
:104BA00044E250E062EC75E288810E9460298C0149
:104BB00078848C809D80AE80BF80CC84DD84EE8440
:104BC000FF8461E0711001C060E0882D0E945D17D4
:104BD000F80163877487858761E08C2D0E940F2E12
:104BE000F80160877187828788899989AA89BB893A
:104BF000828B938BA48BB58B711018C091E08C14B1
:104C00009D04AE04BF04C1F080E0892BF8018687C3
:104C1000DF91CF911F910F91FF90EF90DF90CF9098
:104C2000BF90AF909F908F907F90089591E18C14EA
:104C30009D04AE04BF0441F780E2E7CFCF93DF933A
:104C4000EC018E8585FD0DC0688579858A8541E0FA
:104C50000E9496178E85807381608E87DF91CF9139
:104C60000895688579858A8541E00E94A5178E851B
:104C7000807381608E87DF91CF910895CF93DF930A
:104C8000FC01A385B4855C918785982F977021E0FE
:104C900030E001C0220F9A95EAF7982F96959695E5
:104CA0009695DF01A90FB11D5A969C915A9745859B
:104CB0004523E1F0292B5A962C938F5F9089891711
:104CC000E8F4878744815581668177818689978951
:104CD000A08DB18D840F951FA61FB71F8483958368
:104CE000A683B78381E0DF91CF9108952095292392
:104CF0005A962C938F5F9089891718F3EF01CF0193
:104D00000E941E268E8588608E871092260181E083
:104D100080934E0180E0DF91CF910895CF93DF9390
:104D2000FC01A385B4859C9185858923E9F086855E
:104D300084608687878591E0980F9787803408F58F
:104D4000448155816681778186899789A08DB18D4F
:104D5000840F951FA61FB71F84839583A683B783EF
:104D600081E0DF91CF910895868582FFE3CF17869A
:104D70008EE396E293838283CF01DF91CF910C94EF
:104D80003E26EF01108ACF010E941E268E85886084
:104D90008E871092260181E080934E0180E0DF91A2
:104DA000CF9108951F93CF93DF93EC0118891123BE
:104DB00069F14E8545FD23C01F868EE896E29B83F0
:104DC0008A838E899F89A88DB98D880F991FAA1F04
:104DD000BB1F880F991FAA1FBB1F4C815D816E816D
:104DE0007F81840F951FA61FB71F8C839D83AE8381
:104DF000BF8311E0812FDF91CF911F910895407102
:104E00006B857C858D850E944717D6CF0E941E2614
:104E10008E8588608E871092260181E080934E01F6
:104E2000812FDF91CF911F910895FC0186898460C5
:104E3000868B1092260181E080934901448155813F
:104E40006681778180899189A289B389840F951FB2
:104E5000A61FB71F84839583A683B78381E0089537
:104E6000FC013897968990FF08C0608D678B9A7F08
:104E70009460968BCF010E94F31E80E00895FC01A0
:104E8000A085B1859C9182858923D1F0818D809503
:104E90008170C9F4838D815031F1838F44815581B4
:104EA0006681778187859089A189B289840F951F52
:104EB000A61FB71F84839583A683B78381E00895D7
:104EC000818D817039F38AE897E2938382838389A5
:104ED0009489A589B68984839583A683B783828DB7
:104EE000838F81E00895A789B08D56969C9156973F
:104EF000892F817090FFE3CF648D57966C935797FD
:104F00009A7F946056969C935697CD010E94F31E0B
:104F100080E008950F931F93FC01A085B1859C91BB
:104F20000481158126813781438554856585768581
:104F3000400F511F621F731F8285892361F0818D8D
:104F40008095817059F0448355836683778381E02F
:104F50001F910F910895818D8170A9F7438B548B18
:104F6000658B768B8FE397E293838283CF011F91CA
:104F70000F910C943F27CF93FC01C0816DE278E242
:104F80008C2F0E948F29FC01F894818D33894489EC
:104F9000558966897894A085B1852C919285922354
:104FA00021E009F420E01F922F936F935F934F93BA
:104FB0003F93869581701F928F931F92CF9384E2C7
:104FC00094E09F938F930E94DB338DB79EB70C962E
:104FD0000FB6F8949EBF0FBE8DBFCF910895CF93AB
:104FE000FC01C0816AE870E18C2F0E948F29FC01CE
:104FF000F89480A191A1A2A1B3A124A546855785CB
:105000006089718924FD04C0769567955795479509
:10501000841B950BA60BB70BB7FF07C0B095A095E7
:10502000909581959F4FAF4FBF4F7894B054BF93E9
:10503000AF939F938F931F92CF9389E294E09F93B6
:105040008F930E94DB338DB79EB708960FB6F89406
:105050009EBF0FBE8DBFCF9108950F931F93CF9327
:10506000DF93EC014DE150E06DE278E288810E942F
:1050700060298C0168858C810E945D17F80160872A
:1050800071878287DF91CF911F910F9108950F93C0
:105090001F93CF93DF938C016DE278E2FC01808156
:1050A0000E948F29EC010E94AE3AF801848195811B
:1050B000A681B7818C839D83AE83BF8380859185D4
:1050C000A285B3858F87988BA98BBA8B84858A8FAD
:1050D000882361F1F80140895189628973894B877E
:1050E0005C876D877E872AE837E23B832A838B8F34
:1050F00084899589A689B789892B8A2B8B2BA1F462
:1051000082E0898F67E27EE1F801808D0E948F291D
:10511000988F8F8BF801848D8C8FCE01DF91CF918A
:105120001F910F910C94003B83E0EBCF188E1F8AE8
:10513000198EDF91CF911F910F9108950F931F93B7
:10514000CF93DF938C01EC01A897CE010E94AE3A79
:105150001C821D821E821F821A8A1B8A1C8A1D8A3B
:1051600088A199A1AAA1BBA12CA54E855F856889BC
:10517000798924FD04C07695679557954795841BDA
:10518000950BA60BB70BB7FD40C0B095A0959095B9
:1051900081959F4FAF4FBF4F88A399A3AAA3BBA3ED
:1051A0001E861F86188A198A247128602CA76D8D87
:1051B0007E8D8F8D40E00E9496174CA544706A8DBD
:1051C0007B8D8C8D0E949617D8011497ED91FC91E0
:1051D00011973097A9F0409147019091480101C083
:1051E000F9012081318140839183F0934801E0935C
:1051F00047014E2F9F2F2115310591F71D921C92CB
:10520000DF91CF911F910F910895B095A095909542
:1052100081959F4FAF4FBF4FB8CF0F931F93CF9341
:10522000DF938C016AE870E1FC0180810E948F2984
:10523000EC0167E27EE1F80184810E948F29BE01C2
:10524000685D7F4F4FB7F8942AA53BA5232B89F4BF
:105250002EE938E23BA72AA7FC012489358939A722
:1052600028A7758B648B4FBFDF91CF911F910F9152
:10527000089589E10E94653DCF93DF93EC01988109
:1052800040913701A0913801B09139010BC0FD0167
:1052900084E0989FE00DF11D1124208131812617B3
:1052A000370741F09F5F941790F380E090E0DF9123
:1052B000CF910895988382819381DF91CF91089552
:1052C000CF93DF9390913701891730F5C82FD0E045
:1052D000CC0FDD1FCC0FDD1FE0913801F0913901BB
:1052E000EC0FFD1F80819181892BB1F480913F01EA
:1052F00090914001892B81F471836083CA010E94DF
:10530000B8332091380130913901C20FD31F9B83EC
:105310008A83DF91CF9108958BE00E94653D909143
:105320003701891788F4E0913801F091390194E050
:10533000899FE00DF11D11248081918186179707C7
:1053400019F48281938108958CE00E94653DCF928B
:10535000DF92EF92FF92CF93DF93C0913F01D09104
:1053600040012097B9F121976E01E12CF12CA09119
:105370003E01B0E02097D9F020E030E040E050E07E
:10538000BA0180913C0190913D01FC01E20FF31FB5
:105390004F5F5F4F6F4F7F4F2A0F3B1F820F931F4F
:1053A000918380834C155D056E057F0550F38091D8
:1053B0003C0190913D01CA9FF001CB9FF00DDA9F17
:1053C000F00D1124E80FF91F11821082909348010B
:1053D00080934701DF91CF91FF90EF90DF90CF90C6
:1053E0000895FC0113821282118210826F3F7105B1
:1053F00009F07CF480913F0190914001892B49F4A0
:1054000080913E0190E08617970714F460933E0167
:1054100008950E94E42D2FB7F89480914701909150
:105420004801009749F0FC014081518150934801A7
:10543000409347012FBF08958FE00E94653D809102
:105440002701882329F0823011F010922701089556
:1054500082E00E94653D88E00E94653DCF92DF9228
:10546000EF92FF920F931F930E94612F9F938F9350
:105470007F936F9301E010E020E030E0C090530193
:10548000D0905401E0905501F09056016C157D05C7
:105490008E059F0518F000E010E0980180914F0103
:1054A00090915001A0915101B0915201800F911F34
:1054B000A21FB31FBF93AF939F938F9382E494E097
:1054C0009F938F930E94DB338DB79EB70A960FB6DA
:1054D000F8949EBF0FBE8DBF1F910F91FF90EF906C
:1054E000DF90CF9008950E94612F9F938F937F93B9
:1054F0006F938DE394E09F938F930E94DB330F9023
:105500000F900F900F900F900F900895CF93DF930F
:10551000EC0161E77BE288810E948F296C814885DC
:105520005985FC01238120FD06C0FC018081DF91AB
:10553000CF910C94FC1681819281DF91CF910C94D4
:10554000471C2F923F924F925F926F927F928F9261
:105550009F92AF92BF92CF92DF92EF92FF920F9302
:105560001F93CF93DF9300D000D000D0CDB7DEB72C
:105570008C012DB73EB73D832C8361E77BE2DC01D4
:105580008C910E948F299A838983F801F481FB838F
:10559000D80118968D909C9019971C964D905D900F
:1055A0006D907C901F9740FC99C0769467945794B7
:1055B0004794F801E088F188C42CD12CFB810F2F8F
:1055C00010E0C8018C0D9D1D2DB73EB7281B390B6F
:1055D0000FB6F8943EBF0FBE2DBF8DB79EB7019694
:1055E0005C01A981BA8113963C90A801B4010E9484
:1055F000803EB32DB170BE8330FE53C01501200E26
:10560000311E8101242DA4016B81E981FA81818100
:1056100092810E94951BC114D10409F453C0A601C4
:105620004E0D5F1DF10120E030E0D7018D917D012D
:105630008095908189238083DA019D91AD01892B2A
:1056400081932F5F3F4F2C153D057CF3BE81B11137
:1056500039C06B81640DA501E981FA8180810E94C6
:10566000FC162C813D810FB6F8943EBF0FBE2DBFB6
:1056700026960FB6F894DEBF0FBECDBFDF91CF9157
:105680001F910F91FF90EF90DF90CF90BF90AF9060
:105690009F908F907F906F905F904F903F902F9052
:1056A00008951501200E311E8101242DA4016B8166
:1056B000E981FA8180810E947216C114D10409F037
:1056C000AECFC7CF6B81640DA501A981BA811196B8
:1056D0008D919C9112970E94471CC3CF8CE10E9430
:1056E000653D44E050E061E77BE2FC0180810C9481
:1056F0006029AF92BF92CF92DF92EF92FF920F9309
:105700001F93CF93DF93CDB7DEB77C01ADB6BEB6A6
:10571000FC01C08061E77BE28C2D0E948F29F7019C
:10572000648140855185D4842DB73EB72D19310948
:105730000FB6F8943EBF0FBE2DBFEDB7FEB7319642
:105740007F01FC012381870120FD2AC02D2DFC0152
:1057500080810E947216FF92EF921F92DF921F9239
:10576000CF9280E194E09F938F930E94DB332DB71B
:105770003EB7285F3F4F0FB6F8943EBF0FBE2DBF18
:105780000FB6F894BEBE0FBEADBEDF91CF911F9194
:105790000F91FF90EF90DF90CF90BF90AF90089562
:1057A0002D2D818192810E94951BD5CF8F929F9242
:1057B000AF92BF92FF920F931F93CF93DF938C0111
:1057C000FC0184858F77F82E61E77BE280810E945F
:1057D0008F29EC01F80184819581A681B781892BFD
:1057E0008A2B8B2BB1F58091BC0082FF10C08F2DCE
:1057F000880F88838B8182608B83DF91CF911F918B
:105800000F91FF90BF90AF909F908F900895F801F7
:1058100080849184A284B38461E081E10E940F2E90
:1058200061E080E10E940F2E1092B900F0E88F161F
:10583000FAE19F06F6E0AF06B10438F488E48093FD
:10584000B80084E08093BC00D2CF8CE08093B80095
:10585000F8CF81E30E94653DCF92DF92EF92FF92F5
:105860001F93CF93DF936A017B0168E674E0FB012D
:105870009491981749F0675F7F4FF4E0603B7F0792
:10588000B1F784E30E94653DFB013896949191FF46
:1058900019C030EAC3163FE5D306E104F10408F06D
:1058A00081C0A8EDCA16A7E2DA06E104F10408F007
:1058B0008AC0B7EFCB16B8E0DB06E104F10488F04C
:1058C00012E010C0F8EBCF16F7E4DF06E104F104B4
:1058D00008F057C037EFC31638E0D306E104F104EF
:1058E00078F711E0FB013396A591B491FB01359651
:1058F000C591D491FB0137963491E82FE695E69552
:10590000E695F0E0EE0FFF1FE05AFB4F45915491F2
:105910008770E1E0F0E07F0101C0EE0C8A95EAF7C4
:10592000FB013196C590D490892F8170A038B105C4
:1059300009F45CC0EFB7F8949881977011F01913CF
:1059400052C0188381114AC09FB7F894622F70E04B
:10595000E601798368839FBF9C913160392B3C932A
:10596000DA0111969C911197E92A1196EC92EFBFFA
:10597000B601DF91CF911F91FF90EF90DF90CF9014
:105980000895A0ECCA16AEE3DA06A1E0EA06F10437
:10599000D0F0C114BBEFDB06B4E0EB06F10488F4F1
:1059A00014E0A0CFC0E8CC16CEE7DC06C1E0EC06E0
:1059B000F10458F4D0E4CD16DFEBDD06E104F10488
:1059C00078F315E08FCF13E08DCFC114EBEFDE0637
:1059D000E4E0EE06F10428F416E084CFE601288323
:1059E000BBCF17E07FCF82E30E94653D83E30E9437
:1059F000653D0F931F93FC01A489B58986898C931B
:105A000093A181E0892783A34481558166817781B1
:105A100080FF12C00085118522853385400F511FFC
:105A2000621F731F82FD12C0448355836683778390
:105A300081E01F910F91089504851585268537858E
:105A4000400F511F621F731F82FFEECF0089118923
:105A500022893389872F401751076207830B87FDFF
:105A6000E3CF83E298E193838283B901A801448361
:105A700055836683778381E01F910F910895089580
:105A8000FC018081A481B581408551856285738543
:105A90009FB7F894813061F0823019F04C939FBF2A
:105AA00008954D935D936D937C9313979FBF0895D5
:105AB00011965C934E939FBF0895FC0185818F934F
:105AC00084818F9380811F928F9383E394E09F93CF
:105AD0008F930E94DB330F900F900F900F900F90D9
