:100000000C94A8150C94D2150C94D2150C94D215FE
:100010000C94D2150C94D2150C94D2150C94D215C4
:100020000C94D2150C94D2150C94D2150C94D215B4
:100030000C94D2150C943D380C94D2150C94D21516
:100040000C94D2150C9421270C94A1BD0C94D215BC
:100050000C9450AF0C94D2150C94D2150C94D2156C
:100060000C94D2150C94D2150C94D2150C94D21574
:100070000C94D2150C94D2150C94D2150C94D21564
:100080000C9452390C94D2150C94D2154E414E4911
:100090004E495459494E46CDCCCC3D0AD7233C1746
:1000A000B7D13877CC2B329595E6241FB14F0A0093
:1000B0000020410000C84200401C4620BCBE4CCA83
:1000C0001B0E5AAEC59D74454550524F4D2064617C
:1000D000746173697A65206572726F722E0A0029E5
:1000E0000A002062797465733B20637263200053B9
:1000F000657474696E67732053746F726564202829
:1001000000290A002062797465733B2063726320C2
:10011000002073746F7265642073657474696E6710
:1001200073207265747269657665642028002028E2
:1001300063616C63756C6174656429210A00202118
:100140003D2000454550524F4D20435243206D699C
:10015000736D61746368202D202873746F726564F9
:100160002920002053697A653A2000496E64657839
:100170003A2000204D61726C696E3D563536290A71
:100180000028454550524F4D3D00454550524F4D7A
:100190002076657273696F6E206D69736D6174632B
:1001A00068200048617264636F646564204465661A
:1001B00061756C742053657474696E6773204C6F3D
:1001C000616465640A00F4010000F4010000640049
:1001D0000000881300000000FA430000FA4300000A
:1001E000A0400000C8410000A0420000A042000062
:1001F000C8430000BA423A0A0020286D6D29002049
:10020000204D383531205A005A2D50726F626520CA
:100210004F66667365740020440020490020204D1D
:100220003330312050005049442073657474696E36
:1002300067733A0A00204600204200204800202030
:100240004D3134352053004D6174657269616C2005
:1002500068656174757020706172616D6574657236
:10026000733A0A00205A00204A00202047323920E1
:1002700057204900205A0020204D343230205300AE
:100280004175746F20426564204C6576656C696EBB
:10029000673A0A00205A0020590020204D3230369B
:1002A000205800486F6D65206F66667365743A0A62
:1002B00000204500205A00205900205800205400FA
:1002C00020530020204D32303520510020453C6D18
:1002D00061785F655F6A65726B3E0020583C6D61B6
:1002E000785F785F6A65726B3E20593C6D61785F1C
:1002F000795F6A65726B3E205A3C6D61785F7A5F08
:100300006A65726B3E00416476616E6365643A2093
:10031000513C6D696E5F7365676D656E745F74697E
:100320006D655F75733E20533C6D696E5F666565F4
:1003300064726174653E20543C6D696E5F747261D5
:1003400076656C5F66656564726174653E00205415
:100350000020520020204D32303420500041636391
:10036000656C65726174696F6E2028756E6974734F
:100370002F7332293A20503C7072696E745F61634A
:1003800063656C3E20523C726574726163745F6198
:100390006363656C3E20543C74726176656C5F618A
:1003A0006363656C3E0A00204500205A0020590016
:1003B00020204D3230312058004D6178696D756DC7
:1003C00020416363656C65726174696F6E20287586
:1003D0006E6974732F7332293A0A00204500205A3F
:1003E0000020590020204D3230332058004D6178D4
:1003F000696D756D2066656564726174657320282A
:10040000756E6974732F73293A0A00204500205ACB
:100410000020590020204D39322058005374657057
:10042000732070657220756E69743A0A0020204D41
:100430003230302044300A0020204D323030204409
:10044000002044697361626C65640A0046696C61EE
:100450006D656E742073657474696E67733A0020FD
:10046000204D3134392043203B20556E6974732070
:10047000696E2043656C736975730A0020204732EA
:1004800031202020203B00486F6D696E6720666137
:10049000696C656400545249474745524544006FB2
:1004A00070656E003A20007A5F6D696E00795F6D4D
:1004B000696E00785F6D696E005265706F72746965
:1004C0006E6720656E6473746F70207374617475E9
:1004D000730A0020746F6F206C6F6E6720657874EC
:1004E000727573696F6E2070726576656E7465647F
:1004F0000A0020636F6C6420657874727573696F8D
:100500006E2070726576656E7465640A0024F4D49A
:100510003050C38E20C2A24017828B7011127A9184
:100520000D816CD90AA861E108C75866076151437B
:10053000061E4B5D05C145A7041A411104093D98EB
:1005400003713931034036DB0265339102D43054F4
:1005500002802E1D02632CEE01752AC501B028A071
:1005600001102781018F2564012B244B01E02234E7
:1005700001AC211F018D200D01801FFC00841EEDA8
:1005800000971DDF00B81CD200E61BC600201BBC74
:1005900000641AB200B219A8000A19A0006A1899DA
:1005A00000D117910040178B00B516840031167EDC
:1005B00000B31579003A157300C7146F0058146A18
:1005C00000EE1366008813630025135E00C7125BFC
:1005D000006C12570015125400C111510070114FD8
:1005E0000021114B00D61049008D104700461044E1
:1005F0000002104200C00F4000800F3E00420F3C3E
:1006000000060F3B00CB0E3800930E37005C0E3512
:1006100000270E3400F30D3200C10D3100900D3073
:1006200000600D2E00320D2D00050D2C00D90C2B75
:1006300000AE0C2900850C29005C0C2700350C2726
:10064000000E0C2600E80B2400C40B2400A00B2392
:10065000007D0B23005A0B2100390B2100180B20C1
:1006600000F80A1F00D90A1E00BB0A1E009D0A1DC1
:1006700000800A1D00630A1C00470A1B002C0A1B8D
:1006800000110A1A00F7091A00DD091900C4091936
:1006900000AB091900920917007B091800630917BC
:1006A000004C09160036091600200916000A091523
:1006B00000F5081500E0081400CC081400B8081470
:1006C00000A4081400900813007D0812006B0813A2
:1006D00000580812004608120034081100230811BF
:1006E000001208110001081100F0071000E00710C7
:1006F00000D0071000C0071000B0070F00A10710BE
:100700000091070E0083070F0074070F0065070EA6
:100710000057070E0049070E003B070D002E070E7D
:100720000020070D0013070D0006070D00F9060C49
:1007300000ED060D00E0060C00D4060C00C8060C07
:1007400000BC060C00B0060C00A4060B0099060CB9
:10075000008D060B0082060B0077060B006C060B63
:100760000061060A0057060B004C060A0042060A02
:100770000038060A002E060A0024060A001A060A95
:10078000001006090007060A00FD050900F4050926
:1007900000EB050900E2050900D9050900D00509AB
:1007A00000C7050900BE050900B5050800AD05082C
:1007B00000A50509009C050800940508008C0508A3
:1007C00000840508007C050800740508006C050716
:1007D00000650508005D050700560508004E050781
:1007E00000470507004005080038050700310507E8
:1007F000002A050700230507001C0506001605074B
:10080000000F0507000805060002050700FB0406A7
:1008100000F5040700EE040600E8040600E2040701
:1008200000DB040600D5040600CF040600C9040658
:1008300000C3040600BD040600B7040600B10405A9
:1008400000AC040600A6040600A00405009B0406F4
:100850000095040500900406008A0405008504053F
:1008600000800406007A0405007504050070040584
:10087000006B04050066040500610405005C0405C6
:100880000057040500520405004D04050048040506
:1008900000430405003E0404003A04050035040545
:1008A00000300404002C0405002704040023040580
:1008B000001E0404001A04040016040500110404B8
:1008C000000D0404000904050004040400000404ED
:1008D00000FC030400F8030400F4030400F0030424
:1008E00000EC030400E8030400E4030400E0030454
:1008F00000DC030400D8030400D4030400D0030484
:1009000000CC030400C8030300C503030024F4045F
:10091000D9201BC40C5C0E9804C4095F02650771E2
:1009200001F405F900FB04B30048048700C1036922
:10093000005803550003034500BE023A008402310B
:100940000053022A002902250004022000E4011CB1
:1009500000C8011900AF01170098011400840113A9
:1009600000710110006101100051010E0043010DE2
:100970000036010B002B010B0020010B00150109B3
:10098000000C01090003010800FB000800F3000847
:1009900000EB000700E4000600DE000600D80006B9
:1009A00000D2000600CC000500C7000500C200050B
:1009B00000BD000400B9000400B5000400B100044B
:1009C00000AD000400A9000400A5000300A200037C
:1009D000009F0004009B00030098000300950002A4
:1009E0000093000300900003008D0002008B0003C1
:1009F00000880002008600020084000300810002DB
:100A0000007F0002007D0002007B000200790002EE
:100A100000770001007600020074000200720001FD
:100A200000710002006F0002006D0001006C000206
:100A3000006A000100690002006700010066000111
:100A40000065000100640002006200010061000115
:100A500000600001005F0002005D0001005C000119
:100A6000005B0001005A000100590001005800011C
:100A7000005700010056000100550001005400011C
:100A8000005300000053000100520001005100011A
:100A900000500001004F0001004E0000004E000118
:100AA000004D0001004C0001004B0000004B000114
:100AB000004A000100490001004800000048000110
:100AC000004700010046000000460001004500000C
:100AD0000045000100440001004300000043000104
:100AE00000420000004200010041000000410001FE
:100AF00000400001003F0000003F0001003E0000F8
:100B0000003E0001003D0000003D0001003C0000EF
:100B1000003C0000003C0001003B0000003B0001E5
:100B2000003A0000003A00010039000000390001DD
:100B300000380000003800000038000100370000D5
:100B400000370001003600000036000000360001CA
:100B500000350000003500000035000100340000C1
:100B600000340000003400010033000000330000B6
:100B700000330001003200000032000000320001AA
:100B800000310000003100000031000100300000A1
:100B90000030000000300001002F0000002F000096
:100BA000002F0000002F0001002E0000002E00008A
:100BB000002E0001002D0000002D0000002D00007F
:100BC000002D0001002C0000002C0000002C000073
:100BD000002C0001002B0000002B0000002B000067
:100BE000002B0001002A0000002A0000002A00005B
:100BF000002A00010029000000290000002900004F
:100C00000029000000290001002800000028000041
:100C10000028000000280000002800010027000034
:100C20000027000000270000002700000027000127
:100C3000002600000026000000260000002600001C
:100C4000002600010025000000250000002500000E
:100C50000025000000250000002500010024000000
:100C600000240000002400000024000000240001F3
:100C700000230000002300000023000000230000E8
:100C800000230000002300000023000100220000D8
:100C900000220000002200000022000000220000CC
:100CA00000220001002100000021000000210000BE
:100CB00000210000002100000021000000210001AF
:100CC00000200000002000000020000000200000A4
:100CD0000020000000200000002000000020000193
:100CE000001F0000001F0000001F0000001F000088
:100CF000001F0000001F0000001F0001001E000078
:100D0000001E0000001E0000001E0000000437004E
:100D1000001E290000511B0000581000001009009F
:100D200000CC04000078020000410100006265640C
:100D30000A002C2073797374656D2073746F707062
:100D4000656421204865617465725F49443A2000FA
:100D50004265642068656174696E67206661696CCC
:100D600065640048656174696E67206661696C65D9
:100D7000640045312048656174696E672066616969
:100D80006C65640048656174696E67206661696CB2
:100D900065640070012C0190012701B0012201C09F
:100DA000011D01F00118011002130130020E016053
:100DB00002090190020401C002FF000003FA004092
:100DC00003F5008003F000D003EB002004E6007080
:100DD00004E100E004DC004005D700C005D200407B
:100DE00006CD00D006C8008007C3003008BE00F062
:100DF00008B900C009B400B00AAF00B00BAA00D017
:100E00000CA500000EA000500F9B00C010960050D3
:100E100012910000148C00C0158700B0178200B03A
:100E2000197D00D01B7800001E730040206E0090DA
:100E3000226900F024640040275F0090295A00E0F6
:100E40002B5500102E500020304B0010324600E091
:100E500033410090353C001037370070383200A025
:100E6000392D00B03A2800A03B2300603C1E001042
:100E70003D1900903D1400103E0F00703E0A00C066
:100E80003E0500003F0000403FFBFF803FF6FFC0F3
:100E90003FF1FF453120544845524D414C205255B9
:100EA0004E415741590042454420544845524D4116
:100EB0004C2052554E4157415900546865726D613E
:100EC0006C2052756E6177617900453120457272F0
:100ED0003A204D415854454D50004572723A204DCC
:100EE000415854454D5020424544004D41585445C9
:100EF0004D502074726967676572656400453120E2
:100F00004572723A204D494E54454D50004572721B
:100F10003A204D494E54454D5020424544004D49DC
:100F20004E54454D50207472696767657265640060
:100F30004D383420582059205A204500202F0020B9
:100F400042403A0020403A0025753A25303275007B
:100F5000253032753A2530327500257564202530EC
:100F600032753A2530327500202020202020005A8A
:100F70000059002020202000580009200000000017
:100F80000000000000000000003FFFF00000000033
:100F900000000000000000003800700000000000A9
:100FA0000000000000000030FC30000000000000E5
:100FB00000000000000020FC100000000000000005
:100FC0000000000000207810000000000000000079
:100FD00000000000203010000000000000000000B1
:100FE0000000002C00D03FC00000000000000020E6
:100FF00082002E31D07FE000000000000000104190
:10100000002F7BD07FE000000000000000104100B6
:101010002F7BD07FE0000000000000002082002E27
:1010200031D03FC0000000000000004104002C004F
:10103000D03FC000000000000000820800203010F7
:101040007FE0000000000000008208002078107F90
:10105000E00000000000000041040020FC107FE0E0
:101060000000000000000020820030FC301F8000E3
:101070000000000000000000003800700F000000B9
:101080000000000000FFFFC03FFFF006000000006E
:1010900000000000FFFFC000000000000000000092
:1010A0000000000000003FFFF00000000000000012
:1010B0000000000000380070000000000000000088
:1010C0000000000031863000000000000000000039
:1010D0000000002387100000000000000000000056
:1010E00000002787900000000000000000000000C2
:1010F000002F87D00000000000000000000000006A
:101100002F03D03FC000000000000000208200201C
:1011100030107FE000000000000000104100207847
:10112000107FE00000000000000010410020781057
:101130007FE0000000000000002082002030103F0F
:10114000C0000000000000004104002F03D03FC099
:10115000000000000000008208002F87D07FE00020
:101160000000000000008208002787907FE0000058
:1011700000000000004104002387107FE000000011
:10118000000000002082003186301F800000000037
:101190000000000000003800700F00000000000098
:1011A0000000FFFFC03FFFF006000000000000004D
:1011B00000FFFFC0000000456E6465722D332052B1
:1011C000656164792E005072696E74696E672E2EA7
:1011D0002E005072696E74207061757365640043EF
:1011E0006D643A2053746F7700436D643A20446510
:1011F000706C6F7900436D643A2053656C662D54B2
:1012000065737400436D643A2052657365740043DE
:101210006D643A2053572D4D6F6465004D61696EC2
:10122000005072696E742061626F72746564004967
:101230006E69742E2053442063617264004D323114
:10124000004E6F2053442063617264004368616EF6
:1012500067652053442063617264004D3231005051
:1012600072696E742066726F6D2053440053746F00
:1012700070207072696E7400526573756D652070B0
:1012800072696E740041626F7574205072696E7479
:101290006572005061757365207072696E740043E9
:1012A0006F6E74726F6C005072657061726500547D
:1012B000756E6500496E666F2073637265656E00BA
:1012C0004261627973746570205A00426162797379
:1012D000746570205A00466C6F7700466C6F77001B
:1012E00046616E2073706565640046616E207370A0
:1012F0006565640042656400426564004E6F7A7AF9
:101300006C65004E6F7A7A6C650053706565640099
:101310005370656564004D61696E00507265686563
:10132000617420504C4120456E64005072656865C0
:10133000617420504C4120426564005072656865BC
:10134000617420504C4100507265706172650050AC
:101350007265686561742041425320456E64005097
:101360007265686561742041425320426564005093
:101370007265686561742041425300507265706106
:10138000726500436D643A205265736574004D3296
:101390003830205030205331363000436D643A20CD
:1013A00053656C662D54657374004D32383020508F
:1013B00030205331323000507265686561742041CD
:1013C0004253005072656865617420504C4100437F
:1013D0006F6F6C646F776E0044697361626C652037
:1013E0007374657070657273004D383400417574A4
:1013F0006F20686F6D6500473238004D6F7665204D
:1014000061786973004D61696E00434F4D4D554ED3
:1014100049434154494F4E0044525952554E00459C
:1014200052524F525300494E464F004543484F00D9
:10143000656E7175657565696E672022004B494C54
:101440004C45442E200053544F505045442E20000C
:101450005072696E7465722073746F707065642069
:1014600064756520746F206572726F72732E2046EA
:10147000697820746865206572726F7220616E648D
:1014800020757365204D39393920746F207265736A
:10149000746172742E202854656D70657261747564
:1014A00072652069732072657365742E20536574AC
:1014B000206974206166746572207265737461724C
:1014C00074696E67290A004E6F20436865636B7309
:1014D000756D2077697468206C696E65206E756D16
:1014E0006265722C204C617374204C696E653A20E1
:1014F000004E6F20436865636B73756D2077697468
:1015000068206C696E65206E756D6265722C204C6A
:10151000617374204C696E653A2000636865636B83
:1015200073756D206D69736D617463682C204C61F7
:101530007374204C696E653A20004C696E65204ECC
:10154000756D626572206973206E6F74204C6173D3
:1015500074204C696E65204E756D6265722B312C5E
:10156000204C617374204C696E653A20004D313116
:1015700030004D3331005344207265616420657240
:10158000726F720A00446F6E65207072696E7469C2
:101590006E672066696C650A0020496E76616C6929
:1015A0006420657874727564657220000000000024
:1015B000000000000000000000006B4300006B43CF
:1015C00000007A4342696C696E656172204C6576F1
:1015D000656C696E6720477269643A0A0020284486
:1015E000525952554E2900473239204175746F20A7
:1015F000426564204C6576656C696E67003F202803
:101600004C2C522C462C4229206F7574206F66207A
:10161000626F756E64732E0A003F285629657262E8
:101620006F7365206C6576656C20697320696D70D9
:101630006C61757369626C652028302D34292E0A1F
:1016400000426164205A2076616C75650A004E6F15
:101650002062696C696E65617220677269640A0054
:1016600044656C6574696F6E206661696C65642C95
:101670002046696C653A200046696C652064656C9B
:10168000657465643A0050726F74656374656420B4
:1016900050696E0A0020573A004520436F6F6C690D
:1016A0006E672E2E2E00452048656174696E672E88
:1016B0002E2E0020573A0042656420636F6F6C69DC
:1016C0006E672E2E2E004265642068656174696E17
:1016D000672E2E2E00205A3A0020593A0020436FE0
:1016E000756E7420583A0020453A00205A3A00207E
:1016F000593A00583A003A004361703A00205A00C3
:10170000205900580020204D61783A2000205A00CE
:10171000205900580020204D696E3A20004F6E205D
:10172000004F666600536F667420656E6473746F55
:1017300070733A200023646566696E6520444546EF
:1017400041554C545F4B64200023646566696E65A7
:101750002044454641554C545F4B69200023646545
:1017600066696E652044454641554C545F4B702078
:1017700000504944204175746F74756E6520666928
:101780006E697368656421205075742074686520E3
:101790006C617374204B702C204B6920616E642047
:1017A0004B6420636F6E7374616E74732066726F26
:1017B0006D2062656C6F7720696E746F20436F6E69
:1017C00066696775726174696F6E2E680A005049A8
:1017D00044204175746F74756E65206661696C652F
:1017E00064212074696D656F75740A004531205459
:1017F0004845524D414C2052554E41574159005495
:101800006865726D616C2052756E61776179004513
:10181000312048656174696E67206661696C656432
:101820000048656174696E67206661696C65640073
:10183000504944204175746F74756E652066616906
:101840006C6564212054656D706572617475726594
:1018500020746F6F20686967680A00204B643A2023
:1018600000204B693A2000204B703A20000A2043A8
:101870006C617373696320504944200A00205475D9
:101880003A2000204B753A2000206D61783A200004
:10189000206D696E3A200020643A20002062696160
:1018A000733A2000504944204175746F74756E6519
:1018B0002073746172740A00504944204175746F3A
:1018C00074756E65206661696C6564212054656D70
:1018D000706572617475726520746F6F20686967D6
:1018E000680A00504944204175746F74756E652014
:1018F0006661696C65642120426164206578747258
:1019000075646572206E756D6265720A004F666659
:101910000A00466164652048656967687420004272
:101920006564204C6576656C696E67200046616968
:101930006C656420746F20656E61626C6520426521
:1019400064204C6576656C696E670A00536C65654A
:10195000702E2E2E00486F6D6520585920666972D2
:1019600073740A00486F6D65205859206669727358
:101970007400205A3A200020593A20004265642021
:10198000583A20004D65736820706F696E7420634B
:10199000616E6E6F74206265207265736F6C766520
:1019A000640A00436C69636B20746F207265737501
:1019B0006D652E2E2E004E6F206D6F76652E0045C4
:1019C0006E642066696C65206C6973740A004265F8
:1019D00067696E2066696C65206C6973740A0028FB
:1019E0006E6F2066696C65290043757272656E744E
:1019F0002066696C653A20005344207072696E74E9
:101A0000696E67206279746520004E6F74205344BC
:101A1000207072696E74696E670A0025697300250B
:101A2000696D20256973002569682025696D202569
:101A3000697300256964202569682025696D202562
:101A40006973002569792025696420256968202546
:101A5000696D20256973005072696E742074696D18
:101A6000653A20006F6666002B1426141F141814A4
:101A70000A1444454255473A004B494C4C45442EC4
:101A800020004D3131332053006F6B00456E64658B
:101A9000722D33204F66662E002C20002C2000541F
:101AA0004845524D414C5F50524F54454354494F65
:101AB0004E004155544F5245504F52545F53445F6E
:101AC00053544154555300454D455247454E435993
:101AD0005F50415253455200434153455F4C494783
:101AE00048545F4252494748544E45535300544F5F
:101AF00047474C455F4C494748545300534F465461
:101B0000574152455F504F574552004255494C444A
:101B10005F50455243454E54004C4556454C494E46
:101B2000475F44415441005A5F50524F4245004183
:101B300055544F4C4556454C005052494E545F4AFF
:101B40004F420050524F4752455353004155544F56
:101B50005245504F52545F54454D5000564F4C55CE
:101B60004D455452494300454550524F4D00534551
:101B70005249414C5F584F4E5F584F4646004649C8
:101B8000524D574152455F4E414D453A4D61726C41
:101B9000696E20312E312E392028476974687562AC
:101BA0002920534F555243455F434F44455F55529B
:101BB0004C3A68747470733A2F2F67697468756251
:101BC0002E636F6D2F4D61726C696E4669726D7711
:101BD0006172652F4D61726C696E2050524F544F87
:101BE000434F4C5F56455253494F4E3A312E3020A9
:101BF0004D414348494E455F545950453A456E64FE
:101C000065722D332045585452554445525F434F19
:101C1000554E543A3120555549443A63656465320E
:101C20006132662D343161322D343734382D3962CA
:101C300031322D6335356336326633363766660AA0
:101C4000002F2F20004D31343520533C696E6465E0
:101C5000783E206F7574206F662072616E67652014
:101C600028302D31290A002054002052004163639E
:101C7000656C65726174696F6E3A2050005741520D
:101C80004E494E4721204C6F77205A204A65726B8F
:101C9000206D6179206C65616420746F20756E77AA
:101CA000616E746564207061757365732E0A004FF0
:101CB000666673657473206170706C696564004555
:101CC00072723A20546F6F206661722100546F6FF8
:101CD000206661722066726F6D207265666572653E
:101CE0006E636520706F696E740A0020466C6F77B2
:101CF0003A200000010F150E12FFFFFFFF16170E0E
:101D000013FFFFFFFF03021A14FFFFFFFFFFFFFF98
:101D10000C04FFFFFF01000EFFFFFF0C190DFF1861
:101D20003A200020536572766F2000206F75742072
:101D30006F662072616E67650A00536572766F2068
:101D400000496E76616C69642065787472756465AB
:101D5000720A0020643A0020693A0020703A004379
:101D6000290A0061626C656420286D696E207465C3
:101D70006D702000436F6C642065787472756465C3
:101D8000732061726520004E6F2063617365206C63
:101D9000696768740A004D65736820706F696E74B6
:101DA0002063616E6E6F74206265207265736F6C64
:101DB0007665640A004D34323120696E636F727249
:101DC00065637420706172616D65746572207573EE
:101DD0006167650A00454550524F4D204F4B0A0040
:101DE0003F5A206F7574206F662072616E676520A0
:101DF000282D323020746F203230290A003A20001A
:101E000050726F6265205A204F6666736574004198
:101E100063746976652045787472756465723A20DA
:101E200000496E76616C69642065787472756465CA
:101E3000720A00526573656E643A20006F6B002071
:101E4000746F6F206C6F6E6720657874727573693C
:101E50006F6E2070726576656E7465640A0020632B
:101E60006F6C6420657874727573696F6E20707220
:101E70006576656E7465640A00627573793A2070E0
:101E8000617573656420666F7220696E7075740A7F
:101E900000627573793A2070617573656420666FAE
:101EA0007220757365720A00627573793A207072D8
:101EB0006F63657373696E670A004B494C4C454408
:101EC0002E20004B494C4C20636175736564206281
:101ED0007920746F6F206D75636820696E6163741B
:101EE0006976652074696D65202D20637572726551
:101EF0006E7420636F6D6D616E643A2000506C6586
:101F0000617365207265736574005052494E544583
:101F1000522048414C544544005072696E746572B9
:101F20002068616C7465642E206B696C6C282920B4
:101F300063616C6C6564210A000000000000000011
:101F400000000000000000A0410000A0410000804F
:101F500040000000005761726E696E673A20486F5A
:101F60006D696E672042756D702044697669736F84
:101F700072203C20310A000202040000A040000050
:101F8000A0400000004000006B4300006B430000D5
:101F90007A43FFFFFF7C3C3E5E2B3D3F2F5B5D3B6A
:101FA0002C2A225C004572726F7220777269746904
:101FB0006E6720746F20454550524F4D210A004DE9
:101FC0006F76652058004D6F76652059004D6F760D
:101FD00065205A004578747275646572004D6F769D
:101FE0006520302E316D6D004D6F766520316D6D41
:101FF000004D6F76652031306D6D004D6F76652038
:1020000061786973004578747275646572004D6F0C
:102010007665205A004D6F76652059004D6F7665C4
:102020002058004578747275646572004D6F76654E
:10203000205A004D6F76652059004D6F7665205807
:102040000050726570617265004C6F616420736549
:102050007474696E677300526573746F726520667D
:1020600061696C736166650053746F726520736596
:102070007474696E677300424C546F7563680046F0
:10208000696C616D656E74004D6F74696F6E00549C
:10209000656D7065726174757265004D61696E0081
:1020A0004D333033205531204525692053256900B3
:1020B000504944204175746F74756E6500504944F1
:1020C000204175746F74756E65005049442D44004D
:1020D0005049442D44005049442D49005049442D55
:1020E00049005049442D50005049442D50002008CB
:1020F0002046616374002008204661637400200854
:10210000204D6178002008204D6178002008204D86
:10211000696E002008204D696E004F6666004F6EA4
:1021200020004175746F74656D700046616E207398
:10213000706565640046616E207370656564004279
:10214000656400426564004E6F7A7A6C65004E6F7C
:102150007A7A6C6500436F6E74726F6C0050726FA8
:102160006265205A204F66667365740050726F6214
:1021700065205A204F666673657400436F6E7472F3
:102180006F6C0046696C2E204469612E0046696CB4
:102190002E204469612E004F6666004F6E20004578
:1021A00020696E206D6D3300436F6E74726F6C002A
:1021B00043616E6E6F7420656E7465722073756214
:1021C0006469723A2000022E2E0001526566726523
:1021D0007368004D61696E004D61782054656D70C3
:1021E0003A20313235004D696E2054656D703A20C9
:1021F0003500544265643A4550434F5320313030E6
:102200004B004D61782054656D703A2032373500AF
:102210004D696E2054656D703A20350054303A2077
:102220004550434F53203130304B005053553A20E6
:1022300047656E657269630050726F746F636F6C8F
:102240003A20312E3000426175643A203131353206
:102250003030004D656C7A692028437265616C6985
:102260007479290042696C696E656172204C6576EB
:10227000656C696E67004578747275646572733A4F
:10228000203100687474703A2F2F6D61726C696E22
:1022900066772E6F726700456E6465722D3300326B
:1022A0003031382D30382D303100312E312E39007B
:1022B0004D61726C696E00546865726D6973746FFC
:1022C000727300426F61726420496E666F005072D3
:1022D000696E74657220496E666F004D61696E00AB
:1022E00000002100240027002A0000002200250011
:1022F00028002B00000020002300260029000202F5
:10230000020202020202040404040404040403039B
:1023100003030303030301010101010101010102A0
:1023200004081020408001020408102040800102AF
:1023300004081020408080402010080402010000A2
:1023400000010200090A0000000004030807000061
:10235000000000000000000000000000000020203D
:10236000506C616E6E657242756666657242797414
:1023700065733A20002046726565204D656D6F7269
:10238000793A2000312E312E390A004D61726C6984
:102390006E0020536F6674776172652052657365B5
:1023A000740A00205761746368646F672052657314
:1023B00065740A002042726F776E206F7574205228
:1023C000657365740A002045787465726E616C20CF
:1023D00052657365740A00506F77657255700A0014
:1023E00073746172740A006175746F25692E6700D9
:1023F0006572726F722077726974696E6720746F8C
:102400002066696C650A00456E6473746F70732092
:10241000256320256320256320256300205A3A0088
:1024200020593A0020583A00656E6473746F7073D7
:10243000206869743A2000446F6E65207361766984
:102440006E672066696C652E0A004D3239004D3288
:1024500034004D323320257300556E6B6E6F776EEE
:1024600020636F6D6D616E643A20220050726F625E
:10247000696E67206661696C65640A0050726F62FC
:10248000696E67206661696C656400205A3A2000B5
:1024900020593A200042656420583A2000534420D5
:1024A00063617264206F6B0A006F70656E526F6FAC
:1024B00074206661696C65640A00766F6C756D6581
:1024C0002E696E6974206661696C65640A00534404
:1024D00020696E6974206661696C0A00486F6D65D9
:1024E0002025732573257320666972737400206636
:1024F000697273740A005A0059005800486F6D657C
:10250000200057726974696E6720746F2066696C69
:10251000653A20006F70656E206661696C65642C99
:102520002046696C653A20006F70656E20666169AF
:102530006C65642C2046696C653A200046696C65C0
:102540002073656C65637465640A002053697A655D
:102550003A200046696C65206F70656E65643A20AC
:10256000002066696C653A2000646F696E670066DA
:1025700072657368004E6F772000454E44205355B6
:1025800042524F5554494E450A002220706F730045
:102590002220706172656E743A2200535542524F88
:1025A0005554494E452043414C4C20746172676537
:1025B000743A22004B494C4C45442E2000747279E9
:1025C000696E6720746F2063616C6C207375622D77
:1025D00067636F64652066696C65732077697468EA
:1025E00020746F6F206D616E79206C6576656C73F9
:1025F0002E204D4158206C6576656C2069733A0039
:102600004572726F723A006F70656E206661696C18
:1026100065642C2046696C653A200043616E6E6FDC
:1026200074206F70656E2073756264697220006536
:1026300063686F3A0000060900FE0701920321203B
:102640007FFF07FF07FF00000006000001070706E5
:10265000020080808080800080030202060105A0C5
:10266000A00507070600005050F850F85050050725
:10267000070600002078A07028F020050707060054
:1026800000C0C81020409818050707060000609099
:10269000A040A89068020303060104C0408003071D
:1026A00007060100204080808040200307070601C4
:1026B000008040202020408005050506000120A85C
:1026C00070A8200505050600012020F8202002033F
:1026D000030602FFC04080050101060003F8020264
:1026E00002060200C0C005050506000108102040D2
:1026F00080050707060000708888888888700307AF
:102700000706010040C040404040E00507070600C2
:1027100000708808708080F8050707060000F81030
:1027200020100808F005070706000010305090F848
:102730001010050707060000F880F00808887005EB
:102740000707060000708080F0888870050707067C
:102750000000F80810202020200507070600007060
:102760008888708888700507070600007088887858
:10277000080870020505060200C0C000C0C00206BD
:10278000060602FFC0C000C0408004070706000024
:1027900010204080402010050303060002F800F8D6
:1027A000040707060100804020102040800507072D
:1027B00006000070880810200020050707060000AA
:1027C00070880868A8A87005070706000070888848
:1027D000F8888888050707060000F08888F0888850
:1027E000F005070706000070888080808870050764
:1027F00007060000F08888888888F005070706002B
:1028000000F88080F08080F8050707060000F88057
:1028100080F0808080050707060000708880B888F7
:102820008870050707060000888888F8888888016E
:1028300007070602008080808080808005070706E9
:10284000000038101010109060050707060000887F
:1028500090A0C0A0908805070706000080808080B7
:102860008080F805070706000088D8A8888888882F
:102870000507070600008888C8A898888805070704
:1028800006000070888888888870050707060000A1
:10289000F08888F08080800507070600007088882F
:1028A00088A89068050707060000F08888F0A090C7
:1028B00088050707060000788080700808F0050783
:1028C00007060000F820202020202005070706002A
:1028D000008888888888887005070706000088882F
:1028E000888888502005070706000088888888881F
:1028F000A8500507070600008888502050888805E2
:102900000707060000888888502020200507070652
:102910000000F80810204080F8030707060100E0D7
:102920008080808080E00505050600018040201041
:1029300008030707060100E02020202020E005030F
:1029400003060004205088050101060000F8020279
:10295000020602058040050505060000700878881B
:10296000780507070600008080B0C88888F0050554
:1029700005060000708080887005070706000008C3
:102980000868988888780505050600007088F88032
:10299000700507070600003048E04040404005064B
:1029A000060600FF70888878087005070706000093
:1029B0008080B0C8888888010707060200800080F0
:1029C000808080800308080601FF2000202020204E
:1029D000A040040707060000808090A0C0A09003DC
:1029E0000707060100C04040404040E005050506DD
:1029F0000000D0A8A8A8A8050505060000B0C88852
:102A00008888050505060000708888887005060618
:102A10000600FFF08888F080800506060600FF7833
:102A20008888780808050505060000B0C880808001
:102A300005050506000070807008F0040707060011
:102A4000004040E040404030050505060000888811
:102A500088986805050506000088888850200505C7
:102A6000050600008888A8A850050505060000880E
:102A7000502050880506060600FF88888878087070
:102A8000050505060000F8102040F80307070601B9
:102A9000002040408040402001070706020080805F
:102AA000808080808003070706010080404020402E
:102AB0004080050202060002689000000006000047
:102AC00000060900FE000000000001090008FE00E9
:102AD0000005080806000040F0C8888898781005AE
:102AE0000808060000C0F88888888888F805050569
:102AF0000600012030F8302005080806000020708C
:102B0000F820202020E00509090600FF2070A8A871
:102B1000B8888870200509090600FFE080C0B0A8C9
:102B2000283028280509090600FFF8A88888888821
:102B300088A8F8050A0A0600FE205050505088A8C0
:102B4000A8887003030306000340A04032DE5DDC6A
:102B500011241FBECFEFD0E4DEBFCDBF12E0A0E056
:102B6000B1E0E8ECFDED01E00BBF02C007900D9273
:102B7000AC35B107D9F723E1ACE5B2E001C01D9255
:102B8000A33AB207E1F715E1C7EAD5E104C02197FE
:102B9000FE010E9448EEC63AD107C9F70E9432DF13
:102BA0000C94D7EE0C940000609113017091140105
:102BB000072E000C880B990B0E94B6E72AE037ED30
:102BC00043E25CE30E9415E82091E8073091E907B1
:102BD0004091EA075091EB070E9415E860930F01BE
:102BE0007093100180931101909312010895119830
:102BF0000000000087FD52C0419800000000119ABB
:102C00000000000011980000000086FD53C04198AC
:102C100000000000119A0000000011980000000060
:102C200085FD46C0419800000000119A0000000098
:102C300011980000000084FD39C041980000000098
:102C4000119A0000000011980000000083FD2CC0C4
:102C5000419800000000119A000000001198000047
:102C6000000082FD1FC0419800000000119A000082
:102C7000000011980000000081FD12C04198000082
:102C80000000119A00000000119800000000419817
:102C900000000000119A000000000895419AADCF95
:102CA000419AEDCF419AE0CF419AD3CF419AC6CF16
:102CB000419AB9CF419AACCF90916F00292F2270E1
:102CC00091FF05C090916F009D7F90936F0034E05D
:102CD000839FC0011124FC01E753F84F40815181CB
:102CE00062817381885A974FFC01408351836283CC
:102CF000738381E08093C807222329F080916F00BD
:102D0000826080936F000895BC0120915608309135
:102D1000570840915608509157082417350731F449
:102D200081E02617370709F080E008959A01F1CF76
:102D3000CF92DF92EF92FF928091A80A882309F444
:102D400057C0C090A40AD090A50AE090A60AF090BF
:102D5000A70A20E030E0A901C701B6010E94AFE751
:102D6000882309F445C020E030E040E05FE3C7017C
:102D7000B6010E9415E89B01AC010E9415E82BEDFD
:102D80003FE049E450E40E9415E89B01AC0160E09B
:102D900070E080E89FE30E948AEC6B017C01C092A6
:102DA000E807D092E907E092EA07F092EB0760911A
:102DB000130170911401072E000C880B990B0E94CF
:102DC000B6E72AE037ED43E25CE30E9415E8A7018D
:102DD00096010E9415E860930F0170931001809393
:102DE000110190931201FF90EF90DF90CF90089522
:102DF000C12CD12C80E8E82E8FE3F82ED0CFCF93D2
:102E0000DF938091C90A811105C08091CA0A882385
:102E100009F459C08091050832994FC08E7F809384
:102E200005088091050833994AC08D7F8093050875
:102E300080910508349945C08B7F80930508C09127
:102E40004908C0FF10C080910F0880FF0CC080911E
:102E5000050880FF08C08091DC0A81608093DC0A4D
:102E600080E00E945C16C1FF10C080910F0881FFB6
:102E70000CC08091050881FF08C08091DC0A826047
:102E80008093DC0A81E00E945C16C2FF1CC0809126
:102E90000F0882FF18C08091CA0A8823A1F0809190
:102EA000050882FF10C08091DC0A84608093DC0AF0
:102EB00082E0DF91CF910C945C168160B0CF82608C
:102EC000B5CF8460BACFDF91CF9108950C9403BC45
:102ED0009F92AF92BF92CF92DF92EF92FF920F93A9
:102EE0001F93CF93DF935B01E9014A3009F4C4C01B
:102EF000453109F067C0DB011296ED91FC91F2803B
:102F0000C681D781139A88E290E00197F1F7EF2C00
:102F1000E29420EFE22230E1932E9F0C48E2C42E8F
:102F2000D12C88EF0E94F715C6010197F1F7BFE198
:102F3000BF1508F488C08F2D807780680E94F71530
:102F40008E2D0E94F715C6010197F1F780E80E94C7
:102F5000F71580E00E94F715C6010197F1F78AEF97
:102F60000E94F715C6010197F1F78E01005F1F4F10
:102F70008881807F0E94F71589918295807F0E94C9
:102F8000F715C017D107A1F7C6010197F1F7F39420
:102F9000E0E1EE0EF910C5CF1398D50112960D9110
:102FA0001C91C8010E9401BE8111FEC1DF91CF9129
:102FB0001F910F91FF90EF90DF90CF90BF90AF9057
:102FC0009F900895FB0102811381ECEEE40FE4333E
:102FD00008F050C0F0E0E151F84E0C9448EE7C1936
:102FE000D1173A18C4193A183A183A183A183A1830
:102FF0003A183A183A183A183A183A183A183A1841
:103000003A183A183A183A183A183A183A183A1830
:103010003A183A183A183A183A18BE193A183A189B
:103020003A183A183A183A183A183A188F193A18BA
:103030003A183A183A183A183A183A183A183A1800
:103040003A18E119361880EE8F0D8068807F0E9453
:10305000F7158F2D8295807F0E94F715C601019785
:10306000F1F780E80E94F71580E874CFD801119637
:103070008C91888381E09ACF0B9A1398399A419862
:10308000099A119A139A88E290E00197F1F788E77C
:1030900090E0CEE9DFE0FE013197F1F70197D9F733
:1030A00088EF0E94F71508E210E0C8010197F1F7D8
:1030B00080E20E94F71580E00E94F715C801019791
:1030C000F1F780E00E94F71580E80E94F715C8012B
:1030D0000197F1F780E00E94F71580E10E94F71553
:1030E000C8010197F1F7CE010197F1F7CE010197E1
:1030F000F1F7CE010197F1F7CE010197F1F7CE017B
:103100000197F1F7CE010197F1F7CE010197F1F7A1
:10311000CE010197F1F7CE010197F1F7CE010197AA
:10312000F1F7CE010197F1F7CE010197F1F7CE014A
:103130000197F1F7CE010197F1F72197F1F780E2BE
:103140000E94F71580E40E94F715C8010197F1F776
:1031500080E20E94F71580E60E94F715C8010197EA
:10316000F1F700E010E0C8E2D0E0812F80778068BE
:103170000E94F715802F0E94F715CE010197F1F7F5
:1031800080E80E94F71580E00E94F715CE010197B4
:10319000F1F78AEF0E94F715CE010197F1F780E26F
:1031A000119800000000419800000000119A0000F2
:1031B0000000119800000000419800000000119AE2
:1031C000000000001198000000004198000000007D
:1031D000119A0000000011980000000041980000C2
:1031E0000000119A000000001198000000004198B2
:1031F00000000000119A000000001198000000007B
:10320000419800000000119A000000001198000091
:103210000000419800000000119A00000000119881
:1032200000000000419800000000119A000000001A
:10323000119800000000419800000000119A000061
:103240000000119800000000419800000000119A51
:1032500000000000119800000000419800000000EC
:10326000119A000000001198000000004198000031
:103270000000119A00000000119800000000419821
:1032800000000000119A00000000119800000000EA
:10329000419800000000119A000000001198000001
:1032A0000000419800000000119A000000001198F1
:1032B00000000000419800000000119A000000008A
:1032C000FE013197F1F7815009F06ACF88EF0E9433
:1032D000F715CE010197F1F71F5F005F103209F07B
:1032E00044CF80E00E94F71580EC0E94F7152197EB
:1032F000F1F7139881E05ACED80115964C911597A5
:1033000050E0440F551F70E060E016968D919C913F
:103310000E946FEEC8010E9417BE81E047CE8981EE
:103320002B81D80112966C91129713964C912130F3
:1033300009F467C0233009F048C038EF380F582F20
:1033400091E0431708F490E041E0531708F040E0A3
:1033500031E0561708F430E0592F542B352319F477
:10336000942309F487CEFA8030E0F901E551FE4F4D
:10337000D08029513E4FF901E08040C0B901C80119
:103380000E94EBBD81E012CE1882D80112968C917A
:103390001297898315968C91159781508A8313967D
:1033A0008C918B8381E002CEF801458150E0440F7F
:1033B000551F70E060E0868197810E946FEE81E08A
:1033C000F5CDF8018581888355CE481708F452CE93
:1033D000861708F44FCEFA80E12CD12C243070F4FB
:1033E000C3CFBE01C8010E94EBBD898198819D0DAC
:1033F00098838E0D8983FF0C09F43CCEF7FEF6CF3F
:10340000F0CF58E0580F382F9BCF3F924F925F92EA
:103410006F927F928F929F92AF92BF92CF92DF92E4
:10342000EF92FF920F931F93CF93DF93EC01162F30
:10343000DCAC5BAC5C0124E0A20EB11CE98DFA8D22
:10344000C5010995982EE884F984C7010E94CFBF71
:10345000082F888599850E94D2BF782E88248A9467
:10346000013011F48FE0882E888599850E94C5BFB0
:10347000082F888599850E94C1BFC82E88859985A7
:103480000E94C9BF113670F0009761F0E80EF91E76
:1034900001E6C116B8F41C8A1F8A188E1D8A1E8A7E
:1034A00080E05BC0888599850E94CCBF113430F0E4
:1034B000009721F0E80EF91E01E4EBCF81E1E80E60
:1034C000F11CE7CFC01638F3872D90E0F701249167
:1034D0002F3F39F4FFEFEF1AFF0AC016E1F20F5F3A
:1034E000F5CF101368C0888599850E94CFBF9701DA
:1034F0002F5F3F4FF701882319F0823009F044C055
:1035000084918F8BF9012491288FF7013396E491F0
:10351000EC8BF7013496E491ED8BF7013596E4914D
:10352000EE8BE114F10409F4BBCF888599850E94E4
:10353000D2BF782ECF88388C8D89580E1D2D131947
:103540008E89181B190D032D2C2D412F652DC501BA
:103550000E94DCBF811138C08C899BAD890F8BAF75
:1035600081E090E0DF91CF911F910F91FF90EF905C
:10357000DF90CF90BF90AF909F908F907F906F9093
:103580005F904F903F9008958491982F9F70925034
:103590009E8B82958F708D8BF9012491822F8F7075
:1035A000888F22952F702F8BF7013296E491E29548
:1035B000EF70EC8BB6CF3296E491E821E80FF92F4B
:1035C000F11DEE0EFF1E89CFE70CF11C07E00C0D7C
:1035D000069506950695310E4E01F0E28F0E911C70
:1035E000602E712C131509F4B7CF452C670112C05A
:1035F000F60184916E817F8148A219A31BA28AA340
:1036000094014BE3C5010E941EBEFFEFCF1ADF0AF3
:1036100028E0420E8C2D8E19801750F3E60CF71C13
:103620001F5FE0CF1F93CF93DF93182FEB01FE01B5
:103630008491219681110AC0C4EAD4E0FE018491EC
:103640002196882331F00E94E478F8CF0E94E47834
:10365000EECFCFE9D4E0112311F0C5E9D4E0FE01AB
:1036600084912196882319F00E94E478F8CF8AE0AB
:10367000DF91CF911F910C94E478CF93DF93803941
:103680009240A1F0C0E0D6E2FE0184912196811122
:103690000AC0C7ECD0E0FE0184912196882351F046
:1036A0000E94E478F8CF0E94E478EECF80E0DF91CA
:1036B000CF91089581E0FBCF4F925F926F927F92FE
:1036C0008F929F92AF92BF92CF92DF92EF92FF9232
:1036D000CF93DF93CDB7DEB76A970FB6F894DEBF0E
:1036E0000FBECDBF9A8F898F5B014A01DC01D7964F
:1036F0006D917D918D919C91DA970E94B4E76B0159
:103700007C01F50120813181428153810E9415E8BD
:103710000E9473EC0E9403ED3B015C01D4012D91EA
:103720003D914D915C91C701B6010E9415E80E9440
:1037300073EC0E9403ED6D827E82AF82B8862D818C
:103740003E814F815885283731054105510540F4A8
:1037500028E730E040E050E02D833E834F835887D8
:1037600069837A838B839C8389819A81AB81BC81B5
:1037700088379105A105B10540F428E730E040E025
:1037800050E029833A834B835C83E98DFA8DED5BAE
:10379000FF4F80819181A281B38189879A87AB870E
:1037A000BC87BC01CD010E94B6E72B013C016D81B5
:1037B0007E818F8198850E94B4E7698B7A8B8B8B91
:1037C0009C8B20E030E0A901C301B2010E94AFE769
:1037D000882309F43BC1A7019601C701B6010E94E5
:1037E00015E84B015C0129893A894B895C89CA013A
:1037F000B9010E9415E89B01AC01C501B4010E940A
:1038000006EC4B015C01A3019201C301B2010E94CD
:1038100007EC9B01AC01C501B4010E948AEC0E9437
:1038200073EC0E9403ED6D877E878F87988B698587
:103830007A858B859C8590958095709561957F4F55
:103840008F4F9F4F0E94B6E74B015C0169817A81DF
:103850008B819C810E94B4E769877A878B879C87DC
:1038600020E030E0A901C501B4010E94AFE7882340
:1038700009F4F0C029853A854B855C85CA01B901F8
:103880000E9415E86D8B7E8B8F8B988FA701960118
:10389000C701B6010E9415E89B01AC016D897E89C4
:1038A0008F89988D0E9406EC6B017C01A501940123
:1038B000C501B4010E9407EC9B01AC01C701B60130
:1038C0000E948AEC0E9432EDA98DBA8D95968D905A
:1038D0009D90AD90BC909897750164012D853E85B3
:1038E0004F855889C21AD30AE40AF50A0E9403EDEB
:1038F000C61AD70AE80AF90AF7FE6EC020E030E0DF
:10390000A901C301B2010E94AFE7882309F4A6C050
:10391000C501B4010E94B4E76B017C01A3019201CF
:10392000C301B2010E9407EC9B01AC01C701B601C3
:103930000E9415E86B017C0129893A894B895C89D1
:10394000CA01B9010E9415E89B01AC01C701B6018B
:103950000E9406EC6B017C0129853A854B855C85CC
:10396000CA01B9010E9415E89B01AC01C701B6016B
:103970000E9407EC6B017C0120E030E040E850E45D
:10398000C301B2010E9415E89B01AC01C701B60159
:103990000E948AEC0E9473EC6B017C0120E030E015
:1039A000A9010E948AED18161CF0C12CD12C7601B9
:1039B000C701B6010E9403ED6D877E878F87988BC4
:1039C00086169706A806B90620F48D869E86AF86D1
:1039D000B88AC12CD12C76018D859E85AF85B8899A
:1039E000E98DFA8D82A793A7A4A7B5A7C80ED91E03
:1039F000EA1EFB1EDF01C6A6D7A6E0AAF1AA2D810A
:103A00003E814F81588523AF34AF45AF56AFDF9627
:103A100029813A814B815C812D933D934D935C9339
:103A200013976A960FB6F894DEBF0FBECDBFDF9135
:103A3000CF91FF90EF90DF90CF90BF90AF909F908D
:103A40008F907F906F905F904F90089560E070E04E
:103A5000CB01E5CE60E070E0CB0134CF60E070E0F8
:103A6000CB0198CFCF92DF92EF92FF92CF93C82FE6
:103A70000E94F7BB6B017C0124EA30E74DE75FE36E
:103A80006091930A7091940A8091950A9091960A98
:103A90000E94AFE787FD18C08AEF90E0A0E0B0E099
:103AA0008C0D9D1DAE1DBF1D8093AE0A9093AF0A75
:103AB000A093B00AB093B10AC0934D01CF91FF908B
:103AC000EF90DF90CF90089580E090E0DC01E8CFA8
:103AD000CF93DF9300D000D0CDB7DEB7882349F075
:103AE0000E943EC30F900F900F900F90DF91CF91E7
:103AF000089588EB91E09C838B8384E190E09A8326
:103B00008983BE016D5F7F4FCE0101960E9446B74B
:103B1000E9CF8091EF088230B1F09091B80F9923EE
:103B200059F08091C90F811104C08CEB9FE00C9477
:103B30004BB689EC9FE0FBCF813041F087EB91E100
:103B40006FEF0C9452CA82ED91E1FACF86EC91E1CD
:103B5000F7CF282F1092BC0A8091610C9091620CD3
:103B6000A091630CB091640C81309048A105B1051F
:103B700040F01092610C1092620C1092630C109243
:103B8000640C8091B70A882331F08091610C809396
:103B9000AB0A1092AA0A8091A90A1816FCF4082E02
:103BA000000C990B821B91092091AB0A022E000C8C
:103BB000330B2817390794F097FF02C090E080E09C
:103BC0008093AB0A092E000CAA0BBB0B8093610CEF
:103BD0009093620CA093630CB093640C8091AB0A39
:103BE0006623A9F09091AC0A891714F48093AC0A6B
:103BF0002091AC0A022E000C330B2C5F3F4F482F54
:103C0000082E000C550B241735071CF484508093A4
:103C1000AC0A08958091D7088630D8F496E0899F41
:103C2000F0011124ED54F74F2091560130915701C6
:103C3000318320834091610C5091620C6091630C40
:103C40007091640C42835383648375838F5F809388
:103C5000D7080895CF92DF92EF92FF920F931F93B0
:103C6000CF93DF93EC016A017B0180915601909123
:103C700057018C179D0781F12EE2C53BD207A9F5AC
:103C80008458984271F40E94F7BB6E517B4F8F4F5E
:103C90009F4F6093AF087093B0088093B1089093E2
:103CA000B208D0935701C0935601C092610CD092D4
:103CB000620CE092630CF092640CC458D84221F478
:103CC0001092B60A1092D70882E08093660181E0D4
:103CD0008093AA0A1092BD0ADF91CF911F910F9194
:103CE000FF90EF90DF90CF90089528E2C438D2077C
:103CF000C1F6855B9E4219F0C4E8D8E2D2CF0E949B
:103D0000F7BB0091AF081091B0082091B108309135
:103D1000B208601B710B820B930B97FFEDCF809164
:103D20004A0F90914B0F891B8F7021F48091B80F2F
:103D3000882311F3CDE9DEE1B4CF40E050E0BA01D1
:103D40008FEE93E20E942A1E109200091092010940
:103D5000109202091092030981E08093B60A089537
:103D600040E050E0BA0184E898E20C942A1EE09109
:103D7000D708EE2389F0E150E093D70886E0E89F6A
:103D8000F0011124ED54F74F428153816481758114
:103D9000808191810C942A1E0C94B01EEF92FF92A8
:103DA0000F931F93CF93DF9361E081E00E94A91DE1
:103DB000C091AC0A85E0F82EFC0ED3E0DC1B12E0CB
:103DC0001C1B01E00C1BEC2EE194C1112DC0809155
:103DD000AB0A8823B1F080916601882359F081E015
:103DE0009091AB0A911180E024E047E453E16E2DFD
:103DF0000E946EC3CF5FFC12E8CF84E08093A90AD3
:103E00000CC08091BE0A882331F31092BE0A0E9432
:103E1000B71E8091AA0A8823F1F2DF91CF911F91FA
:103E20000F91FF90EF900895C13061F58091AB0A3A
:103E3000813079F0809166018823E1F281E09091F0
:103E4000AB0A913009F080E020E24BE353E1602FB0
:103E5000CFCF8091BE0A882369F31092BE0A4091A9
:103E6000F4075091F5076091F0077091F107809188
:103E7000EC079091ED070E94D9C98091AA0A882386
:103E8000C9F2CBCFC23009F042C08091AB0A823078
:103E900081F080916601882309F4ACCF81E0909194
:103EA000AB0A923009F080E020E24BE153E1612F50
:103EB0009FCF8091BE0A882361F31092BE0A409181
:103EC000F4075091F5076FEF7FEF8091EC07909129
:103ED000ED070E94D9C98091AA0A8823D1F29DCF0B
:103EE0008091BE0A8823D1F01092BE0A4091F40757
:103EF0005091F5076091F0077091F10790E080E034
:103F00000E94D9C98091AA0A882341F086CFC33084
:103F100009F070CF8091AB0A833011F38091660174
:103F2000882309F467CF81E09091AB0A933009F0C0
:103F300080E020E24BE253E16D2F5ACFEF92FF92E7
:103F40000F931F93CF93DF9361E081E00E94A91D3F
:103F5000C091AC0A85E0F82EFC0ED3E0DC1B12E029
:103F60001C1B01E00C1BEC2EE194C1112DC08091B3
:103F7000AB0A8823B1F080916601882359F081E073
:103F80009091AB0A911180E024E04BE753E16E2D54
:103F90000E946EC3CF5FFC12E8CF84E08093A90A31
:103FA0000CC08091BE0A882331F31092BE0A0E9491
:103FB000B71E8091AA0A8823F1F2DF91CF911F9159
:103FC0000F91FF90EF900895C13061F58091AB0A99
:103FD000813079F0809166018823E1F281E090914F
:103FE000AB0A913009F080E020E24FE653E1602F08
:103FF000CFCF8091BE0A882369F31092BE0A409108
:10400000F6075091F7076091F2077091F3078091DE
:10401000EE079091EF070E94D9C98091AA0A8823E0
:10402000C9F2CBCFC23009F042C08091AB0A8230D6
:1040300081F080916601882309F4ACCF81E09091F2
:10404000AB0A923009F080E020E24FE453E1612FA7
:104050009FCF8091BE0A882361F31092BE0A4091DF
:10406000F6075091F7076FEF7FEF8091EE07909181
:10407000EF070E94D9C98091AA0A8823D1F29DCF67
:104080008091BE0A8823D1F01092BE0A4091F607B3
:104090005091F7076091F2077091F30790E080E08C
:1040A0000E94D9C98091AA0A882341F086CFC330E3
:1040B00009F070CF8091AB0A833011F380916601D3
:1040C000882309F467CF81E09091AB0A933009F01F
:1040D00080E020E24FE553E16D2F5ACF2F923F92BF
:1040E0004F925F926F927F928F929F92AF92BF9208
:1040F000CF92DF92EF92FF920F931F93CF93DF93B4
:1041000000D000D0CDB7DEB761E081E00E94A91DEC
:104110001091AC0A612E85E0782E710E97E7892EFA
:1041200099249394A12CB12C05E0011B84E0F82E76
:10413000F11A83E0E82EE11A82E0D82ED11A24EF9A
:10414000222E33243394412C512C81E0C82EC11AE5
:1041500011113EC08091AB0A8823B9F080916601AD
:10416000882361F0662D619581E09091AB0A9111F1
:1041700080E024E04CE152E10E946EC31F5F7112A7
:10418000E7CF86E08093A90A0CC08091BE0A8823FD
:1041900029F31092BE0A0E94B71E8091AA0A8823B2
:1041A000E9F20F900F900F900F90DF91CF911F9138
:1041B0000F91FF90EF90DF90CF90BF90AF909F90C6
:1041C0008F907F906F905F904F903F902F900895C9
:1041D000113041F58091AB0A813079F08091660110
:1041E000882361F281E09091AB0A913009F080E080
:1041F00020E244E052E16C2DBFCF8091BE0A8823BB
:1042000069F31092BE0A29823A824B825C82BE0117
:104210006F5F7F4F80EA0E9416738091AA0A8823FD
:10422000E9F2BFCF123009F080C08091AB0A823032
:1042300081F080916601882309F4A0CF81E09091FC
:10424000AB0A923009F080E020E245EF51E16D2D9C
:1042500093CF8091BE0A882361F31092BE0A8982AF
:104260009A82AB82BC82BE016F5F7F4F88E70E945B
:1042700016738091AA0A8823E1F293CF8091AB0A4A
:10428000833081F080916601882309F477CF81E043
:104290009091AB0A933009F080E020E249EE51E1C1
:1042A0006E2D6ACF8091BE0A882361F31092BE0AF8
:1042B0000E9450738091AA0A882321F372CF8091C3
:1042C000AB0A843081F080916601882309F456CFCF
:1042D00081E09091AB0A943009F080E020E24FED4C
:1042E00051E16F2D49CF8091BE0A882361F310926E
:1042F000BE0A0E9435738091AA0A882321F351CF08
:104300008091BE0A8823E9F01092BE0A89829A82BF
:10431000AB82BC82BE016F5F7F4F8CE30E9416733D
:104320008091AA0A882369F03CCF133009F4A6CF04
:10433000143029F2153009F021CF8091AB0A853075
:10434000F9F280916601882309F418CF81E09091F9
:10435000AB0A953009F080E020E24FE052E1602F97
:104360000BCF9CE0899F802D112491E0980F9093B2
:104370005F0C2CE0280F2093600C4091410F30E03F
:104380002E5F3F4F4217130609F0A4F42091430F0C
:10439000921780F4662341F08E5F0E94FEBF8091E9
:1043A000600C8E5F0E94FEBF8091600C1092440FE3
:1043B0008093450F0895CF93DF931F92CDB7DEB75B
:1043C0008091460F811105C081E08093460F0E94C5
:1043D00083BE60910F0F7091100F19829E012F5FA5
:1043E0003F4F4FE08DE09FE00E941EBE0F90DF9197
:1043F000CF9108950F931F93CF93C62F8C01CC2399
:1044000049F0F80181918F01882321F00E94E8B5DD
:10441000C150F5CFCF911F910F9108959FEF980F45
:10442000993020F40E94B3C981E008950E94E8B554
:10443000FBCF9FEF980F993010F40C94B3C90C94F4
:10444000E8B5CF93DF93EC01FE018491882321F03E
:104450000E9419222196F8CFDF91CF910895CF9332
:10446000DF93EC018991882319F00E941922FACF79
:10447000DF91CF910895AF92BF92CF92DF92EF92EA
:10448000FF920F931F93CF93DF935C017B010E94F8
:104490008DCFC82FC7010E94FFD004E110E0081B98
:1044A0001109DD24D394C017110619F014F082E02D
:1044B000D82E80910E0F90E06D2D70E06F5F7F4FD2
:1044C0000E9434EEC62EC6E0C60F8091410FC81779
:1044D00088F12091430F4C2F4B50550B2417150694
:1044E0004CF11092440FC093450FC5010E94EDB5E9
:1044F000D1E0E114F10499F08AE30E94E8B552E0BA
:10450000D5121AC0CC0D8091410FC81740F02091F0
:10451000430F4C2F4B50550B241715067CF4DF919D
:10452000CF911F910F91FF90EF90DF90CF90BF90B0
:10453000AF900895D0E0DDCFDD2389F3802F880F81
:10454000800F880F8093440FC093450F80E20E9434
:10455000E8B5C701DF91CF911F910F91FF90EF90C8
:10456000DF90CF90BF90AF900C942F223F924F924C
:104570005F926F927F928F929F92AF92BF92CF92F3
:10458000DF92EF92FF920F931F93CF93DF93CDB7FC
:10459000DEB72A970FB6F894DEBF0FBECDBF9A875D
:1045A0008987362E8091BE0A1092BE0A8823E1F0D8
:1045B0001092B60A0E94B71E2A960FB6F894DEBF74
:1045C0000FBECDBFDF91CF911F910F91FF90EF9064
:1045D000DF90CF90BF90AF909F908F907F906F9023
:1045E0005F904F903F9008958091610C9091620C84
:1045F000A091630CB091640C8D839E83AF83B887C8
:10460000892B8A2B8B2B09F454C094E0699F80017D
:104610001124F801E957F34F408051806280738084
:1046200080912301811184C020E030E04AE754E406
:10463000C301B2010E9406EC4B015C0120E030E0B6
:104640004AE754E4C301B2010E9407EC6B017C010C
:104650006D817E818F8198850E94B6E72091930AB3
:104660003091940A4091950A5091960A0E9415E85B
:10467000A30192010E9407EC2B013C018D819E81D8
:10468000AF81B885B7FF95C0A5019401C301B20100
:104690000E94AFE787FD85C0F801E957F34F4082DC
:1046A000518262827382832D0E94321D81E0809349
:1046B00066011092610C1092620C1092630C1092C1
:1046C000640C80916601882309F476CFA4E03A9EB9
:1046D000C0011124FC01E957F34F8958934FDC01C5
:1046E0002D913D914D915C91608171818281938189
:1046F0000E9407EC69837A838B839C832DEC3CECCE
:104700004CEC5DE36091930A7091940A8091950A54
:104710009091960A0E948AED87FD5CC0CE010196B9
:104720000E946FC0BC0189859A850E943B2244CFBC
:10473000A1E06A17A1F0B2E06B1711F18090F807C1
:104740009090F907A090FA07B090FB07C09017016E
:10475000D0901801E0901901F0901A0179CF809063
:10476000FC079090FD07A090FE07B090FF07C09057
:104770001B01D0901C01E0901D01F0901E0168CF3C
:104780008090000890900108A0900208B090030863
:10479000C0901F01D0902001E0902101F0902201F3
:1047A00057CFF801E957F34F80829182A282B382FA
:1047B0007ACFA7019601C301B2010E948AED1816B3
:1047C0000CF06ACFF801E957F34FC082D182E28240
:1047D000F38269CFCE0101960E94ABB8A3CFCF93ED
:1047E000DF9300D000D0CDB7DEB78091BE0A109223
:1047F000BE0A882359F01092B60A0E94B71E0F9085
:104800000F900F900F90DF91CF9108958091610CE0
:104810009091620CA091630CB091640C0097A1057B
:10482000B10589F11092610C1092620C1092630C28
:104830001092640C21E0209366012091760C22FFF7
:104840000AC02091E6073091E707280F391F3093FF
:10485000E7072093E607092E000CAA0BBB0B40913B
:104860000009509101096091020970910309840FB8
:10487000951FA61FB71F8093000990930109A0936D
:104880000209B093030980916601882309F4B7CF28
:1048900060910009709101098091020990910309CA
:1048A0000E94B6E72091F8083091F9084091FA0883
:1048B0005091FB080E9415E869837A838B839C835F
:1048C000CE0101960E94ABB8BC0180EC92E10E943F
:1048D0003B2295CFCF92DF92EF92FF920F93CF932F
:1048E000DF93982F862F6A017901692F0E94B121E9
:1048F0009091410F8091600C891708F445C0909108
:10490000430F80915F0C981708F43EC0C701002345
:1049100081F00E948DCFC82FD4E1D81BF60184917D
:10492000882351F00E940E22D81BFFEFCF1ADF0A16
:10493000F5CF0E94FFD0EFCF8AE30E94E8B5D150B7
:1049400010F080E2FACF8091600C9C2F990F990FA4
:10495000C91BCC0FC058C093440F8093450FC701AB
:10496000002349F0DF91CF910F91FF90EF90DF90FE
:10497000CF900C942122DF91CF910F91FF90EF9077
:10498000DF90CF900C942F22DF91CF910F91FF9069
:10499000EF90DF90CF9008958F929F92AF92BF9249
:1049A000CF92DF92EF92FF920F931F93CF93DF93FB
:1049B00061E081E00E94A91DC091AC0A85E0A82EAB
:1049C000AC0E86E0F82EFC1AD1E085E0E82EEC1A59
:1049D00084E0D82EDC1A83E0C82ECC1A82E0B82EF0
:1049E000BC1A9D2E9C1A8C2E8194C1112EC08091D0
:1049F000AB0A882389F080916601882309F443C0BB
:104A000081E09091AB0A911180E024E046E153E10E
:104A1000682D0E946EC337C08091BE0A882359F367
:104A20001092BE0A0E94B71E8091AA0A882319F329
:104A3000DF91CF911F910F91FF90EF90DF90CF907A
:104A4000BF90AF909F908F900895C130D1F5809125
:104A5000AB0A8130F9F0809166018823A1F011E062
:104A60008091AB0A813009F010E08091150190919E
:104A700016010E94B5C100E09C014AE053E1692D96
:104A8000812F0E946A24CF5FAC12AFCF87E0809362
:104A9000A90ACECF8091BE0A8823E9F21092BE0AFD
:104AA00010E000E027EE33E04AE050E065E171E01D
:104AB00080E193E10E9401BA8091AA0A882359F209
:104AC000B7CFC23009F0F4C08091AB0A8230B1F0A8
:104AD000809166018823B9F211E08091AB0A82309F
:104AE00009F010E08091010F9091020F0E94B5C172
:104AF00000E09C014CEF52E16B2DC2CF8091BE0AC9
:104B0000882331F31092BE0AD093BC0A1092B80ADF
:104B10001092B90A1092BA0A1092BB0A06E617E17F
:104B200024E031E050E040E061E07FE083E093E1A9
:104B30000E9401BA8091AA0A882351F279CF80910C
:104B4000AB0A8330B9F080916601882309F49BCFCA
:104B500011E08091AB0A833009F010E08091650C80
:104B60009091660C0E94B5C100E09C0144EF52E1B7
:104B70006C2D86CF8091BE0A882329F31092BE0A3D
:104B8000D093BC0A1092B80A1092B90A1092BA0ACD
:104B90001092BB0A01EA17E22EE630E050E040E056
:104BA00065E67CE088EF92E10E9401BA8091AA0A52
:104BB000882349F23DCF8091AB0A8430B9F08091CF
:104BC0006601882309F45FCF11E08091AB0A84303D
:104BD00009F010E08091670C9091680C0E94B5C1BB
:104BE00000E09C0140EE52E16D2D4ACF8091BE0A5B
:104BF000882329F31092BE0AD093BC0A1092B80AF7
:104C00001092B90A1092BA0A1092BB0A10E000E0A2
:104C10002FEF30E050E040E067E67CE08AEE92E182
:104C20000E9401BA8091AA0A882349F201CF80919B
:104C3000AB0A8530B9F080916601882309F423CF4F
:104C400011E08091AB0A853009F010E080911301EA
:104C5000909114010E94B5C100E09C0146ED52E123
:104C60006E2D0ECF8091BE0A882329F31092BE0AC2
:104C700004ED15E127EE33E04AE050E063E171E036
:104C80008BED92E10E9401BA8091AA0A882399F2E1
:104C9000CFCE8091BE0A8823D9F01092BE0A8DE94A
:104CA0009EE10E9479D18091AA0A882389F0C0CE22
:104CB000C33009F444CFC43009F47DCFC53009F4C2
:104CC000B6CFC63009F0DFCE8091AB0A863009F34B
:104CD00080916601882309F4D6CE81E09091AB0AD9
:104CE000963009F080E023E04BEC52E16F2D91CE3D
:104CF000CF93C82F823079F024F4813049F0CF91DE
:104D00000895833011F08430D1F785E396E205C031
:104D1000CF910C94C1C980EC9AE20E9404B6C09372
:104D2000C00AEDCF8F929F92AF92BF92CF92DF9247
:104D3000EF92FF920F931F93CF93DF93B0E4A0E025
:104D40006A2F70E0AB014B0F511D559547954A17DF
:104D500011F0B41319C0E1E9FEE065917491072EDA
:104D6000000C880B990B0E94B6E7DF91CF911F9141
:104D70000F91FF90EF90DF90CF90BF90AF909F90FA
:104D80008F900895B42FDECF9A0121503109220F60
:104D9000331F220F331FF901ED56F24FE590F490C7
:104DA000F901E956F24FC591D4918E159F0554F340
:104DB000A42FC817D9070CF4C3CFF901EB56F24F53
:104DC00005911491F901E756F24FC590D490BC01BA
:104DD0006E197F09072E000C880B990B0E94B6E70D
:104DE0004B015C01B601601B710B072E000C880B98
:104DF000990B0E94B6E79B01AC01C501B4010E946A
:104E000015E84B015C01BE016E197F09072E000CED
:104E1000880B990B0E94B6E79B01AC01C501B40158
:104E20000E948AEC6B017C01B801110F880B990B71
:104E30000E94B6E79B01AC01C701B6010E9407ECD6
:104E400094CF0F930FB70F9300916E000B7F0093D9
:104E50006E0078940F930BB70F930CB70F921F92BD
:104E60002F933F934F935F936F937F938F939F9372
:104E7000AF93BF93EF93FF9311240E944633FF91AA
:104E8000EF91BF91AF919F918F917F916F915F91C2
:104E90004F913F912F911F900F900CBF0F910BBF1F
:104EA0000F910460F89400936E000F910FBF0F9163
:104EB0001895CF92DF92EF92FF92C090DE07D090CC
:104EC000DF07E090E007F090E1076091650C7091DA
:104ED000660C66507109072E000C880B990B0E9416
:104EE000B6E7A70196010E948AED18160CF520E09E
:104EF00030E040E050E4C701B6010E9407EC0E9498
:104F000003ED70939108609390080E94F7BB605A7C
:104F100075418F4F9F4F60938C0870938D088093DD
:104F20008E0890938F08FF90EF90DF90CF900895B8
:104F300010928C0810928D0810928E0810928F0893
:104F4000F2CF0C9459278F929F92AF92BF92CF923B
:104F5000DF92EF92FF920F931F93CF93DF93B0E412
:104F6000A0E06A2F70E0AB014B0F511D559547959E
:104F7000A41711F0B41319C0E1E9FEE06591749132
:104F8000072E000C880B990B0E94B6E7DF91CF919A
:104F90001F910F91FF90EF90DF90CF90BF90AF9057
:104FA0009F908F900895B42FDECF9A012150310940
:104FB000220F331F220F331FF901ED56F24FE590F8
:104FC000F490F901E956F24FC591D4918E159F05E1
:104FD00054F3A42FC817D9070CF4C3CFF901EB562B
:104FE000F24F05911491F901E756F24FC590D49014
:104FF000BC016E197F09072E000C880B990B0E94CB
:10500000B6E74B015C01B601601B710B072E000C6B
:10501000880B990B0E94B6E79B01AC01C501B40156
:105020000E9415E84B015C01BE016E197F09072E35
:10503000000C880B990B0E94B6E79B01AC01C501DF
:10504000B4010E948AEC6B017C01B801110F880B3E
:10505000990B0E94B6E79B01AC01C701B6010E9403
:1050600007EC94CF80919C0890919D080E94922615
:105070006093030F7093040F8093050F9093060FB6
:1050800080919A0890919B080E94A3276093DE0765
:105090007093DF078093E0079093E107A895109243
:1050A000D90708950F931F938091EF08813019F568
:1050B0000E94F7BB009168081091690820916A0866
:1050C00030916B08601B710B820B930B28EE33E061
:1050D00040E050E00E94A3EB609164087091650885
:1050E0008091660890916708620F731F841F951F57
:1050F0001F910F91089560916C0870916D088091D7
:105100006E0890916F08D6CF3F924F925F926F9248
:105110007F928F929F92AF92BF92CF92DF92EF9247
:10512000FF920F931F93CF93DF93CDB7DEB72A97EC
:105130000FB6F894DEBF0FBECDBF1092BC0A8091AF
:10514000BE0A1092BE0A882309F10E94DB2140E0CA
:1051500050E0BA0185EB9EE20E942A1E2A960FB605
:10516000F894DEBF0FBECDBFDF91CF911F910F919D
:10517000FF90EF90DF90CF90BF90AF909F908F9077
:105180007F906F905F904F903F9008954091610C99
:105190005091620C6091630C7091640C2091150128
:1051A00030911601C901840F951F243631050CF08A
:1051B0009AC2853691050CF09DC29093160180939A
:1051C00015011092610C1092620C1092630C1092F7
:1051D000640C8091150190911601883EE3E09E07D2
:1051E00014F087EE93E08A30910514F48AE090E0A1
:1051F00090931601809315010E94F7BB0091D90886
:105200001091DA082091DB083091DC086B017C01F9
:10521000C01AD10AE20AF30A9701860137FD11C0CC
:105220002091D80820952093D8086A547C4F8F4F3E
:105230009F4F6093D9087093DA088093DB089093AE
:10524000DC083090D8080E94C1C98091410F853197
:10525000D8F4332051F08091670C9091680CFAE9F2
:10526000EF2EF0E1FF2E892B21F4EDE7EE2EEFE09B
:10527000FE2E03E128E741E068E08DE09FE00E9418
:10528000DCBF01E081116AC28091410F8D3108F0CD
:1052900044C1883060F56091010F7091020F072EB4
:1052A000000C880B990B0E94B6E720E030E040E04C
:1052B0005FE30E9407EC0E94FCECCB010E94B5C1A9
:1052C000FC01208130E0203229F4218133E02032BA
:1052D00009F436E025E0231B2093440F27E02093B8
:1052E000450F0E942F228AE79FE00E942122809191
:1052F000410F8D3108F059C08091430F853108F47A
:1053000054C020E030E040E05FE36091030F709113
:10531000040F8091050F9091060F0E9407EC0E94E8
:10532000FCECCB010E94B5C1FC01208130E02032B1
:1053300029F4218133E0203209F436E025E0231BF3
:105340002093440F2CE12093450F0E942F228AE7DF
:105350009FE00E9421228091410F853130F580919C
:10536000430F813110F16091010F7091020F072EF0
:10537000000C880B990B0E94B6E72091030F309127
:10538000040F4091050F5091060F0E948AED1816E8
:105390000CF0E7C110922D0F22E042E061E18DE0B8
:1053A0000E944BC081E080932D0F8091410F883087
:1053B00060F56091650C7091660C072E000C880BEF
:1053C000990B0E94B6E720E030E040E05FE30E94E6
:1053D00007EC0E94FCECCB010E94B5C1FC012081CE
:1053E00030E0203229F4218133E0203209F436E024
:1053F00021E5231B2093440F27E02093450F0E94B3
:105400002F228AE79FE00E9421228091410F8D3157
:1054100008F059C08091430F853108F454C020E052
:1054200030E040E05FE36091DE077091DF0780913C
:10543000E0079091E1070E9407EC0E94FCECCB0191
:105440000E94B5C1FC01208130E0203229F4218185
:1054500033E0203209F436E021E5231B2093440F8A
:105460002CE12093450F0E942F228AE79FE00E94A3
:1054700021228091410F853130F58091430F813198
:1054800010F16091650C7091660C072E000C880B72
:10549000990B0E94B6E72091DE073091DF0740911B
:1054A000E0075091E1070E948AED18160CF060C1E8
:1054B00010922D0F22E042E062E188E50E944BC08D
:1054C00081E080932D0F8091410F8C3130F58091D8
:1054D000430F843110F18091670C9091680C019614
:1054E00044E6489F9001499F300D112437FF02C0C8
:1054F00021503F4F832F932F990F990B009769F0FD
:1055000028E62093440F2BE12093450F0E94B5C15C
:105510000E942F2285E20E94E8B58091AB1188237A
:1055200059F18091410F843338F58091430F8A32CD
:1055300018F127E048E06AE28AE20E944BC025E0C9
:1055400042E06CE282E30E944BC024E04AE061E367
:105550008AE20E9415C060910F0F7091100F82E3D4
:105560008093290F8BE280932A0F29E23FE042E3E8
:105570008DE09FE00E941EBE8091410F853350F464
:105580008091430F813330F024E04AE461E386E305
:105590000E9415C08091AB11882309F444C080910A
:1055A000551290915612A0915712B091581200972F
:1055B000A105B105C1F1BC01CD016D597F4F8F4FE0
:1055C0009F4F24E630E040E050E00E94A3EB609162
:1055D000591270915A1280915B1290915C120E9444
:1055E000A3EB223000F18091410F8433E0F48091ED
:1055F000430F8233C0F0F8E42F9FB0011124072E2F
:10560000000C880B990B0E94B6E72AE037ED43E2C5
:105610005CE30E9415E80E9403ED462F22E062E35E
:1056200087E30E944BC08091410F813308F0CAC0CC
:105630008091430F893208F4C5C00E9452282B0183
:105640003C0120E13EE040E050E00E94A3EBD22E7E
:10565000C32E022F132F7CE3872E912CA12CB12C6B
:10566000C301B201A50194010E94A3EBCA01B901D3
:10567000A50194010E94A3EBA62E972ECE010196C0
:105680007C0190E8491691E5590691E0690671049C
:1056900008F475C0C301B20120E831E541E050E0F3
:1056A0000E94A3EB69019F92AF92C80168E170E08C
:1056B0000E9420EE9F938F933F932F938AE59FE064
:1056C0009F938F93FF92EF920E9446E70FB6F89454
:1056D000DEBF0FBECDBF89E0FAE0CF16D10408F0DF
:1056E00064C088E062C02436310539F08436910503
:1056F0000CF063CD84E690E060CD47305105610544
:10570000710514F0069759CD4A3F5F4F6F4F7F4F99
:105710000CF05FCD069651CDF601849160910F0F8C
:105720007091100F1093290F00932A0F10922C0FD5
:1057300080932B0F29E23FE04BE38DE09FE00E9436
:105740001EBEFFEFCF1ADF0A185F103829F72FE0CF
:10575000E20EF11C0F5F043109F496CD670118E0E9
:10576000DBCF22E042E061E18DE00E944BC01DCE24
:1057700022E042E062E188E50E944BC0A4CE0436FC
:10578000110508F0D8C19F92AF92CF92DF9280E5C9
:105790009FE09F938F93FF92EF920E9446E70FB690
:1057A000F894DEBF0FBECDBF85E0982F990F990FFB
:1057B000891B855A8093440F80E38093450FC7016E
:1057C0000E942F22E091070FF091080F8481811130
:1057D00009C12091770C3091780C4091790C50914F
:1057E0007A0C6091870C7091880C8091890C909153
:1057F0008A0C0E9407EC6B017C0120E030E0A901DB
:105800000E94AFE720E030E040E05FEB87FD04C09E
:1058100020E030E040E05FE3C701B6010E9407EC02
:105820000E94FCECCB010E9436C1BC018AEE98E0DC
:105830000E94A8EE20917B0C30917C0C40917D0C55
:1058400050917E0C60918B0C70918C0C80918D0C22
:1058500090918E0C0E9407EC6B017C0120E030E0FF
:10586000A9010E94AFE720E030E040E05FEB87FD58
:1058700004C020E030E040E05FE3C701B6010E94D1
:1058800007EC0E94FCECCB010E9436C1BC0185EE06
:1058900098E00E94A8EE20917F0C3091800C4091FE
:1058A000810C5091820C60918F0C7091900C8091C2
:1058B000910C9091920C0E9407EC6B017C0120E00E
:1058C00030E04AE754E40E9415E82B013C0120E057
:1058D00030E0A901C701B6010E94AFE720E030E047
:1058E00040EA50EC87FD04C020E030E040EA50E49C
:1058F000C301B2010E9407EC20E030E040E251E435
:105900000E948AEC0E94FCEC6B017C01F7FC26C132
:1059100060E2F0E1CF16F7E2DF06E104F10484F083
:10592000B60120E137E240E050E00E94C5EBCA0139
:10593000B9012AE030E040E050E00E94C5EB605D34
:1059400060936A0C60E228EEC21623E0D206E104FE
:10595000F1048CF0C701B60128EE33E040E050E0DE
:105960000E94C5EBCA01B9012AE030E040E050E0F6
:105970000E94C5EB605D60936B0CC701B60124E625
:1059800030E040E050E00E94C5EB6AE0462E512C2A
:10599000612C712CCA01B901A30192010E94C5EBCF
:1059A000605D60936C0CC701B601A30192010E9477
:1059B000C5EB162FCA01B901A30192010E94C5EBE4
:1059C000112309F4D5C08EE280936D0C605D609365
:1059D0006E0C105D10936F0C6AE67CE08EED98E023
:1059E0000E94A8EE8091410F883208F057C0809144
:1059F000430F8D3108F452C02BE040E86DE180E0A8
:105A00000E9415C08091410F873208F047C08091F5
:105A1000430F8F3108F442C083E08093440F16E2B5
:105A20001093450F88E79FE00E9421228BE080932E
:105A3000440F1093450F332009F4ACC08AEE98E070
:105A40000E942F228BE28093440F16E21093450FA1
:105A500081E79FE00E94212283E38093440F10930B
:105A6000450F332009F4B1C085EE98E00E942F2243
:105A700083E58093440F16E21093450F8FE69FE075
:105A80000E9421228BE58093440F1093450F332011
:105A900009F4B6C08EED98E00E942F228091410F4C
:105AA000823310F58091430F8B32F0F084E00E9436
:105AB000782683E08093440F12E31093450F86E02D
:105AC0000E9419220E94C1C98CE08093440F109358
:105AD000450F80911501909116010E94B5C10E9459
